:020000040000FA
:060000000A128A110C280F
:10000800FE00030EF1000A08F2000A128A111528F0
:100018000A128A110F28F601F70183010A128A11C0
:10002800A928831203138C1D1A281B286D28141263
:10003800141B1F2820282428941F232824282B2811
:100048001308F0007008F70014139413141683169D
:100058000313941A302831284928141934283528CC
:100068004928831203131308F0007008F7008C1155
:10007800141683160313141C422843283D28A6305F
:10008800F000F00B452800006A28941A4C284D28E7
:100098006A28141D502851286A288312031313084C
:1000A800F0007008F7008316031314107608831203
:1000B800031393001416A630F000F00B612800001B
:1000C80083160313141869286A28642883120313F3
:1000D8008C1172088A00710E8300FE0E7E0E0900D4
:1000E8000130831603178800890101308316031332
:1000F8008500860188018312031386018801503028
:100108000A128A11CA200A128A11831603130F17BA
:100118008F160F160F14831203131F14831603135D
:100128009F13831203139F14831603131F129F1226
:10013800C330831203139F051F083F3940389F00BF
:100148002130F400F40BA62808000A128A11742042
:100158000A128A11831203139F18B328B428AE28F1
:100168009F141F0CF500750C0F39003A031DBD28AC
:10017800BE28C2281E08F5007508F6002130F500D3
:10018800F50BC428AE280A128A110C28F30073084C
:1001980083160313930036308312031394008030C0
:1001A80083160313940001309100871507168B17E7
:1001B8000B17831203138C11831603138C15080075
:04400E00D520FF3F7B
:00000001FF
