:020000040000FA
:060000000A128A110C280F
:10000800FE00030EF1000A08F2000A168A158B2A70
:100018000A128A110F2883120313EF018313CD30BC
:100028008400EE300A168A155C220A128A11831798
:1000380090308400C2300A168A155C220A128A118E
:1000480083010A168A11E828831603134508F60067
:100058004408F5004308F4004208F3000030FA00B1
:100068000030F9000030F8000030F7000A168A1551
:10007800A0230A128A11031842284328EB28831662
:100088000313450883120313D80083160313440887
:1000980083120313D7008316031343088312031331
:1000A800D60083160313420883120313D5000A16D9
:1000B8008A1567250A128A118312031358085704F0
:1000C80056045504031D69286A28EB288316031370
:1000D8004108803AFF0080307F02031D75280230F6
:1000E8004002031C78287928EB28831603133F085D
:1000F800F6003E08F5003D08F4003C08F3004030E7
:10010800FA008930F9007030F8005F30F7000A16FD
:100118008A15E3250A128A110318932894289D2822
:10012800F73083160313C0070318C10AFF30C1074D
:10013800A528F83083160313C0070318C10AFF3037
:10014800C10740080A128A159D240A128A118312CF
:100158000313450883160313BF00831203134408CF
:1001680083160313BE008312031343088316031375
:10017800BD0083120313420883160313BC0045080D
:10018800F6004408F5004308F4004208F3003F086D
:10019800FA003E08F9003D08F8003C08F7000A1686
:1001A8008A112A200A128A11760883160313B700C7
:1001B8007508B6007408B5007308B4000030C500AF
:1001C8000030C4000030C3000030C200512983163B
:1001D8000313450883120313D80083160313440836
:1001E80083120313D70083160313430883120313E0
:1001F800D60083160313420883120313D5000A1688
:100208008A1567250A128A11831203135808831660
:100218000313B70083120313570883160313B6009A
:1002280083120313560883160313B50083120313AE
:10023800550883160313B4003708F6003608F5008E
:100248003508F4003408F30000300A168A158726AA
:100258000A128A11760883160313A3007508A200F0
:100268007408A1007308A0004508A7004408A60068
:100278004308A5004208A4000A168A15F0230A12AA
:100288008A11831603132308C5002208C400210815
:10029800C3002008C200C001C101C801C80A48083B
:1002A80083120313EA0001300310EA0DFF3E031D19
:1002B800582903106A0D693E84000A128A15002025
:1002C8000A128A11EB000A128A1500200A128A11F2
:1002D800EC000A128A1500200A128A11ED000A128F
:1002E8008A1500200A128A11EE006E08831603137D
:1002F8003702031D9529831203136D088316031310
:100308003602031D9529831203136C088316031301
:100318003502031D9529831203136B0883160313F3
:1003280034020318982999299A29A8290130831297
:100338000313EA006A0883160313C8070A3048063D
:10034800031DA729A8295329480846078312031320
:10035800EA008316031347080318470A8312031396
:10036800EB00831603134008831203136A07EC009B
:100378008316031341080318410A831203136B07FA
:10038800ED006C0883160313BA02831203136D0879
:1003980083160313031CBB03BB0246084704031957
:1003A800D629D729DD29FF30BA070318BB0AFF3041
:1003B800BB070330380583120313EA0000308316A5
:1003C8000313390583120313EB006A086B0403193E
:1003D800EE29EF29102AFF3083160313BA070318F2
:1003E800BB0AFF30BB07102A203083120313EA0030
:1003F80083160313280884008317291C8313831288
:1004080003136A088000013083160313A807031832
:10041800A90A0030A907EF29831603133B08803A7D
:10042800FF0080307F02031D1B2A01303A020318A7
:100438001E2A1F2AF829033083160313380583124E
:100448000313EA00003083160313390583120313DC
:10045800EB006A086B040319322A332AB82A2D30B4
:10046800EA0083160313280884008317291C8313C2
:10047800831203136A088000013083160313A80748
:100488000318A90A0030A907B82A480883120313D9
:10049800EA0001300310EA0DFF3E031D4E2A031047
:1004A8006A0D693E84000A128A1500200A128A1110
:1004B800F3000A128A1500200A128A11F4000A129F
:1004C8008A1500200A128A11F5000A128A150020DE
:1004D8000A128A11F600831603133708FA00360841
:1004E800F9003508F8003408F7000A168A1596242A
:1004F8000A128A11760883160313BF007508BE0016
:100508007408BD007308BC000030F6000030F50028
:100518000030F4000A30F3003F08FA003E08F90002
:100528003D08F8003C08F7000A168A1540240A120C
:100538008A11760883160313BF007508BE00740875
:10054800BD007308BC003C08303E83120313EA0068
:1005580083160313280884008317291C8313831226
:1005680003136A088000402A013083160313C80267
:10057800480A031DC02AC12A492ADF2A30308312BB
:100588000313EA0083160313280884008317291C21
:100598008313831203136A08800001308316031340
:1005A800A8070318A90A0030A907FF30C0070318D5
:1005B800C10AFF30C1074108803AFF0080307F023E
:1005C800031DE82A013040020318EB2AEC2AC22A4C
:1005D800831603134708803AFF0080307F02031D0B
:1005E800F72A09304602031CFA2AFB2A042B083092
:1005F80083120313EA006A0883160313C8000E2B3C
:1006080083160313460883120313EA006A08831645
:100618000313C800480883120313EA00EB016A08B1
:1006280083160313C602831203136B08831603137E
:10063800031CC703C70248080319232B242B3B2B91
:100648002E3083120313EA0083160313280884004C
:100658008317291C8313831203136A08800001304F
:1006680083160313A8070318A90A0030A907480826
:100678000A128A159D240A128A1183120313450847
:1006880083160313B200831203134408831603135B
:10069800B10083120313430883160313B0008312B7
:1006A8000313420883160313AF003208831203139F
:1006B800AF0083160313310883120313AE008316A9
:1006C8000313300883120313AD00831603132F0896
:1006D80083120313AC008316031345088312031314
:1006E800AB0083160313440883120313AA0083166E
:1006F8000313430883120313A90083160313420844
:1007080083120313A8000A128A153C210A128A11BF
:10071800831203132B08D8002A08D7002908D6000B
:100728002808D5000A168A1567250A128A11831225
:100738000313580883160313B700831203135708CB
:1007480083160313B6008312031356088316031384
:10075800B50083120313550883160313B400692CDC
:10076800480883120313EA0001300310EA0DFF3E24
:10077800031DB92B03106A0D693E84000A128A15FD
:1007880000200A128A11F3000A128A1500200A12A0
:100798008A11F4000A128A1500200A128A11F5003B
:1007A8000A128A1500200A128A11F600831603130A
:1007B8003708FA003608F9003508F8003408F70059
:1007C8000A168A1596240A128A11760883160313C4
:1007D800BF007508BE007408BD007308BC00003077
:1007E800F6000030F5000030F4000A30F3003F084E
:1007F800FA003E08F9003D08F8003C08F7000A1620
:100808008A1540240A128A11760883160313BF003A
:100818007508BE007408BD007308BC003C08303E73
:1008280083120313EA00831603132808840083172E
:10083800291C8313831203136A088000013083166E
:100848000313A8070318A90A0030A9074808831248
:100858000313EA0001300310EA0DFF3E031D2F2C9D
:1008680003106A0D693E84000A128A1500200A12D4
:100878008A11F3000A128A1500200A128A11F4005C
:100888000A128A1500200A128A11F5000A128A151E
:1008980000200A128A11F600831603133708FA009B
:1008A8003608F9003508F8003408F7000A168A15E2
:1008B80040240A128A11760883160313B7007508B4
:1008C800B6007408B5007308B4000130C802480ABD
:1008D800031D6F2C702CB42B8E2C30308312031315
:1008E800EA0083160313280884008317291C83133E
:1008F800831203136A088000013083160313A807C4
:100908000318A90A0030A907FF30C6070318C70A49
:10091800FF30C70746084704031D932C942C712CFD
:100928009E2D8316031346084704031D9C2C9D2CFB
:10093800AB2C3708360435043404031DA42CA52C2D
:10094800AB2C0130C6070318C70A0030C707470891
:10095800803A803C031DB22C460848020318B52C87
:10096800B62CC12C83160313460883120313EA001E
:100978006A0883160313C800E52C83160313470877
:10098800803A83120313EA0080306A02031DD02CD8
:1009980083160313480846020318D32CD42CE52CDD
:1009A80083160313480883120313EA00EB016A084D
:1009B80083160313C600831203136B0883160313ED
:1009C800C700831603133A083B040319EC2CED2CDB
:1009D800072D0330380583120313EA00003083160D
:1009E8000313390583120313EB006A086B04031918
:1009F800FE2CFF2C072DFF3083160313BA070318AC
:100A0800BB0AFF30BB0783160313391F0C2D0D2DAE
:100A1800302D4708803A83120313EA008316031324
:100A28003B08803A831203136A02031D1F2D8316A5
:100A380003133A0846020318222D232D2C2D831662
:100A480003134608BA024708031CBB03BB02302D38
:100A580083160313BA01BB013B08803A803C031D8F
:100A6800372D3A08480203183A2D3B2D4F2D83168F
:100A78000313480883120313EA00EB016A0883167C
:100A88000313BA02831203136B0883160313031CA0
:100A9800BB03BB02532D83160313BA01BB013A08EB
:100AA8003B040319582D592D7C2D20308312031334
:100AB800EA0083160313280884008317291C83136C
:100AC800831203136A088000013083160313A807F2
:100AD8000318A90A0030A907FF30BA070318BB0A90
:100AE800FF30BB073A083B04031D7B2D7C2D592D95
:100AF8000330380583120313EA000030831603130A
:100B0800390583120313EB006A086B0403198D2D52
:100B18008E2D9E2D2D30EA0083160313280884009D
:100B28008317291C8313831203136A0880000A168B
:100B38008A111B2D013083160313AA07FF302A07D9
:100B480084000A128A1500200A128A1183120313DC
:100B5800EA006A0883160313C8004808031DB52D68
:100B6800B82D0A168A11062D831603132808840047
:100B78008317291C83138001080083120313D500EF
:100B88006E305502031CC92DCA2DD92E3F30AB003B
:100B98000030AA000030A9000030A8006430A0008E
:100BA8000030A1005508C600C7014608A200470842
:100BB800A3000A168A155A230A128A1183120313EC
:100BC8002008C80001300310C80DFF3E031DE72DA3
:100BD8000310480D7D3E84000A128A1500200A126F
:100BE8008A11C9000A128A1500200A128A11CA003D
:100BF8000A128A1500200A128A11CB000A128A15D5
:100C080000200A128A11CC004C08AF004B08AE0035
:100C18004A08AD004908AC000A128A153C210A129C
:100C28008A11831203132B08D4002A08D300290839
:100C3800D2002808D1000A30A0000030A1005508D1
:100C4800C600C7014608F5004708F6006430F300FF
:100C58000030F4000A168A1520230A128A11740833
:100C680083120313A3007308A2000A168A155A23D5
:100C78000A128A11831203132008C80001300310D6
:100C8800C80DFF3E031D432E0310480D593E840036
:100C98000A128A1500200A128A11C9000A128A1536
:100CA80000200A128A11CA000A128A1500200A12A4
:100CB8008A11CB000A128A1500200A128A11CC0068
:100CC8004C08AB004B08AA004A08A9004908A8002C
:100CD8005408AF005308AE005208AD005108AC00EC
:100CE8000A128A153C210A128A11831203132B084F
:100CF800D0002A08CF002908CE002808CD000A30E5
:100D0800F3000030F4005508C600C7014608F50096
:100D18004708F6000A168A1520230A128A11730852
:100D280083120313C80001300310C80DFF3E031DD2
:100D3800982E0310480D353E84000A128A150020AB
:100D48000A128A11C9000A128A1500200A128A1189
:100D5800CA000A128A1500200A128A11CB000A1248
:100D68008A1500200A128A11CC004C08AB004B08E7
:100D7800AA004A08A9004908A8005008AF004F086F
:100D8800AE004E08AD004D08AC000A128A153C2191
:100D98000A128A11831203132B08C5002A08C400FB
:100DA8002908C3002808C200CD2F0B305502031CA8
:100DB800DE2EDF2E8A2F3F30AB000030AA00003035
:100DC800A9000030A8000A30A0000030A100550892
:100DD800C600C7014608A2004708A3000A168A15DC
:100DE8005A230A128A11831203132008C8000130FB
:100DF8000310C80DFF3E031DFC2E0310480D593E7D
:100E080084000A128A1500200A128A11C9000A12DF
:100E18008A1500200A128A11CA000A128A150020AF
:100E28000A128A11CB000A128A1500200A128A11A6
:100E3800CC004C08AF004B08AE004A08AD0049088A
:100E4800AC000A128A153C210A128A118312031374
:100E58002B08D4002A08D3002908D2002808D1007A
:100E68000A30F3000030F4005508C600C7014608F0
:100E7800F5004708F6000A168A1520230A128A1177
:100E8800730883120313C80001300310C80DFF3E16
:100E9800031D492F0310480D353E84000A128A1598
:100EA80000200A128A11C9000A128A1500200A12A3
:100EB8008A11CA000A128A1500200A128A11CB0068
:100EC8000A128A1500200A128A11CC004C08AB00BD
:100ED8004B08AA004A08A9004908A8005408AF000E
:100EE8005308AE005208AD005108AC000A128A152A
:100EF8003C210A128A11831203132B08C5002A0801
:100F0800C4002908C3002808C200CD2F3F30AB0019
:100F18000030AA000030A9000030A8005508C6001B
:100F280001300310C60DFF3E031D952F0310460D1B
:100F3800353E84000A128A1500200A128A11C70059
:100F48000A128A1500200A128A11C8000A128A1584
:100F580000200A128A11C9000A128A1500200A12F2
:100F68008A11CA004A08AF004908AE004808AD0017
:100F78004708AC000A128A153C210A128A1183120A
:100F880003132B08C5002A08C4002908C300280831
:100F9800C200080083120313A400A001A101730872
:100FA800F500F6017508A2007608A300241CDD2FC1
:100FB800DE2FE42F2208A0070318A10A2308A1079F
:100FC80001300310A20DA30DFF3E031DE52F0310F2
:100FD800A40C2408031DF12FF22FDA2F2108F400A6
:100FE8002008F30008000A128A15DC200A128A1168
:100FF800831203131308080008308A000408840ABF
:10100800820700340034003480343F340034003424
:101018002034413400340034C834423400340034BD
:101028007A344434003440341C3446340034503468
:10103800C334473400342434743449348034963407
:1010480018344B342034BC34BE344C3428346B341C
:101058006E344E34F934023415345034EC34783468
:10106800AD346034CA34F234493471340034003455
:1010780080343F34CD34CC34CC343D340A34D73486
:1010880023343C346F34123483343A341734B7344D
:10109800D1343834AC34C53427343734BD343734DC
:1010A800863435349534BF34D63433347734CC343D
:1010B8002B3432345F34703489343034FF34E634BE
:1010C800DB342E340834E5343C341E346034423486
:1010D800A2340D3401340034003400340A340034AE
:1010E800003400346434003400340034E834033409
:1010F800003400341034273400340034A0348634EB
:1011080001340034403442340F340034803496348F
:10111800983400340034E134F53405340034CA34EA
:101128009A343B3450346F34743465346E346334D9
:1011380069346F346D346534743472346F342034E8
:1011480031343A342034253433342E343034663450
:101158006234693474347334003450346F34743402
:1011680065346E3463346934F3346D3465347434FF
:1011780072346F34203432343A34203425343334E2
:101188002E34303466346234693474347334003441
:1011980043346F346E347434613464346F3472346D
:1011A8003A342034253433342E3430346634003421
:1011B80083160313141CE128E228DC280800F9012F
:1011C800F61FE728E828EF28F509F609F50A0319B4
:1011D800F60AF901F90AF41FF228F328F828F309A6
:1011E800F409F30A0319F40A730874040319FD28AF
:1011F800FE282D29F801F80A0C2901300310F30DF7
:10120800F40DFF3E031D02290130F7007708F807A7
:10121800F41F0F291029012974087602031D1629C5
:1012280073087502031C19291A2920297308F50265
:101238007408031CF603F60201300310F40CF30CD7
:10124800FF3E031D21290130F802031D2C292D29F9
:10125800102979080319312932293729F509F6099E
:10126800F50A0319F60A7608F4007508F300080071
:10127800831203132B088039B0003008B5002B08FF
:10128800B0003007B1003108BB00AA1F4C294D2916
:101298004E293B143B0803195229532962293B0A5A
:1012A800031D5729582960290030AB000030AA00D7
:1012B8000030A9000030A800AA176A290030AB0046
:1012C8000030AA000030A9000030A8002F0880399B
:1012D800B0003008B5062F08B0003007B10031085B
:1012E800BA00AE1F782979297A293A143A080319DD
:1012F8007E297F298E293A0A031D832984298C296E
:101308000030AF000030AE000030AD000030AC005F
:10131800AE1796290030AF000030AE000030AD00A7
:101328000030AC003A0803199A299B29A0293B08E8
:10133800031D9F29A029A9290030AB000030AA006D
:101348000030A9000030A8009C2C2808B000300804
:10135800F3002E080A128A11CE270A128A15740879
:1013680083120313C1007308C0004008B000B10124
:10137800B201B3013308B9003208B8003108B70028
:101388003008B6004108B000B101B201B30133081A
:10139800BF003208BE003108BD003008BC00290873
:1013A800B0003008F3002D080A128A11CE270A125D
:1013B8008A15740883120313C1007308C00040081B
:1013C800B000B101B201B3013008B607310803110A
:1013D8000318013E0319F129B7073208031103184E
:1013E800013E0319F829B807330803110318013E11
:1013F8000319FF29B9074108B000B101B201B301CF
:101408003008BC07310803110318013E03190D2ADF
:10141800BD07320803110318013E0319142ABE0739
:10142800330803110318013E03191B2ABF072A08B2
:10143800B0003008F3002C080A128A11CE270A12CD
:101448008A15740883120313C1007308C00040088A
:10145800B000B101B201B3013008B6073108031179
:101468000318013E0319392AB70732080311031874
:10147800013E0319402AB807330803110318013E37
:101488000319472AB9074108B000B101B201B301F5
:101498003008BC07310803110318013E0319552A07
:1014A800BD07320803110318013E03195C2ABE0761
:1014B800330803110318013E0319632ABF070830D4
:1014C800B0000310B60DB70DB80DB90DB00B652AF5
:1014D8002908B0003008F3002C080A128A11CE2718
:1014E8000A128A15740883120313C1007308C00016
:1014F8004008B0004108B100B201B3013008B60796
:10150800310803110318013E03198B2AB707320863
:1015180003110318013E0319922AB807330803116F
:101528000318013E0319992AB9072808B0003008A2
:10153800F3002D080A128A11CE270A128A15740898
:1015480083120313C1007308C0004008B0004108AB
:10155800B100B201B3013008B6073108031103180E
:10156800013E0319B82AB707320803110318013ED0
:101578000319BF2AB807330803110318013E0319DA
:10158800C62AB9070830B0000310B60DB70DB80D5C
:10159800B90DB00BC82A2808B0003008F3002C0891
:1015A8000A128A11CE270A128A15740883120313A5
:1015B800C1007308C0004008B0004108B100B20182
:1015C800B3013008B607310803110318013E0319A7
:1015D800EE2AB707320803110318013E0319F52A4A
:1015E800B807330803110318013E0319FC2AB90789
:1015F8002908B0003008F3002E080A128A11CE27F5
:101608000A128A15740883120313C1007308C000F4
:101618004008B0004108B100B201B3013008BC076E
:10162800310803110318013E03191B2BBD073208AB
:1016380003110318013E0319222BBE0733080311B7
:101648000318013E0319292BBF072A08B0003008E8
:10165800F3002D080A128A11CE270A128A15740877
:1016680083120313C1007308C0004008B00041088A
:10167800B100B201B3013008BC07310803110318E7
:10168800013E0319482BBD07320803110318013E18
:1016980003194F2BBE07330803110318013E031922
:1016A800562BBF072A08B0003008F3002E080A128C
:1016B8008A11CE270A128A15740883120313C100EF
:1016C8007308C0004008B0004108B100B201B3017E
:1016D80008300310B00DB10DB20DB30DFF3E031D60
:1016E8006D2B3008BC07310803110318013E03199C
:1016F8007E2BBD07320803110318013E0319852B01
:10170800BE07330803110318013E03198C2BBF07CA
:101718003608B0003708B1003808B2003908B300FD
:1017280018300310B30CB20CB10CB00CFF3E031D03
:10173800952B3008BC07310803110318013E031923
:10174800A62BBD07320803110318013E0319AD2B60
:10175800BE07330803110318013E0319B42BBF0752
:101768000830B0000310B60DB70DB80DB90DB00BA9
:10177800B62B3B083A07B000B101B10D3008823EE4
:10178800C00031080318013EFF3EC100E82B0130BC
:10179800B0000310BC0DBD0DBE0DBF0DB00BCD2BA1
:1017A800B91FD72BD82BD92B3C140130B00003100C
:1017B800B60DB70DB80DB90DB00BDB2BFF30C00758
:1017C8000318C10AFF30C107BE1FEB2BEC2BCB2B34
:1017D800BA01B91FF02BF12B0D2CFF303605B000E4
:1017E800FF303705B100FF303805B2007F303905CA
:1017F800B30033083204310430040319042C052CD7
:10180800082CBA01BA0A0D2C3C1C0B2C0C2C0D2CE4
:10181800052C3A080319112C122C432C0130BC0753
:10182800003003180130BD07003003180130BE072F
:10183800003003180130BF073F1C232C242C432CF5
:101848003C08B0003D08B1003E08B2003F08B300B4
:101858000130B400330DB30CB20CB10CB00CB40BA6
:101868002E2C3308BF003208BE003108BD003008F6
:10187800BC000130C0070318C10A0030C107410885
:10188800803AFF0080307F02031D4C2CFF3040025D
:10189800031C4F2C502C5B2C7F3083120313BF008A
:1018A8008030BE000030BD000030BC00902C831298
:1018B80003134108803AFF0080307F02031D662C25
:1018C800013040020318692C6A2C762C00308312F0
:1018D8000313BF000030BE000030BD000030BC0064
:1018E800B501902C831203134008B0003008BB00E8
:1018F800FF30BC05FF30BD057F30BE050030BF0599
:101908003B1C872C882C892CBE173B08B000031081
:10191800300CB1003108BF003508B0003008BF04F2
:101928003F08AB003E08AA003D08A9003C08A800F3
:10193800080083120313D400D41FA32CA42C532E05
:10194800D409D40A5408803A123E031CAC2CAD2C9E
:10195800972D0A30A0000030A1005408F500F601C8
:10196800F51BF6036430F3000030F4000A128A1500
:10197800E3200A128A15740883120313A30073085C
:10198800A2000A168A15FE240A128A158312031366
:101998002008C60001300310C60DFF3E031DCF2CE2
:1019A8000310460D593E84000A128A1500200A12B7
:1019B8008A15C7000A128A1500200A128A15C8005B
:1019C8000A128A1500200A128A15C9000A128A15F5
:1019D80000200A128A15CA004A08AB004908AA0062
:1019E8004808A9004708A8006430A0000030A100FA
:1019F8005408A200A301A21BA3030A168A15FE24F9
:101A08000A128A15831203132008CB000130031031
:101A1800CB0DFF3E031D0B2D03104B0D7D3E8400A7
:101A28000A128A1500200A128A15CC000A128A1591
:101A380000200A128A15CD000A128A1500200A12FF
:101A48008A15CE000A128A1500200A128A15CF00BC
:101A58004F08AF004E08AE004D08AD004C08AC0072
:101A68000A128A153C210A128A15831203132B08BD
:101A7800D3002A08D2002908D1002808D0000A304B
:101A8800F3000030F4005408F500F601F51BF603E6
:101A98000A128A15E3200A128A157308831203139F
:101AA800C60001300310C60DFF3E031D562D03105E
:101AB800460D353E84000A128A1500200A128A153E
:101AC800C7000A128A1500200A128A15C8000A12CD
:101AD8008A1500200A128A15C9000A128A150020E0
:101AE8000A128A15CA004A08AB004908AA00480821
:101AF800A9004708A8005308AF005208AE005108D3
:101B0800AD005008AC000A128A153C210A128A1549
:101B1800831203132B08C5002A08C4002908C30030
:101B28002808C200FF2F5408803A753E031C9D2DDB
:101B38009E2D262E0A30F3000030F4005408F500DC
:101B4800F601F51BF6030A128A15E3200A128A1514
:101B5800730883120313C60001300310C60DFF3E3D
:101B6800031DB12D0310460D353E84000A128A1557
:101B780000200A128A15C7000A128A1500200A12C4
:101B88008A15C8000A128A1500200A128A15C90087
:101B98000A128A1500200A128A15CA004A08AB00E0
:101BA8004908AA004808A9004708A8000A30A00068
:101BB8000030A1005408A200A301A21BA3030A1627
:101BC8008A15FE240A128A15831203132008CB00F3
:101BD80001300310CB0DFF3E031DED2D03104B0DFF
:101BE800593E84000A128A1500200A128A15CC0070
:101BF8000A128A1500200A128A15CD000A128A15BF
:101C080000200A128A15CE000A128A1500200A122C
:101C18008A15CF004F08AF004E08AE004D08AD0042
:101C28004C08AC000A128A153C210A128A15831244
:101C380003132B08C5002A08C4002908C300280874
:101C4800C200FF2F5408C60001300310C60DFF3E26
:101C5800031D292E0310460D353E84000A128A15ED
:101C680000200A128A15C7000A128A1500200A12D3
:101C78008A15C8000A128A1500200A128A15C90096
:101C88000A128A1500200A128A15CA004A08C500D5
:101C98004908C4004808C3004708C200FF2F540879
:101CA800803A123E031C592E5A2E442F0A30A000A7
:101CB8000030A1005408F500F601F51BF603643066
:101CC800F3000030F4000A128A15E3200A128A157C
:101CD800740883120313A3007308A2000A168A1556
:101CE800FE240A128A15831203132008C600013045
:101CF8000310C60DFF3E031D7C2E0310460D253E26
:101D080084000A128A1500200A128A15C7000A12CE
:101D18008A1500200A128A15C8000A128A1500209E
:101D28000A128A15C9000A128A1500200A128A1591
:101D3800CA004A08AB004908AA004808A900470891
:101D4800A8006430A0000030A1005408A200A3013C
:101D5800A21BA3030A168A15FE240A128A158312E7
:101D680003132008CB0001300310CB0DFF3E031DE9
:101D7800B82E03104B0D493E84000A128A15002024
:101D88000A128A15CC000A128A1500200A128A152E
:101D9800CD000A128A1500200A128A15CE000A12EE
:101DA8008A1500200A128A15CF004F08AF004E0886
:101DB800AE004D08AD004C08AC000A128A153C2153
:101DC8000A128A15831203132B08D3002A08D2009B
:101DD8002908D1002808D0000A30F3000030F400A8
:101DE8005408F500F601F51BF6030A128A15E320DC
:101DF8000A128A15730883120313C60001300310F0
:101E0800C60DFF3E031D032F0310460D013E84003F
:101E18000A128A1500200A128A15C7000A128A15A2
:101E280000200A128A15C8000A128A1500200A1210
:101E38008A15C9000A128A1500200A128A15CA00D2
:101E48004A08AB004908AA004808A9004708A800A2
:101E58005308AF005208AE005108AD005008AC005E
:101E68000A128A153C210A128A15831203132B08B9
:101E7800C5002A08C4002908C3002808C200FF2F8B
:101E88005408803A753E031C4A2F4B2FD32F0A3033
:101E9800F3000030F4005408F500F601F51BF603D2
:101EA8000A128A15E3200A128A157308831203138B
:101EB800C60001300310C60DFF3E031D5E2F031040
:101EC800460D013E84000A128A1500200A128A155E
:101ED800C7000A128A1500200A128A15C8000A12B9
:101EE8008A1500200A128A15C9000A128A150020CC
:101EF8000A128A15CA004A08AB004908AA0048080D
:101F0800A9004708A8000A30A0000030A100540822
:101F1800A200A301A21BA3030A168A15FE240A1213
:101F28008A15831203132008CB0001300310CB0D50
:101F3800FF3E031D9A2F03104B0D253E84000A1205
:101F48008A1500200A128A15CC000A128A15002068
:101F58000A128A15CD000A128A1500200A128A155B
:101F6800CE000A128A1500200A128A15CF004F08DF
:101F7800AF004E08AE004D08AD004C08AC000A1288
:101F88008A153C210A128A15831203132B08C500EF
:101F98002A08C4002908C3002808C200FF2F5408D3
:101FA800C60001300310C60DFF3E031DD62F0310D7
:101FB800460D013E84000A128A1500200A128A156D
:101FC800C7000A128A1500200A128A15C8000A12C8
:101FD8008A1500200A128A15C9000A128A150020DB
:101FE8000A128A15CA004A08C5004908C4004808E8
:081FF800C3004708C200080005
:10200A00F701F801731C0A280B2811287508F7072D
:10201A000318F80A7608F80701300310F50DF60DD3
:10202A00FF3E031D122801300310F40CF30CFF3E8F
:10203A00031D192873087404031D2428252807285A
:10204A007808F4007708F30008000310750D760D80
:10205A0083120313A0002008A6002608031D3628B1
:10206A00372840280030F6000030F5000030F40030
:10207A000030F300E7280310790D7A0DA00020083C
:10208A00A5002508031D4A284B284C283728F51790
:10209A00FF30F305FF30F405FF30F5050030F60593
:1020AA00F917FF30F705FF30F805FF30F905003062
:1020BA00FA050030A4000030A3000030A20000306E
:1020CA00A1007F30A602A0302507A0002008A602A2
:1020DA002030A0002008A5000130A0000310A10DA7
:1020EA00A20DA30DA40DA00B73287A087602031D76
:1020FA00882879087502031D882878087402031D48
:10210A00882877087302031C8B288C289B28770859
:10211A00F3027808031C780FF4027908031C790F7C
:10212A00F5027A08031C7A0FF60221140130A00086
:10213A000310F30DF40DF50DF60DA00B9D280130DB
:10214A00A502031DA928AA287128A61FAD28AE2812
:10215A00C8282608803A9F3E0318B428B528B6280E
:10216A00372801300310A40CA30CA20CA10CFF3ECB
:10217A00031DB7280130A0002008A607031DC628A2
:10218A00C728B628DF2820302602031CCD28CE28EF
:10219A00DA2837280130A0000310A10DA20DA30DE3
:1021AA00A40DA00BD1280130A6022608031DDE28A3
:1021BA00DF28CF282408F6002308F5002208F400B7
:1021CA002108F30008000A168A15B4220A168A1191
:1021DA00831203130711033083160313CA009730BF
:1021EA00C900C90BF628CA0BF6282B30831603132D
:1021FA005906031D0129022943293F30831203137B
:10220A00D9008030D8000030D7000030D6008316BD
:10221A000313500883120313DD00831603134F08B8
:10222A0083120313DC00831603134E08831203136D
:10223A00DB00831603134D0883120313DA000A1610
:10224A008A1173220A168A118312031359088316F4
:10225A000313D00083120313580883160313CF0005
:10226A0083120313570883160313CE008312031332
:10227A00560883160313CD00D90169292D30590652
:10228A00031D4829492969293F30A3008030A2004B
:10229A000030A1000030A0005008A7004F08A60097
:1022AA004E08A5004D08A4000A168A15F0230A163E
:1022BA008A11831603132308D0002208CF002108AD
:1022CA00CE002008CD004129831203136F080A1695
:1022DA008A1556220A168A11831203136F08031DE0
:1022EA00772978299E29EF01EF0A0A128A11F7271E
:1022FA000A168A1183160313C900CA01CB01CC013D
:10230A004C08F6004B08F5004A08F4004908F300A7
:10231A0000300A168A1587260A168A117608831645
:10232A000313D8007508D7007408D6007308D500BF
:10233A00C7296F03031DA229A329C729EF010A127E
:10234A008A11F7270A168A1183160313C900CA01CC
:10235A00CB01CC014C08F6004B08F5004A08F40002
:10236A004908F30000300A168A1587260A168A11C8
:10237A00760883160313D4007508D3007408D200B4
:10238A007308D100033083160313CA009730C900BB
:10239A00C90BCD29CA0BCD298312031307150B309C
:1023AA0083160313CB002630CA005D30C900C90B5F
:1023BA00DC29CA0BDC29CB0BDC29903083160313EA
:1023CA00A8000130A9009130C9004908AA0058089C
:1023DA00AE005708AD005608AC005508AB000A1607
:1023EA008A11FB240A168A11DA3083160313A8000D
:1023FA000030A900AC30C9004908AA005408AE0050
:10240A005308AD005208AC005108AB000A168A11F5
:10241A00FB240A168A11AE3083160313A800013072
:10242A00A900C730C9004908AA005008AE004F08E1
:10243A00AD004E08AC004D08AB000A168A11FB2409
:10244A000A168A110C308312031399009030F40093
:10245A000130F5000A168A15E9220A168A110D308A
:10246A00831203139900DA30F4000030F5000A16DB
:10247A008A15E9220A168A110D308312031399006C
:10248A00AE30F4000130F5000A168A15E9220A1660
:10249A008A1183160313500883120313D800831674
:1024AA0003134F0883120313D700831603134E082E
:1024BA0083120313D600831603134D0883120313E2
:1024CA00D5000A168A1567250A168A11831203137C
:1024DA0055088800ED280A128A110C288312031362
:1024EA0059088039DE005E08E6005908DE005E07FA
:1024FA00DF005F08E800D81F832A842A852A681427
:10250A0068080319892A8A2A9A2A680A031D8E2AC0
:10251A008F2A972A0030D9000030D8000030D7001F
:10252A000030D600D817D901A22A0030D9000030CD
:10253A00D8000030D7000030D6005D088039DE00B0
:10254A005E08E700670866060319AC2AAD2AAE2AB8
:10255A0066175D08DE005E07DF005F08E700DC1F24
:10256A00B72AB82AB92A671467080319BD2ABE2AE6
:10257A00CE2A670A031DC22AC32ACB2A0030DD00ED
:10258A000030DC000030DB000030DA00DC17DD014F
:10259A00D62A0030DD000030DC000030DB000030DD
:1025AA00DA00680867020318DB2ADC2A202B661F78
:1025BA00DF2AE02AE42A8030DE005E08E6066808A0
:1025CA00DE005E08E9006708DE005E08E8006908C8
:1025DA00DE005E08E7005608DE005E08E9005A08D9
:1025EA00DE005E08D6006908DE005E08DA005708D9
:1025FA00DE005E08E9005B08DE005E08D7006908B5
:10260A00DE005E08DB005808DE005E08E9005C08B0
:10261A00DE005E08D8006908DE005E08DC005908A2
:10262A00DE005E08E9005D08DE005E08D900690880
:10263A00DE005E08DD00E9016708DE00DF015F08F1
:10264A00E10068085E02E000031CE1036108803AC9
:10265A00FF0080307F02031D342B1A306002031CF6
:10266A00372B382B752B8312031359085804570438
:10267A005604031D412B432B0130442B0030DE004E
:10268A005E08E9000030D9000030D8000030D700D9
:10269A000030D6006708DE005E08E8007D2B691C62
:1026AA00572B582B612B6908DE0003105E0C01388A
:1026BA00DF005F08E900632B0310E90C561C662B48
:1026CA00672B682BE9170130DE00590DD90CD80C9D
:1026DA00D70CD60CDE0B6A2B0130DE005E08E80749
:1026EA008312031367086802031C7C2B7D2B542B6F
:1026FA00661B802B812BCC2B6808031D852B862B10
:10270A008F2B0030D9000030D8000030D7000030BD
:10271A00D600FA2C5A08D6075B0803110318013EA3
:10272A000319982BD7075C0803110318013E0319F4
:10273A009F2BD8075D0803110318013E0319A62B26
:10274A00D907591CA92BAA2B802C691CAD2BAE2B9F
:10275A00B72B6908DE0003105E0C0138DF005F0842
:10276A00E900B92B0310E90C561CBC2BBD2BBE2B60
:10277A00E9170130DE00590DD90CD80CD70CD60C4C
:10278A00DE0BC02B0130DE005E08E807802C5908FA
:10279A00803AFF005D08803A7F02031DDE2B5C0849
:1027AA005802031DDE2B5B085702031DDE2B5A0855
:1027BA0056020318E12BE22B3A2CFF30DE00FF30E1
:1027CA00DF00FF30E000FF30E1005A08E2005B085A
:1027DA00E3005C08E4005D08E5005608E2025708D9
:1027EA00031C570FF92BFA2BE3025808031C580F46
:1027FA00FF2B002CE4025908031C590F052C062C48
:10280A00E5026208DE0763080318630F0D2C0E2C1D
:10281A00DF0764080318640F132C142CE0076508FB
:10282A000318650AE1076108D9006008D8005F0843
:10283A00D7005E08D6008030DE005E08E606E909A9
:10284A00E90A6908031D2A2C2B2C482C0130D607CB
:10285A00003003180130D707003003180130D807B9
:10286A00003003180130D907482C5A08D6025B08F1
:10287A00031C5B0FD7025C08031C5C0FD8025D08BF
:10288A00031C5D0FD9025908580457045604031D46
:10289A004F2C502C7C2C6908031D542C552C7C2C55
:1028AA000030D9000030D8000030D7000030D60000
:1028BA00FA2C0130DE000310D60DD70DD80DD90D34
:1028CA00DE0B602CE91F6A2C6B2C6C2C5614691CCD
:1028DA006F2C702C732C0314E90D752C0310E90D61
:1028EA0068080319792C7A2C7C2C0130E802D81F4D
:1028FA007F2C802C5E2CE701E91F842C852C932CDD
:10290A0069087F3903198A2C8B2C8E2CE701E70A78
:10291A00932C561C912C922C932C8B2C6708031900
:10292A00972C982CCC2C0130D60700300318013094
:10293A00D707003003180130D807003003180130D8
:10294A00D907591CA92CAA2CCC2C5608DE005708EA
:10295A00DF005808E0005908E1000130E200610D8B
:10296A00E10CE00CDF0CDE0CE20BB42C6108D900A0
:10297A006008D8005F08D7005E08D600680A031905
:10298A00C72CC82CCC2C0130DE005E08E807680A88
:10299A000319D02CD12CD62C6808031DD52CD62C83
:1029AA00E42C0030D9000030D8000030D7000030C5
:1029BA00D6006808031DE22CE32CE42CE601681C0F
:1029CA00E72CE82CEA2CD817EE2C7F30DE005E08C4
:1029DA00D8056808DE0003105E0CDF005F08D90026
:1029EA00E61FF82CF92CFA2CD9170800AB30831201
:1029FA000313EA006A0883160313B3000A128A1142
:102A0A009E2D2530480603190B2D0C2D242D480820
:102A1A0083120313EA00831603132808840083171A
:102A2A00291C8313831203136A088000013083165A
:102A3A000313A8070318A90A0030A907032DBA012E
:102A4A00BB01B801B9012A0884000A128A150020BC
:102A5A000A168A110A168A1579220A168A11031C7D
:102A6A00372D382D842D83160313BA01BB010A3082
:102A7A00F3000030F400831603133B08F6003A080B
:102A8A00F5000A168A1105200A168A117408831697
:102A9A000313BB007308BA002A0884000A128A15B5
:102AAA0000200A168A11D03E83120313EA00FF306F
:102ABA0003180030EB006A0883160313BA070318D9
:102ACA00BB0A831203136B0883160313BB07013077
:102ADA0083120313EA006A0883160313AA072A0853
:102AEA0084000A128A1500200A168A110A168A1503
:102AFA0079220A168A110318832D842D3C2D8316F8
:102B0A0003132A0884000A128A1500200A168A1159
:102B1A002E3A031D912D922DE72D3917013083127C
:102B2A000313EA006A0883160313AA07C601C7013A
:102B3A00D62D0A30F3000030F40083160313470839
:102B4A00F6004608F5000A168A1105200A168A11A7
:102B5A00740883160313C7007308C6002A08840082
:102B6A000A128A1500200A168A11D03E831203130C
:102B7A00EA00FF3003180030EB006A0883160313DB
:102B8A00C6070318C70A831203136B0883160313B5
:102B9A00C707013083120313EA006A088316031376
:102BAA00AA072A0884000A128A1500200A168A111E
:102BBA000A168A1579220A168A110318E52DE62DB6
:102BCA009E2DEF2DC601C7013916EF2D831603136B
:102BDA0039150D2E013083160313AA07FF302A0771
:102BEA0084000A128A1500200A168A11C800831264
:102BFA000313EA00EB016B08003A0319052E032DB3
:102C0A006A08003A0319FD2F663A0319EB2D032DC2
:102C1A000030380583120313EA00073083160313C2
:102C2A00390583120313EB006A086B0403191E2E7D
:102C3A00212E0A128A11952C83160313391E262E69
:102C4A00272E2B2E0630C6000030C700330884001A
:102C5A0083130008C200840A0008C300840A00081B
:102C6A00C400840A0008C500043083120313EA0072
:102C7A006A0883160313B3074508F6004408F500EB
:102C8A004308F4004208F3000030FA000030F9006B
:102C9A000030F8000030F7000A168A15E3250A16F4
:102CAA008A110318592E5A2E772E831603134508B4
:102CBA00F6004408F5004308F4004208F3000A1637
:102CCA008A156E220A168A11760883160313C5001E
:102CDA007508C4007408C3007308C2000330B8043E
:102CEA000030B90483160313C001C1014508F60078
:102CFA004408F5004308F4004208F3000030FA00E3
:102D0A000030F9000030F8000030F7000A168A1582
:102D1A00A0230A168A110318932E942E942F0310B7
:102D2A0083160313440D450D823EC000FF3003187D
:102D3A000030C100FF30C0070318C10AFF30C107C5
:102D4A000330F3000030F4004108F6004008F500B3
:102D5A000A168A1105200A168A11740883160313A3
:102D6A00C1007308C0000A3083120313A0000030A8
:102D7A00A10083160313410883120313A3008316C9
:102D8A000313400883120313A2000A168A15FE24AD
:102D9A000A168A1183120313210883160313C1002A
:102DAA0083120313200883160313C000C11FDE2EEB
:102DBA00DF2EE52EFF30C0070318C10AFF30C10716
:102DCA004003FF3A0A128A159D240A168A118312B1
:102DDA000313450883160313BF0083120313440821
:102DEA0083160313BE0083120313430883160313C7
:102DFA00BD0083120313420883160313BC0045085F
:102E0A0083120313AB0083160313440883120313BC
:102E1A00AA0083160313430883120313A900831617
:102E2A000313420883120313A800831603133F08EF
:102E3A0083120313AF00831603133E08831203138E
:102E4A00AE00831603133D0883120313AD008316E5
:102E5A0003133C0883120313AC000A128A153C219F
:102E6A000A168A11831203132B0883160313BF0051
:102E7A00831203132A0883160313BE008312031353
:102E8A00290883160313BD00831203132808831627
:102E9A000313BC003F08F6003E08F5003D08F400A5
:102EAA003C08F3003F30FA008030F9000030F800A7
:102EBA000030F7000A168A15E3250A168A11031844
:102ECA00672F682F712FFF3083160313C00703186B
:102EDA00C10AFF30C107942F831603133F08F60077
:102EEA003E08F5003D08F4003C08F3004130FA00C2
:102EFA002030F9000030F8000030F7000A168A1571
:102F0A00E3250A168A11031C8B2F8C2F942F01306C
:102F1A0083160313C0070318C10A0030C1078316BA
:102F2A0003134708803AFF0080307F02031D9F2F5A
:102F3A000D3046020318A22FA32FEA2F831603137C
:102F4A0046080A128A11C1250A168A118312031326
:102F5A004508D9004408D8004308D7004208D600DB
:102F6A0083160313450883120313DD008316031324
:102F7A00440883120313DC008316031343088312E5
:102F8A000313DB0083160313420883120313DA00C8
:102F9A000A168A1173220A168A1183120313590810
:102FAA0083160313C50083120313580883160313E9
:102FBA00C40083120313570883160313C300831232
:102FCA000313560883160313C2008316031341081A
:102FDA00803AFF0080307F02031DF52F0A3040023D
:102FEA000318FA2F0A128A1128280A128A11792834
:062FFA000A128A11B82D35
:1034AC00F300730883120313930008006400800177
:1034BC00840A04060319003404065D2AF3008312FF
:1034CC0003130C1E6A2A6B2A652A730899000800DC
:1034DC0076087504740473040319752A762A782AFD
:1034EC008030F6060800F400F3013A307402031839
:1034FC00802A812A892A30307402031C862A872A62
:10350C00892AF301F30A730C0800831203138C1E2F
:10351C00902A912A972A1A08F00070088316031330
:10352C00D90072088A00710E8300FE0E7E0E09000F
:10353C00F600831603138712761DA52AA62AAA2A3B
:10354C00750894008715AE2A7308750494008711CA
:10355C00760874048312031394000800831603176F
:10356C0088018901831603130711860188018312D0
:10357C0003138601880107158717F301F401F50180
:10358C0020300A168A159E220A168A150B178316E6
:10359C0003138C16831203138C128B1783160313CD
:1035AC00181218118316031787153330831603135B
:1035BC0099009A018312031398171813181683167F
:1035CC00031398160800F901FA01092B79087407FE
:1035DC00F7007508F6000318F60AF91FF62AF60329
:1035EC007608F800770884008317781C831300088A
:1035FC000A168A1564220A168A150130F90703186F
:10360C00FA0A0030FA0779087407F7007508F60013
:10361C000318F60AF91F132BF6037608F80077083F
:10362C0084008317781C83130008031D1E2B1F2B8B
:10363C00EC2A0800730874040319252B262B552B30
:10364C00F801F80A342B01300310F30DF40DFF3E92
:10365C00031D2A2B0130F7007708F807F41F372BCE
:10366C00382B292B74087602031D3E2B7308750228
:10367C00031C412B422B482B7308F5027408031CC6
:10368C00F603F60201300310F40CF30CFF3E031D9D
:10369C00492B0130F802031D542B552B382B76087F
:1036AC00F4007508F300080083120313A401A501AC
:1036BC00200821040319632B642B9B2BA601A60A5B
:1036CC00722B01300310A00DA10DFF3E031D682BC2
:1036DC000130F9007908A607A11F752B762B672BF3
:1036EC0001300310A40DA50DFF3E031D772B2108FF
:1036FC002302031D832B20082202031C862B872BFD
:10370C008E2B2008A2022108031CA303A30224145D
:10371C0001300310A10CA00CFF3E031D8F2B0130B8
:10372C00A602031D9A2B9B2B762B2508A10024089F
:10373C00A00008000030730583120313A0000030B2
:10374C007405A10080307505A2007F307605A300BA
:10375C002308220421042004031DB52BB62BBE2BF9
:10376C000030F6000030F5000030F4000030F300BB
:10377C0000307705A00000307805A1008030790575
:10378C00A2007F307A05A300230822042104200420
:10379C00031DD12BD22BDA2B0030FA000030F900AC
:1037AC000030F8000030F7007A087606031DE82B8D
:1037BC0079087506031DE82B78087406031DE82BA1
:1037CC00770873060319EB2BEC2BEE2B0310EF2B66
:1037DC0003140800803083160313A30627088312F2
:1037EC000313D90083160313260883120313D8007E
:1037FC0083160313250883120313D70083160313B0
:10380C00240883120313D600831603132308831290
:10381C000313DD0083160313220883120313DC0049
:10382C0083160313210883120313DB00831603137F
:10383C00200883120313DA000A168A1173220A165F
:10384C008A1583120313590883160313A3008312DA
:10385C000313580883160313A2008312031357088B
:10386C0083160313A1008312031356088316031344
:10387C00A000080076087504740473040319472C1F
:10388C00482C8D2C83120313A101A10A5A2C013050
:10389C00A0000310F30DF40DF50DF60DA00B4F2C3D
:1038AC000130A0002008A107F61F5D2C5E2C4D2CCA
:1038BC0076087A02031D6C2C75087902031D6C2C9A
:1038CC0074087802031D6C2C73087702031C6F2C90
:1038DC00702C7E2C7308F7027408031C740FF8020A
:1038EC007508031C750FF9027608031C760FFA0293
:1038FC0001300310F60CF50CF40CF30CFF3E031D19
:10390C007F2C0130A102031D8C2C8D2C5E2C7A088F
:10391C00F6007908F5007808F4007708F300080041
:10392C00003083120313A4000030A3000030A20067
:10393C000030A10076087504740473040319A72CD5
:10394C00A82CF52CA501A50AB82C0130A000031059
:10395C00F30DF40DF50DF60DA00BAD2C0130A00000
:10396C002008A507F61FBB2CBC2CAB2C0130A000EB
:10397C000310A10DA20DA30DA40DA00BBE2C760857
:10398C007A02031DD32C75087902031DD32C7408FD
:10399C007802031DD32C73087702031CD62CD72C6A
:1039AC00E62C7308F7027408031C740FF8027508F0
:1039BC00031C750FF9027608031C760FFA0221140A
:1039CC0001300310F60CF50CF40CF30CFF3E031D48
:1039DC00E72C0130A502031DF42CF52CBC2C24087B
:1039EC00F6002308F5002208F4002108F300080073
:1039FC0083120313A501A11F042D052D0C2DA00965
:103A0C00A109A00A0319A10AA501A50AA31F0F2D3C
:103A1C00102D192DA209A309A20A0319A30A01301A
:103A2C00FA007A08A506A601A701200821040319AB
:103A3C00202D212D582DA401A40A2F2D0130031067
:103A4C00A00DA10DFF3E031D252D0130FA007A08B3
:103A5C00A407A11F322D332D242D01300310A60DE8
:103A6C00A70DFF3E031D342D21082302031D402DFD
:103A7C0020082202031C432D442D4B2D2008A202AA
:103A8C002108031CA303A302261401300310A10C6C
:103A9C00A00CFF3E031D4C2D0130A402031D572D1D
:103AAC00582D332D250803195C2D5D2D622DA6098B
:103ABC00A709A60A0319A70A2708A1002608A0002F
:103ACC000800031083120313570D580DD900590821
:103ADC00DF005F08031D732D742D7D2D0030D80081
:103AEC000030D7000030D6000030D500E22D55084C
:103AFC00D9005608DA005708DB005808DC001F30E4
:103B0C000310DC0CDB0CDA0CD90CFF3E031D862DEC
:103B1C005908DD005D08DE00D717FF30D505FF30F2
:103B2C00D605FF30D7050030D8059630DF02DF1FF1
:103B3C00A02DA12DBB2D5F08803A973E0318A72D11
:103B4C00A82DA92D742D01300310D80CD70CD60C30
:103B5C00D50CFF3E031DAA2D0130D9005908DF07F3
:103B6C00031DB92DBA2DA92DD22D20305F02031CB7
:103B7C00C02DC12DCD2D742D0130D9000310D50DC4
:103B8C00D60DD70DD80DD90BC42D0130DF025F082F
:103B9C00031DD12DD22DC22D5E080319D62DD72D84
:103BAC00E22DD509D609D709D809D50A0319D60AA1
:103BBC000319D70A0319D80A0800003073058312B9
:103BCC000313A00000307405A10080307505A2001D
:103BDC007F307605A3002308220421042004031D52
:103BEC00F82DF92D012E0030F6000030F5000030D4
:103BFC00F4000030F30000307705A00000307805A9
:103C0C00A10080307905A2007F307A05A30023083B
:103C1C00220421042004031D142E152E1D2E003009
:103C2C00FA000030F9000030F8000030F700F61F01
:103C3C00202E212E452E0030A0000030A100003097
:103C4C00A2008030A3007308A0027408031C740F38
:103C5C00302E312EA1027508031C750F362E372E0F
:103C6C00A2027608031C760F3C2E3D2EA3022308DD
:103C7C00F6002208F5002108F4002008F300FA1FD2
:103C8C00482E492E6D2E0030A0000030A1000030CF
:103C9C00A2008030A3007708A0027808031C780FDC
:103CAC00582E592EA1027908031C790F5E2E5F2E17
:103CBC00A2027A08031C7A0F642E652EA302230835
:103CCC00FA002208F9002108F8002008F7008030DB
:103CDC00F6068030FA067A087602031D7F2E7908E4
:103CEC007502031D7F2E78087402031D7F2E770842
:103CFC0073020318822E832E852E0310862E031436
:103D0C00080083120313A000200803198E2E8F2E97
:103D1C00A32EF61F922E932EA32E7309A2007409C4
:103D2C00A3007509A4007609A500A20A0319A30A29
:103D3C000319A40A0319A50AAB2E7608A500750869
:103D4C00A4007408A3007308A20076087504740418
:103D5C007304031DB22EB32EBC2E0030F6000030BF
:103D6C00F5000030F4000030F300422F9630F700DD
:103D7C007708A100CE2E0130F7007708A10701309B
:103D8C000310A50CA40CA30CA20CFF3E031DC62E05
:103D9C00FE302505031DD32ED42EC12EF02E01305E
:103DAC00F7007708A1070130A20700300318013093
:103DBC00A307003003180130A407003003180130AA
:103DCC00A50701300310A50CA40CA30CA20CFF3EFC
:103DDC00031DE82EFF302505031DF52EF62ED52EDE
:103DEC00022F0130A1020130F7000310A20DA30D28
:103DFC00A40DA50DF70BFB2EA41B052F062F0C2FC6
:103E0C000230210203180B2F0C2FF72E21180F2F25
:103E1C00102F182FFF30A205FF30A3057F30A4050B
:103E2C00FF30A5050310A10C2108F700F801F901DA
:103E3C00FA0118300310F70DF80DF90DFA0DFF3ECD
:103E4C00031D202F7708A2047808A3047908A40482
:103E5C007A08A50420080319342F352F3A2FF61FA2
:103E6C00382F392F3A2FA5172508F6002408F5000E
:103E7C002308F4002208F3000800730883120313CC
:103E8C00A0007408A1007508A2000310210D220DDA
:103E9C00A3002308A9002908031D552F562F5F2FB7
:103EAC000030F6000030F5000030F4000030F30074
:103EBC00FF2F7708A0007808A1007908A200031052
:103ECC00210D220DA3002308A8002808031D6F2F25
:103EDC00702F712F562FF417FF30F305FF30F405B8
:103EEC000030F505F817FF30F705FF30F805003006
:103EFC00F9050030A7000030A6000030A500003006
:103F0C00A4007F30A90298302807A0002008A9023D
:103F1C001830A0002008A8000130A0000310A40D48
:103F2C00A50DA60DA70DA00B942F79087502031DE6
:103F3C00A52F78087402031DA52F77087302031CA4
:103F4C00A82FA92FB42F7708F3027808031C780F39
:103F5C00F4027908031C790AF502241401300310C9
:103F6C00F30DF40DF50DFF3E031DB52F0130A80226
:103F7C00031DC12FC22F922FA91FC52FC62FE02FB3
:103F8C002908803A973E0318CC2FCD2FCE2F562FD1
:103F9C0001300310A70CA60CA50CA40CFF3E031DAE
:103FAC00CF2F0130A0002008A907031DDE2FDF2F23
:103FBC00CE2FF72F18302902031CE52FE62FF22FF6
:103FCC00562F0130A0000310A40DA50DA60DA70DB2
:103FDC00A00BE92F0130A9022908031DF62FF72F9A
:103FEC00E72F2708F6002608F5002508F40024081A
:043FFC00F3000800C6
:04400E00D620FF3F7A
:00000001FF
