:020000040000FA
:060000000A128A110E280D
:10000800FE00030EF5000408F6000A08F7000A12BD
:100018008A11B2280A128A111128F801F901FA0185
:10002800FB01FC01FD0183120313A001A101A20140
:10003800A301A401A501A601A70183010A128A113F
:100048008029F20077283F30831203138700B128F4
:100058000630831203138700B1285B308312031321
:100068008700B1284F30831203138700B128663008
:10007800831203138700B1286D308312031387009E
:10008800B1287D30831203138700B128073083120B
:1000980003138700B1287F30831203138700B12828
:1000A8006730831203138700B12877308312031354
:1000B8008700B1287C30831203138700B1283930B8
:1000C800831203138700B1285E308312031387005D
:1000D800B1287930831203138700B1287130831255
:1000E80003138700B1287208F000F1017108003A83
:1000F80003197F28B1287008003A03192728013A04
:1001080003192C28033A03193128013A0319362810
:10011800073A03193B28013A03194028033A0319FF
:100128004528013A03194A280F3A03194F28013A7A
:1001380003195428033A03195928013A03195E2868
:10014800073A03196328013A03196828033A03197F
:100158006D28013A03197228B12808008312031385
:100168000C1FB728B828DD280C131F0CF300730CDC
:100178000F39003A031DC128C228DD287C080A125D
:100188008A11AE210A128A11F3007308FD007D0856
:10019800F30004300310F30CFF3E031DCE28730850
:1001A8000F39F4007408FB007D080F39F300730859
:1001B800FA000B1CE028E128F22883120313061822
:1001C800E628E728EB280130F3007308880786182B
:1001D800EE28EF28F128013088020B100B1DF528B6
:1001E800F62824290B11B230831203138100091059
:1001F800891022082304031D0229032912297B08D8
:100208000A128A1125200A128A118312031309146B
:1002180089100130A2000030A300242922032304FE
:10022800031D1729182924297A080A128A1125205A
:100238000A128A118312031309108914A201A30157
:1002480077088A0076088400750E8300FE0E7E0EFD
:1002580009000130831603178800890101308316CD
:100268000313850003308600870188018901831202
:1002780003138601870188018901831603130F1769
:100288008F160F160F148112811101158110011498
:10029800B2308312031381000B118B160B178316D0
:1002A80003130C17831203130C138B150B108B17E6
:1002B80083160313811315149514161496148312B8
:1002C80003131F14831603139F13831203139F141E
:1002D800831603131F129F12C330831203139F0543
:1002E8001F083F3940389F00203083120313A800AD
:1002F800A80B7C29000008000A128A112D210A1275
:100308008A11831203139F188A298B299529203073
:1003180083120313A900A90B8F290000831203136A
:100328009F140808A900AA012A08AC007D08290220
:10033800AB00031CAC032B08A0002C08A100A11FD4
:10034800A629A729A92909158529091185290A1284
:100358008A110E28831203131E08F0007008F1009A
:040368007108080010
:04400E00D530FF3F6B
:00000001FF
