:020000040000FA
:060000000A128A1110280B
:10000800FE00030E83120313C7000A08C8007F0806
:10001800C9000A128A159D2F0A128A111328831300
:10002800E930FD000C30FE005330FF00DF30840063
:100038000A128A1597240A128A11A0308400C43043
:100048000A128A1539240A128A11CA01CB018301BE
:100058000A128A112F280A128A1503270A128A11EE
:100068004E300A128A1146250A128A110A128A1576
:1000780076240A128A11831203138F018E01061443
:10008800053083160313DC00DC0B48284B28831249
:1000980003130610023083160313DE000430DD005C
:1000A800B930DC00DC0B5628DD0B5628DE0B562851
:1000B8005D28831603132008013EA00021080318B9
:1000C800013E003EA1002108803AFF0080307F02F7
:1000D800031D702802302002031C732874289D28F1
:1000E800831603132108803AFF0081307F02031D25
:1000F8007F28913020020318822883289D288312A4
:1001080003138810831603132108803AFF008030F8
:100118007F02031D91286530200203189428952832
:100128009928831203130814A028831203130810B4
:10013800A0288312031388140A128A1541240A126C
:100148008A11613083160313C4000030C5000A12F7
:100158008A155D240A128A11003083160313C4001D
:10016800C5000A128A15E5250A128A118316031397
:100178004408DC005C08A9000A128A154A240A12FD
:100188008A11033083160313DE000830DD00763051
:10019800DC00DC0BCD28DD0BCD28DE0BCD280000E4
:1001A8000A128A1541240A128A1171308316031320
:1001B800C4000030C5000A128A155D240A128A118B
:1001C800003083160313C400C5000A128A15E525FA
:1001D8000A128A11831603134408DC005C08AA007B
:1001E8000A128A154A240A128A1103308316031345
:1001F800DE000830DD007630DC00DC0B0129DD0B89
:100208000129DE0B01290000831603132A08DC00EC
:10021800DD015C08D4005D08D5000A128A1519258D
:100228000A128A1183160313DE005E08A4002A0846
:10023800DC00DD015C08CB005D08CC000A128A15E1
:1002480065250A128A1183160313DE005E08A500CD
:100258002108D5002008D4000A128A15A6240A12FB
:100268008A1183160313DC005C08A6002108D50058
:100278002008D4000A128A1519250A128A11831631
:100288000313DC005C08A7002108CC002008CB0081
:100298000A128A1565250A128A1183160313DC00CF
:1002A8005C08A8002908DC00DD015C08CB005D08BB
:1002B800CC000A128A1565250A128A1183160313BF
:1002C800DE005E08A300CD01CD0A01300A128A15AE
:1002D80049260A128A11013083160313CD00803093
:1002E800CE000A128A1549270A128A1183160313A7
:1002F800CD01CD0A02300A128A1549260A128A113E
:10030800831603132608DC00DD015C08D5005D08B0
:10031800D6000A30D7000030D800BF300A128A153C
:100328003F250A128A11831603132708DC00DD0112
:100338005C08D5005D08D6000A30D7000030D80028
:10034800BA300A128A153F250A128A118316031336
:100358002808DC00DD015C08D5005D08D6000A30FD
:10036800D7000030D800B5300A128A153F250A1286
:100378008A11BA3083160313DC005C08C400BF304E
:100388000A128A15BA250A128A11B5308316031380
:10039800DC005C08C400BF300A128A15BA250A12AC
:1003A8008A11BF3083160313CD000030CE000A1225
:1003B8008A1549270A128A11073083160313DC00AD
:1003C8005C08CD0002300A128A1549260A128A11E1
:1003D800831603132908031DF229F329FD29E530A3
:1003E800CD000030CE000A128A1549270A128A1158
:1003F800062AE130CD000030CE000A128A154927BE
:100408000A128A110E3083160313DC005C08CD0033
:1004180002300A128A1549260A128A118316031312
:100428002408DC00DD015C08D5005D08D6000A3030
:10043800D7000030D800B0300A128A153F250A12BA
:100448008A11831603132508DC00DD015C08D5003A
:100458005D08D6000A30D7000030D800AB300A1249
:100468008A153F250A128A11AB3083160313DC0064
:100478005C08C400B0300A128A15BA250A128A111B
:10048800B03083160313CD000030CE000A128A154F
:1004980049270A128A112C300A128A1584240A1252
:1004A8008A11831603132408303E0A128A158424FD
:1004B8000A128A11831603132508303E0A128A1578
:1004C80084240A128A112C300A128A1584240A12EA
:1004D8008A11831603132608303E0A128A158424CB
:1004E8000A128A11831603132708303E0A128A1546
:1004F80084240A128A11831603132808303E0A122C
:100508008A1584240A128A112C300A128A15842426
:100518000A128A11831603132308303E0A128A1519
:1005280084240A128A112C300A128A1584240A1289
:100538008A11063083160313DE001330DD00AD3058
:10054800DC00DC0BA52ADD0BA52ADE0BA52A3F283B
:100558000A128A1110288312031327088039A80069
:100568002808B1002708A8002807A9002908B8000A
:10057800A61FBF2AC02AC12A381438080319C52A59
:10058800C62AD62A380A031DCA2ACB2AD32A0030FB
:10059800A7000030A6000030A5000030A400A61770
:1005A800A701DE2A0030A7000030A6000030A50011
:1005B8000030A40023088039A8002808B1062308C1
:1005C800A8002807A9002908B900A21FEC2AED2ACB
:1005D800EE2A391439080319F22AF32A032B390AA7
:1005E800031DF72AF82A002B0030A3000030A200D0
:1005F8000030A1000030A000A217A3010B2B00308F
:10060800A3000030A2000030A1000030A0002308A1
:10061800220421042004031D122B132B2C2B003041
:10062800A7000030A6000030A5000030A4008030EC
:10063800A6047F30A7043108A8002808A7042708C3
:10064800A3002608A2002508A1002408A0008B2CDE
:100658003808031D302B312B3A2B0030A300003013
:10066800A2000030A1000030A0008B2C3808A800A0
:10067800A9012908AB0039082802AA00031CAB030A
:100688002A087F3EB2002B080318013E003EB30043
:100698002708B0002608AF002508AE002408AD00E2
:1006A8000030A7000030A6000030A5000030A400EC
:1006B8000030B7000030B6000030B5000030B4009C
:1006C800B901B02B390803196A2B6B2B8B2B01301E
:1006D800A8000310AD0DAE0DAF0DB00DA80B6D2B1E
:1006E8000130A8000310A40DA50DA60DA70DA80B99
:1006F800762BB71F802B812B822B24140130A80066
:100708000310B40DB50DB60DB70DA80B842B230837
:100718003002031D992B22082F02031D992B210853
:100728002E02031D992B20082D02031C9C2B9D2BA8
:10073800AC2B37172008AD022108031C210FAE028D
:100748002208031C220FAF022308031C230FB00248
:100758000130A8002808B9071A303902031CB52B44
:10076800B62B662B30082F042E042D040319BD2B3D
:10077800BE2BDD2B3414DD2B0130A8000310A40D93
:10078800A50DA60DA70DA80BC22BB71FCC2BCD2BE3
:10079800CE2B24140130A8000310B40DB50DB60DEE
:1007A800B70DA80BD02BFF30B2070318B30AFF30E0
:1007B800B307A61FE02BE12BC02BB901B71FE52B10
:1007C800E62B022CFF303405A800FF303505A900C0
:1007D800FF303605AA007F303705AB002B082A0406
:1007E800290428040319F92BFA2BFD2BB901B90A9E
:1007F800022C241C002C012C022CFA2B390803197A
:10080800062C072C382C0130A407003003180130BF
:10081800A507003003180130A6070030031801307F
:10082800A707271C182C192C382C2408A8002508E1
:10083800A9002608AA002708AB000130AC002B0D40
:10084800AB0CAA0CA90CA80CAC0B232C2B08A700EA
:100858002A08A6002908A5002808A4000130B20724
:100868000318B30A0030B3073308803AFF0080301A
:100878007F02031D412CFF303202031C442C452CFF
:10088800532CFF3083120313B2000030B300003042
:10089800A7000030A6000030A5000030A400831295
:1008A80003133308803AFF0080307F02031D5E2C5B
:1008B800013032020318612C622C6F2C831203134F
:1008C800B201B3010030A7000030A6000030A50037
:1008D8000030A400B101831203133208A8002808CD
:1008E800B800381C782C792C7B2CA6177F2C7F30ED
:1008F800A8002808A6053808A8000310280CA90095
:100908002908A7003108A8002808A704232B0800F5
:10091800F80078080319912C922CA62CF31F952C1B
:10092800962CA62C7009FA007109FB007209FC00CC
:100938007309FD00FA0A0319FB0A0319FC0A0319D3
:10094800FD0AAE2C7308FD007208FC007108FB005C
:100958007008FA007308720471047004031DB52C42
:10096800B62CBF2C0030F3000030F2000030F1004C
:100978000030F000452D9630F4007408F900D12CB1
:100988000130F4007408F90701300310FD0CFC0C69
:10099800FB0CFA0CFF3E031DC92CFE307D05031D20
:1009A800D62CD72CC42CF32C0130F4007408F9078A
:1009B8000130FA07003003180130FB070030031834
:1009C8000130FC07003003180130FD070130031027
:1009D800FD0CFC0CFB0CFA0CFF3E031DEB2CFF304E
:1009E8007D05031DF82CF92CD82C052D0130F902B2
:1009F8000130F4000310FA0DFB0DFC0DFD0DF40B96
:100A0800FE2CFC1B082D092D0F2D0230790203182E
:100A18000E2D0F2DFA2C7918122D132D1B2DFF30AA
:100A2800FA05FF30FB057F30FC05FF30FD0503109C
:100A3800F90C7908F400F501F601F70118300310F4
:100A4800F40DF50DF60DF70DFF3E031D232D74086B
:100A5800FA047508FB047608FC047708FD04780896
:100A68000319372D382D3D2DF31F3B2D3C2D3D2DE2
:100A7800FD177D08F3007C08F2007B08F1007A0876
:100A8800F000080083160313CF004F08CD004D086F
:100A9800E00000300A128A158F250A128A114E309A
:100AA80083160313CE00EA30CD00CD0B592DCE0BA3
:100AB800592D000003300A128A15BD240A128A1122
:100AC8000D3083160313CE00FB30CD00CD0B6A2DFD
:100AD800CE0B6A2D03300A128A15BD240A128A1118
:100AE8000D3083160313CE00FB30CD00CD0B7A2DCD
:100AF800CE0B7A2D03300A128A15BD240A128A11E8
:100B08000D3083160313CE00FB30CD00CD0B8A2D9C
:100B1800CE0B8A2D02300A128A15BD240A128A11B8
:100B28000D3083160313CE00FB30CD00CD0B9A2D6C
:100B3800CE0B9A2D28300A128A15BD240A128A1162
:100B4800823083160313CE00DD30CD00CD0BAA2DE5
:100B5800CE0BAA2D0C300A128A15BD240A128A114E
:100B6800823083160313CE00DD30CD00CD0BBA2DB5
:100B7800CE0BBA2D01300A128A15BD240A128A1129
:100B8800823083160313CE00DD30CD00CD0BCA2D85
:100B9800CE0BCA2D06300A128A15BD240A128A11F4
:100BA800823083160313CE00DD30CD00CD0BDA2D55
:100BB800CE0BDA2D08000310831203133C0D3D0DF4
:100BC800BE003E08C4004408031DEB2DEC2DF52D96
:100BD8000030BD000030BC000030BB000030BA005F
:100BE8005A2E3A08BE003B08BF003C08C0003D082A
:100BF800C1001F300310C10CC00CBF0CBE0CFF3E5F
:100C0800031DFE2D3E08C2004208C300BC17FF307A
:100C1800BA05FF30BB05FF30BC050030BD05963076
:100C2800C402C41F182E192E332E4408803A973E4A
:100C380003181F2E202E212EEC2D01300310BD0C81
:100C4800BC0CBB0CBA0CFF3E031D222E0130BE00AB
:100C58003E08C407031D312E322E212E4A2E203085
:100C68004402031C382E392E452EEC2D0130BE00CF
:100C78000310BA0DBB0DBC0DBD0DBE0B3C2E0130D3
:100C8800C4024408031D492E4A2E3A2E430803196C
:100C98004E2E4F2E5A2EBA09BB09BC09BD09BA0AF5
:100CA8000319BB0A0319BC0A0319BD0A08008316F5
:100CB8000313D4004D08D2004C08D1004F08C500DA
:100CC8004E08C4005208C7005108C6000A128A1507
:100CD800BD260A128A11831603134508D200440858
:100CE800D1000130D0005008D40751085204031D28
:100CF8007E2E7F2E622E54088400831380010130DB
:100D0800D4024F08C5004E08C4004D08C7004C085F
:100D1800C6000A128A1581260A128A11831603133D
:100D28004408D0005008D3004F08C5004E08C4003E
:100D38004D08C7004C08C6000A128A15BD260A12BB
:100D48008A11831603134508CD004408CC000A30E5
:100D58005302031CB02EB12EB52E0730D000500818
:100D6800D3073030D0005008D3075308D0005408B8
:100D780084005008831380000130D4024C084D04CD
:100D8800031DC72EC82E852E0130D0005008D40769
:100D9800080083160313D101CC1FD32ED42EDB2ECB
:100DA800CB09CC09CB0A0319CC0AD101D10ACE1F31
:100DB800DE2EDF2EE82ECD09CE09CD0A0319CE0A84
:100DC8000130CF004F08D106D201D3014B084C04A3
:100DD8000319EF2EF02E272FD001D00AFE2E013056
:100DE8000310CB0DCC0DFF3E031DF42E0130CF00B8
:100DF8004F08D007CC1F012F022FF32E013003100C
:100E0800D20DD30DFF3E031D032F4C084E02031DC8
:100E18000F2F4B084D02031C122F132F1A2F4B08AC
:100E2800CD024C08031CCE03CE025214013003102D
:100E3800CC0CCB0CFF3E031D1B2F0130D002031D31
:100E4800262F272F022F510803192B2F2C2F312F34
:100E5800D209D309D20A0319D30A5308CC0052087D
:100E6800CB000800003083160313D0000030CF00F9
:100E78000030CE000030CD00470846044504440445
:100E88000319472F482F952FD101D10A582F013028
:100E9800CC000310C40DC50DC60DC70DCC0B4D2FCE
:100EA8000130CC004C08D107C71F5B2F5C2F4B2F9C
:100EB8000130CC000310CD0DCE0DCF0DD00DCC0BD5
:100EC8005E2F47084B02031D732F46084A02031D75
:100ED800732F45084902031D732F44084802031C59
:100EE800762F772F862F4408C8024508031C450F24
:100EF800C9024608031C460FCA024708031C470FCD
:100F0800CB024D1401300310C70CC60CC50CC40C21
:100F1800FF3E031D872F0130D102031D942F952F0B
:100F28005C2F5008C7004F08C6004E08C5004D0882
:100F3800C400080083160313CA01C71FA42FA52FD6
:100F4800AC2FC609C709C60A0319C70ACA01CA0AC3
:100F5800C51FAF2FB02FB52FC409C509C40A03197F
:100F6800C50A440845040319BA2FBB2FEA2FC90143
:100F7800C90AC92F01300310C40DC50DFF3E031D5A
:100F8800BF2F0130C8004808C907C51FCC2FCD2F77
:100F9800BE2F45084702031DD32F44084602031CF1
:100FA800D62FD72FDD2F4408C6024508031CC703D8
:100FB800C70201300310C50CC40CFF3E031DDE2F11
:100FC8000130C902031DE92FEA2FCD2F4A08031962
:100FD800EE2FEF2FF42FC609C709C60A0319C70A4F
:0A0FE8004708C5004608C4000800D1
:10100000FF1B0A2883137F1883170008840A03191B
:10101000FF0A080008308A000408840A82070034A6
:10102000533431343A34203420342034533432347D
:101030003A34203420342034533433343A340034B6
:1018720064008001840A04060319003404063A2C29
:101882000A128A1569240A128A158316031311147F
:1018920008000A128A1569240A128A15831603138C
:1018A20011150800083408344434693461340034B2
:1018B2004E346F34633400340A128A1569240A12D2
:1018C2008A15831603134408831203139300080036
:1018D2008316031314196E2C6F2C692C11081F39EF
:1018E200031D742C752C692C080001300A128A150C
:1018F200BD240A128A15193083160313CD00CD0BAD
:10190200802C832C080083160313C40083120C1E40
:101912008B2C8C2C872C83160313440883120313FD
:10192200990008007E088A007F0882000A128A1540
:1019320093240A128A158000840A04087D0603197A
:101942000034FF0A0319FE0A972C6430831603132E
:10195200CB000030CC005508CE005408CD000A124E
:101962008A11CD260A128A15831603134B08D60054
:101972005608D7005708080083160313CC00A201AB
:101982004C08F0390A128A15DB240A128A158316CA
:1019920003134C08CB0003300310CB0DFF3E031D95
:1019A200CD2C03104B0DF0390A128A15DB240A12D2
:1019B2008A15080083160313CA002208C9004908C1
:1019C200CA044A0804380A128A158F250A128A158F
:1019D200831603134A08FB390A128A158F250A1245
:1019E2008A15203083160313C900C90BF62C000098
:1019F200080083160313CC00A201A20A4C08F03996
:101A02000A128A15DB240A128A15831603134C085C
:101A1200CB0003300310CB0DFF3E031D0B2D031033
:101A22004B0DF0390A128A15DB240A128A150800B6
:101A32000A3083160313CB000030CC005508C700D0
:101A42005408C6006430C4000030C5000A128A116E
:101A52009E270A128A15831603134508CE004408EE
:101A6200CD000A128A11CD260A128A158316031393
:101A72004B08D6005608D7005708080083160313F0
:101A8200DB00D61F452D462D562D2D30D9005B0883
:101A920084005908831380000130D9005908DB07FC
:101AA200D509D609D50A0319D60A5608CD00550814
:101AB200CC005808CF005708CE005B080A128A11E2
:101AC2005B260A128A150800831603134C08C70006
:101AD2004B08C6006430C4000030C5000A128A11E7
:101AE2009E270A128A15831603134508CF0044085D
:101AF200CE000A30C4000030C5004F08C7004E08AF
:101B0200C6000A128A119E270A128A158316031327
:101B12004408CD004D08D000500808008316031376
:101B2200C8000A128A1541240A128A158316031361
:101B32006008C600C7014608C4004708C5000A126B
:101B42008A155D240A128A158316031348085F0456
:101B5200C600C7014608C4004708C5000A128A1514
:101B62005D240A128A150A128A154A240A128A1553
:101B7200080083160313C6004608C5004508C700BF
:101B8200C62D0130C5004508C707470884008313E6
:101B92000008031DCD2DCE2DC22DD72D0130C5003D
:101BA2004508C7070130C5004508C407440884003A
:101BB2000008C50047088400450880000008031D8E
:101BC200E32DE42DCF2D08000A128A1569240A128A
:101BD2008A158316031391150A128A1569240A12AB
:101BE2008A1583120313130883160313C600C70151
:101BF2004608C8004708C9000A128A1569240A1251
:101C02008A158316031344034504031D092E0A2E65
:101C12000C2E91120D2E911611164908C500480876
:101C2200C4000800283083120313940083160313A0
:101C320091015208D6005308D7005408D80055081D
:101C4200D90002300310D60DD70DD80DD90DFF3EA5
:101C5200031D232E5908C7005808C6005708C5009F
:101C62005608C4000030CB007A30CA001230C900D6
:101C72000030C8000A128A1136270A128A15831602
:101C820003134408FF3E93009401871507160800CA
:101C920083160313D0006D2E4D08BF3E0A128A151B
:101CA200BD240A128A15802E4D08933E0A128A1507
:101CB200BD240A128A15802E4D08D33E0A128A15B7
:101CC200BD240A128A15802E4D087F3E0A128A15FB
:101CD200BD240A128A15802E5008CE00CF014F086B
:101CE200003A0319752E652E4E08023A03194D2E3D
:101CF200013A0319552E073A03195D2E652E080085
:101D020083160313440845040319882E892EB82E1E
:101D1200C901C90A972E01300310C40DC50DFF3E3B
:101D2200031D8D2E0130C8004808C907C51F9A2E11
:101D32009B2E8C2E45084702031DA12E4408460205
:101D4200031CA42EA52EAB2E4408C6024508031C74
:101D5200C703C70201300310C50CC40CFF3E031DAC
:101D6200AC2E0130C902031DB72EB82E9B2E470898
:101D7200C5004608C400080083160313C901CA013E
:101D8200440845040319C62EC72EFE2ECB01CB0AEA
:101D9200D52E01300310C40DC50DFF3E031DCB2E01
:101DA2000130C8004808CB07C51FD82ED92ECA2E2D
:101DB20001300310C90DCA0DFF3E031DDA2E45087E
:101DC2004702031DE62E44084602031CE92EEA2EB2
:101DD200F12E4408C6024508031CC703C702491472
:101DE20001300310C50CC40CFF3E031DF22E01305E
:101DF200CB02031DFD2EFE2ED92E4A08C50049082E
:101E0200C40008008316031788018901831603138F
:101E1200850108308600803087008801890183129D
:101E2200031385018701880189010030831603139A
:101E3200D5000130D4008630D300A030D2000A127F
:101E42008A1513260A128A15831603130F178F1683
:101E52000F160F14103086008801850181131516A4
:101E620016168B150B100B178B17181218158316D5
:101E720003178715CF308316031399009A01831233
:101E820003139817181318168316031398160800CD
:101E920083160313D201D3017A2F83160313520838
:101EA2004D07D0004E08CF000318CF0AD21F5A2F79
:101EB200CF03831603134F08D10051088312031373
:101EC200FF008316031350088400831203130A12BF
:101ED2008A1500200A128A150A128A15FA240A1291
:101EE2008A15013083160313D2070318D30A003070
:101EF200D30752084D07D0004E08CF000318CF0A6F
:101F0200D21F842FCF03831603134F08D100510829
:101F120083120313FF0083160313500884008312F5
:101F220003130A128A1500200A128A15003A031DA9
:101F32009B2F9C2F4E2F08000B1CA02FA12FF42F9C
:101F42008B11061EA52FA62FA72F1014061AAA2F33
:101F5200AB2FF42F10100F08C500C6014508C600AC
:101F6200C50145080E04F0004608F100F201F11B1C
:101F7200F2037208F30001300A128A118C240A1249
:101F82008A15730883120313A7007208A60071084A
:101F9200A5007008A4004230A3006B30A2004730B5
:101FA200A100AE30A0000A128A11AF220A128A15CD
:101FB200831203132308BD002208BC002108BB00C2
:101FC2002008BA000A128A11DF250A128A15831222
:101FD20003133B0883160313A100831203133A0869
:101FE20083160313A0000B108B1583124908FF0000
:0E1FF20048088A00470E8300FE0E7E0E09008E
:04400E00D520FF3F7B
:00000001FF
