:020000040000FA
:100000000A128A11ED2FFF1B0D2883137F18831707
:100010000008840A0319FF0A080000308A00040857
:10002000840A82070034013400340A340034643412
:100030000034E834033410342734533431343A3440
:10004000203420342034533432343A3420342034B1
:100050002034533433343A34003425347534003486
:10068E00F000700883120313880008000A128A1102
:10069E0069230A128A1183160313111408000A1211
:1006AE008A1169230A128A11831603131115080081
:1006BE000A128A1169230A128A117008831203130F
:1006CE00930008008316031314196E2B6F2B692BDE
:1006DE0011081F39031D742B752B692B0800003070
:1006EE000A128A1183230A128A1101300A128A1100
:1006FE0083230A128A110800F300831203130910D0
:10070E0073080A128A1147230A128A1183120313DD
:10071E0089140B30F2006230F100F10B942BF20BC6
:10072E00942B00008312031389100800F200831229
:10073E000313091472080A128A1147230A128A1126
:10074E008312031389141A30F100F10BAC2B000045
:10075E008312031389101A30F100F10BB42B000031
:10076E000800F6007603031DBD2BBE2BCA2B7408A2
:10077E007F3EF5007508F70077080A128A11832369
:10078E000A128A11DB2B02307606031DCF2BD02BDB
:10079E00DB2B7408BF3EF5007508F70077080A12C8
:1007AE008A1183230A128A110800831603178801FF
:1007BE00890183160313860187018801890183123B
:1007CE00031386018701880189010030A3000130DF
:1007DE00A2008630A100A030A0000A128A112E2499
:1007EE000A128A11831603130F178F160F160F1482
:1007FE0008000A128A1169230A128A11831603133A
:10080E0091150A128A1169230A128A11831203138F
:10081E001308F200F3017208F4007308F5000A12CF
:10082E008A1169230A128A1170037104031D202C88
:10083E00212C252C831603139112282C83160313B7
:10084E00911611167508F1007408F0000800283092
:10085E00831203139400831603139101831203135F
:10086E002008A4002108A5002208A6002308A7003E
:10087E0002300310A40DA50DA60DA70DFF3E031DFE
:10088E00402C2708F3002608F2002508F100240862
:10089E00F0000030F7007A30F6001230F50000302C
:1008AE00F4000A128A1167250A128A117008FF3E97
:1008BE008316031393009401871507160800780812
:1008CE00790403196B2C6C2C9B2CFD01FD0A7A2CE0
:1008DE0001300310F80DF90DFF3E031D702C013091
:1008EE00FC007C08FD07F91F7D2C7E2C6F2C7908EF
:1008FE007B02031D842C78087A02031C872C882C1B
:10090E008E2C7808FA027908031CFB03FB020130D7
:10091E000310F90CF80CFF3E031D8F2C0130FD0265
:10092E00031D9A2C9B2C7E2C7B08F9007A08F8006C
:10093E00080000300A128A1147230A128A11343035
:10094E00F500F130F400F40BAA2CF50BAA2CAF2C09
:10095E003F300A128A1183230A128A111A30F500C7
:10096E00F830F400F40BB92CF50BB92C00003F3025
:10097E000A128A1183230A128A118530F400F40BAD
:10098E00C62C3F300A128A1183230A128A1138307C
:10099E000A128A1183230A128A110C300A128A1142
:1009AE0083230A128A1106300A128A1183230A122D
:1009BE008A110800F801F901062D78087307F60070
:1009CE007408F5000318F50AF81FEE2CF5037508E8
:1009DE00F700770883120313FF00760884000A12CB
:1009EE008A1103200A128A110A128A119D230A12F1
:1009FE008A110130F8070318F90A0030F907780850
:100A0E007307F6007408F5000318F50AF81F102D89
:100A1E00F5037508F700770883120313FF007608B5
:100A2E0084000A128A1103200A128A11003A031D49
:100A3E00212D222DE42C0800F501F6017008710419
:100A4E0003192A2D2B2D622DF701F70A392D0130AE
:100A5E000310F00DF10DFF3E031D2F2D0130F4009C
:100A6E007408F707F11F3C2D3D2D2E2D013003107C
:100A7E00F50DF60DFF3E031D3E2D71087302031D8D
:100A8E004A2D70087202031C4D2D4E2D552D7008E7
:100A9E00F2027108031CF303F30275140130031004
:100AAE00F10CF00CFF3E031D562D0130F702031D15
:100ABE00612D622D3D2D7608F1007508F0000800BD
:100ACE000030FC000030FB000030FA000030F9006E
:100ADE0073087204710470040319762D772DC42DDA
:100AEE00FD01FD0A872D0130F8000310F00DF10D08
:100AFE00F20DF30DF80B7C2D0130F8007808FD0790
:100B0E00F31F8A2D8B2D7A2D0130F8000310F90D6D
:100B1E00FA0DFB0DFC0DF80B8D2D73087702031DDE
:100B2E00A22D72087602031DA22D71087502031DF7
:100B3E00A22D70087402031CA52DA62DB52D7008CC
:100B4E00F4027108031C710FF5027208031C720F78
:100B5E00F6027308031C730FF702791401300310A9
:100B6E00F30CF20CF10CF00CFF3E031DB62D013010
:100B7E00FD02031DC32DC42D8B2D7C08F3007B08B5
:100B8E00F2007A08F1007908F000080083120313CE
:100B9E00AB002130A3002308A700832E25302C069E
:100BAE000319DA2DDB2DE72D2C08A3002B0884006A
:100BBE002308831380000130A3002308AB07832E84
:100BCE00A601EE2DC030A3002308A604082E013086
:100BDE00A007FF30200784000A128A110D200A1286
:100BEE008A11AC00A300A4012408003A0319002EB8
:100BFE00832E2308003A0319952E753A0319E92D11
:100C0E00832E2708840083130008A800840A000896
:100C1E00A9000230A3002308A707AC01AC0A2C08D8
:100C2E00A3002307013E84000A128A110D200A1226
:100C3E008A11A4000A128A110D200A128A11A50027
:100C4E0025082902031D2D2E240828020318302EF4
:100C5E00312E322E3C2E0130A3002308AC07053076
:100C6E002C06031D3B2E3C2E162E2C08A30023080B
:100C7E00AA007A2E0A30F8000030F9002A08A300E4
:100C8E002307013E84000A128A110D200A128A11CE
:100C9E00F0000A128A110D200A128A11F100290899
:100CAE00F3002808F2000A128A1123250A128A116B
:100CBE007108FB007008FA000A128A1166240A12E3
:100CCE008A117808303E83120313A4002408AC0066
:100CDE002C08A3002B088400230883138000013006
:100CEE00A3002308AB07FF30A3002308AA072A0A94
:100CFE00031D822E832E412E0130A007FF302007C8
:100D0E0084000A128A110D200A128A11A3002308E8
:100D1E00AC002C08031D942E952ED52D2B08840087
:100D2E008313800108000A128A11DC230A128A1129
:100D3E000A128A11A0240A128A110A128A11762323
:100D4E000A128A110A128A114D230A128A11803050
:100D5E00F0000030F1000A128A115F230A128A1184
:100D6E00F330F0000030F1000A128A115F230A12EC
:100D7E008A110A128A1156230A128A11033083121B
:100D8E000313AF000830AE007630AD00AD0BCD2EA4
:100D9E00AE0BCD2EAF0BCD2E00000A128A114D23B5
:100DAE000A128A118130F0000030F1000A128A1105
:100DBE005F230A128A110030F000F1000A128A1124
:100DCE0000240A128A11700883120313AD002D0835
:100DDE00B2000A128A1156230A128A1103308312A4
:100DEE000313AF000830AE007630AD00AD0BFD2E14
:100DFE00AE0BFD2EAF0BFD2E00000A128A114D23F5
:100E0E000A128A115130F0000030F1000A128A11D4
:100E1E005F230A128A110030F000F1000A128A11C3
:100E2E0000240A128A11700883120313AD002D08D4
:100E3E00B1000A128A1156230A128A110330831244
:100E4E000313AF000830AE007630AD00AD0B2D2F82
:100E5E00AE0B2D2FAF0B2D2F00000A128A114D2332
:100E6E000A128A116130F0000030F1000A128A1164
:100E7E005F230A128A110030F000F1000A128A1163
:100E8E0000240A128A11700883120313AD002D0874
:100E9E00B0000A128A1156230A128A1103308312E5
:100EAE000313AF000830AE007630AD00AD0B5D2FF2
:100EBE00AE0B5D2FAF0B5D2F0000F401F40A013075
:100ECE000A128A11B8230A128A110B30F3008030ED
:100EDE00F4000A128A11E1240A128A11F401F40AAA
:100EEE0002300A128A11B8230A128A111B30831299
:100EFE000313AD002D08A0003108AE00AF012E087F
:100F0E00A1002F08A20033300A128A11CD250A1231
:100F1E008A113330F3000030F4000A128A11E124F2
:100F2E000A128A11083083120313AD002D08F40043
:100F3E0002300A128A11B8230A128A111B30831248
:100F4E000313AD002D08A0003008AE00AF012E082F
:100F5E00A1002F08A20033300A128A11CD250A12E1
:100F6E008A113330F3000030F4000A128A11E124A2
:100F7E000A128A110E3083120313AD002D08F400ED
:100F8E0002300A128A11B8230A128A111B308312F8
:100F9E000313AD002D08A0003208AE00AF012E08DD
:100FAE00A1002F08A20033300A128A11CD250A1291
:100FBE008A113330F3000030F4000A128A11E12452
:100FCE000A128A11A92E0A128A11002883120313FB
:100FDE00B001B101B201B301B401B501B601B7015F
:100FEE00B801B901BA01BB01BC0183010A128A1111
:020FFE009A2E29
:04400E00D520FF3F7B
:00000001FF
