:020000040000FA
:060000000A128A110C280F
:10000800FE00030EF1000A08F2000A168A15722C87
:100018000A128A110F2883120313EF0183160313A0
:10002800CB01CC01CD01CE01CF01D001D101D2014C
:10003800D301D40183010A168A15CA2E8316031325
:100048004308F6004208F5004108F4004008F300B0
:100058000030FA000030F9000030F8000030F700F6
:100068000A168A157B250A128A1103183C283D288E
:10007800E52883160313430883120313D800831655
:100088000313420883120313D7008316031341088E
:1000980083120313D6008316031340088312031335
:1000A800D5000A128A1502200A128A118312031334
:1000B8005808570456045504031D63286428E52886
:1000C800831603133B08803AFF0080307F02031D2C
:1000D8006F2802303A02031C72287328E528831619
:1000E80003133908F6003808F5003708F400360815
:1000F800F3004030FA008930F9007030F8005F30C2
:10010800F7000A168A11D3200A128A1103188D28BB
:100118008E289728F73083160313BA070318BB0AEB
:10012800FF30BB079F28F83083160313BA0703185C
:10013800BB0AFF30BB073A080A128A159D240A1227
:100148008A1183120313450883160313B900831217
:100158000313440883160313B800831203134308D8
:1001680083160313B700831203134208831603137D
:10017800B6004308F6004208F5004108F4004008BC
:10018800F3003908FA003808F9003708F80036088B
:10019800F7000A128A157E200A128A117608831639
:1001A8000313B5007508B4007408B3007308B200EF
:1001B8000030C3000030C2000030C1000030C00071
:1001C8004B2983160313430883120313D80083169D
:1001D8000313420883120313D7008316031341083D
:1001E80083120313D60083160313400883120313E4
:1001F800D5000A128A1502200A128A1183120313E3
:10020800580883160313B50083120313570883167F
:100218000313B40083120313560883160313B300A1
:1002280083120313550883160313B2003508F6002A
:100238003408F5003308F4003208F30000300A16D9
:100248008A1177210A128A11760883160313A300EC
:100258007508A2007408A1007308A0004308A7004D
:100268004208A6004108A5004008A4000A168A15FD
:10027800CB250A128A11831603132308C300220808
:10028800C2002108C1002008C000BA01BB01C70193
:10029800C70A4708A80001300310A80DFF3E031D38
:1002A80050290310280D693E84000A168A1100207F
:1002B8000A128A11A9000A168A1100200A128A1144
:1002C800AA000A168A1100200A128A11AB000A161F
:1002D8008A1100200A128A11AC002C083502031D6D
:1002E8007F292B083402031D7F292A083302031DA6
:1002F8007F292908320203188229832984298E2913
:100308000130A8002808C7070A304706031D8D29B1
:100318008E294D2947084407A80045080318450AAF
:10032800A9003A082807AA003B0803183B0A29072E
:10033800AB002A08BE022B08031CBF03BF024408F7
:1003480045040319A829A929AF29FF30BE070318B6
:10035800BF0AFF30BF0703303C05A80000303D0549
:10036800A900280829040319BA29BB29C129FF3083
:10037800BE070318BF0AFF30BF073C1DC429C529A3
:10038800112A03303C05A80000303D05A9002808C3
:1003980029040319D029D129F0292D30A8004608AD
:1003A80084002808831380000130A8002808C607A5
:1003B800F029303083160313A80046088400280863
:1003C800831380000130A8002808C607FF30BE0745
:1003D8000318BF0AFF30BF073F08803AFF0080308C
:1003E8007F02031DF92901303E020318FC29FD296B
:1003F800DD299E2A203083160313A80046088400AE
:100408002808831380000130A8002808C607FF3099
:10041800BE070318BF0AFF30BF073F08803AFF0036
:1004280080307F02031D1A2A01303E0203181D2A5C
:100438001E2AFE290330831603133C05A80000304A
:100448003D05A9002808290403192B2A2C2A9E2ACD
:100458002D30A80046088400280883138000013046
:10046800A8002808C6079E2A4708A80001300310DC
:10047800A80DFF3E031D3B2A0310280D693E84008A
:100488000A168A1100200A128A11F3000A168A1124
:1004980000200A128A11F4000A168A1100200A1292
:1004A8008A11F5000A168A1100200A128A11F6002C
:1004B8003508FA003408F9003308F8003208F70064
:1004C8000A168A152F270A128A117608831603132B
:1004D800B9007508B8007408B7007308B600003092
:1004E800F6000030F5000030F4000A30F300390857
:1004F800FA003808F9003708F8003608F7000A1635
:100508008A151B260A128A11760883160313B90066
:100518007508B8007408B7007308B6003608303E8E
:10052800A800460884002808831380000130A8002A
:100538002808C607013083160313C702470A031D9C
:10054800A62AA72A382ABB2A303083160313A80004
:10055800460884002808831380000130A800280872
:10056800C607FF30BA070318BB0AFF30BB073B08B2
:10057800803AFF0080307F02031DC42A01303A020E
:100588000318C72AC82AA82A831603134508803ADD
:10059800FF0080307F02031DD32A09304402031C68
:1005A800D62AD72ADE2A083083160313A80028087B
:1005B800C700E42A831603134408A8002808C700C4
:1005C8004708A800A9012808C4022908031CC50374
:1005D800C50247080319F12AF22AFD2A2E30A8007D
:1005E800460884002808831380000130A8002808E2
:1005F800C60747080A128A159D240A128A1183120F
:100608000313450883160313B00083120313440829
:1006180083160313AF0083120313430883160313CF
:10062800AE0083120313420883160313AD0030088B
:1006380083120313AF00831603132F0883120313C7
:10064800AE00831603132E0883120313AD0083161E
:1006580003132D0883120313AC00831603134308F6
:1006680083120313AB008316031342088312031388
:10067800AA0083160313410883120313A9008316E3
:100688000313400883120313A8000A128A153C2199
:100698000A128A11831203132B08D8002A08D700DC
:1006A8002908D6002808D5000A128A1502200A123D
:1006B8008A1183120313580883160313B500831293
:1006C8000313570883160313B40083120313560841
:1006D80083160313B30083120313550883160313F9
:1006E800B200172C4708A80001300310A80DFF3EE0
:1006F800031D792B0310280D693E84000A168A1100
:1007080000200A128A11F3000A168A1100200A1220
:100718008A11F4000A168A1100200A128A11F500BB
:100728000A168A1100200A128A11F6003508FA0002
:100738003408F9003308F8003208F7000A168A1559
:100748002F270A128A11760883160313B900750831
:10075800B8007408B7007308B6000030F60000301F
:10076800F5000030F4000A30F3003908FA003808C0
:10077800F9003708F8003608F7000A168A151B260C
:100788000A128A11760883160313B9007508B8008F
:100798007408B7007308B6003608303EA80046084B
:1007A80084002808831380000130A8002808C607A1
:1007B8004708A80001300310A80DFF3E031DDF2BDA
:1007C8000310280D693E84000A168A1100200A12B7
:1007D8008A11F3000A168A1100200A128A11F400FD
:1007E8000A168A1100200A128A11F5000A168A11BF
:1007F80000200A128A11F6003508FA003408F900B8
:100808003308F8003208F7000A168A151B260A1260
:100818008A11760883160313B5007508B4007408A6
:10082800B3007308B2000130C702470A031D1D2C2C
:100838001E2C762B302C3030A8004608840028085F
:10084800831380000130A8002808C607FF30C407BA
:100858000318C50AFF30C50744084504031D352C95
:10086800362C1F2C352D44084504031D3C2C3D2CEB
:100878004B2C3508340433043204031D442C452C16
:100888004B2C0130C4070318C50A0030C5074508BA
:10089800803A803C031D522C440847020318552C0B
:1008A800562C5D2C831603134408A8002808C7009B
:1008B800752C831603134508803AA8008030280257
:1008C800031D682C4708440203186B2C6C2C752CEC
:1008D800831603134708A800A9012808C40029089B
:1008E800C500831603133E083F0403197C2C7D2C96
:1008F8008F2C03303C05A80000303D05A9002808CE
:1009080029040319882C892C8F2CFF30BE07031863
:10091800BF0AFF30BF073D1F922C932CAE2C450811
:10092800803AA8003F08803A2802031D9D2C3E0803
:1009380044020318A02CA12CAA2C831603134408E4
:10094800BE024508031CBF03BF02AE2C8316031367
:10095800BE01BF013F08803A803C031DB52C3E080C
:1009680047020318B82CB92CC52C83160313470863
:10097800A800A9012808BE022908031CBF03BF025A
:10098800C92C83160313BE01BF013C1DCC2CCD2CF2
:10099800022D03303C05A80000303D05A9002808B9
:1009A80029040319D82CD92CE42C2D30A80046088A
:1009B80084002808831380000130A8002808C6078F
:1009C8003E083F040319E92CEA2C352D3030A800E5
:1009D800460884002808831380000130A8002808EE
:1009E800C607FF30BE070318BF0AFF30BF073E081F
:1009F8003F04031D002D012DEA2C352D3E083F0430
:100A08000319072D082D1F2D2030A8004608840043
:100A18002808831380000130A8002808C607FF3083
:100A2800BE070318BF0AFF30BF073E083F04031D77
:100A38001E2D1F2D082D03303C05A80000303D0554
:100A4800A9002808290403192A2D2B2D352D2D300E
:100A5800A800460884002808831380000A168A1113
:100A6800142D013083120313EA07FF306A0784004C
:100A78000A168A1100200A128A1183160313A80085
:100A88002808C7004708031D4A2D4D2D0A168A114C
:100A9800072D46088400831380010800831203137E
:100AA80059088039DE005E08E6005908DE005E0756
:100AB800DF005F08E800D81F622D632D642D6814DD
:100AC80068080319682D692D792D680A031D6D2D95
:100AD8006E2D762D0030D9000030D8000030D700B8
:100AE8000030D600D817D901812D0030D900003048
:100AF800D8000030D7000030D6005D088039DE000D
:100B08005E08E7006708660603198B2D8C2D8D2D6E
:100B180066175D08DE005E07DF005F08E700DC1F80
:100B2800962D972D982D6714670803199C2D9D2DD8
:100B3800AD2D670A031DA12DA22DAA2D0030DD00C1
:100B48000030DC000030DB000030DA00DC17DD01AB
:100B5800B52D0030DD000030DC000030DB00003057
:100B6800DA00680867020318BA2DBB2DFF2D661F2F
:100B7800BE2DBF2DC32D8030DE005E08E606680856
:100B8800DE005E08E9006708DE005E08E800690824
:100B9800DE005E08E7005608DE005E08E9005A0835
:100BA800DE005E08D6006908DE005E08DA00570835
:100BB800DE005E08E9005B08DE005E08D700690811
:100BC800DE005E08DB005808DE005E08E9005C080D
:100BD800DE005E08D8006908DE005E08DC005908FF
:100BE800DE005E08E9005D08DE005E08D9006908DD
:100BF800DE005E08DD00E9016708DE00DF015F084E
:100C0800E10068085E02E000031CE1036108803A25
:100C1800FF0080307F02031D132E1A306002031C70
:100C2800162E172E542E83120313590858045704EE
:100C38005604031D202E222E0130232E0030DE0004
:100C48005E08E9000030D9000030D8000030D70035
:100C58000030D6006708DE005E08E8005C2E691CDC
:100C6800362E372E402E6908DE0003105E0C013840
:100C7800DF005F08E900422E0310E90C561C452EE0
:100C8800462E472EE9170130DE00590DD90CD80C35
:100C9800D70CD60CDE0B492E0130DE005E08E807C3
:100CA8008312031367086802031C5B2E5C2E332E25
:100CB800661B5F2E602EAB2E6808031D642E652E02
:100CC8006E2E0030D9000030D8000030D700003038
:100CD800D600D92F5A08D6075B0803110318013E1E
:100CE8000319772ED7075C0803110318013E03196F
:100CF8007E2ED8075D0803110318013E0319852EBF
:100D0800D907591C882E892E5F2F691C8C2E8D2E91
:100D1800962E6908DE0003105E0C0138DF005F08BC
:100D2800E900982E0310E90C561C9B2E9C2E9D2E34
:100D3800E9170130DE00590DD90CD80CD70CD60CA8
:100D4800DE0B9F2E0130DE005E08E8075F2F590892
:100D5800803AFF005D08803A7F02031DBD2E5C08C3
:100D68005802031DBD2E5B085702031DBD2E5A08ED
:100D780056020318C02EC12E192FFF30DE00FF3097
:100D8800DF00FF30E000FF30E1005A08E2005B08B6
:100D9800E3005C08E4005D08E5005608E202570835
:100DA800031C570FD82ED92EE3025808031C580FDE
:100DB800DE2EDF2EE4025908031C590FE42EE52E1F
:100DC800E5026208DE0763080318630FEC2EED2EB8
:100DD800DF0764080318640FF22EF32EE007650896
:100DE8000318650AE1076108D9006008D8005F08A0
:100DF800D7005E08D6008030DE005E08E606E90906
:100E0800E90A6908031D092F0A2F272F0130D60781
:100E1800003003180130D707003003180130D80715
:100E2800003003180130D907272F5A08D6025B086B
:100E3800031C5B0FD7025C08031C5C0FD8025D081B
:100E4800031C5D0FD9025908580457045604031DA2
:100E58002E2F2F2F5B2F6908031D332F342F5B2F65
:100E68000030D9000030D8000030D7000030D6005C
:100E7800D92F0130DE000310D60DD70DD80DD90DAE
:100E8800DE0B3F2FE91F492F4A2F4B2F5614691CA1
:100E98004E2F4F2F522F0314E90D542F0310E90D35
:100EA80068080319582F592F5B2F0130E802D81F03
:100EB8005E2F5F2F3D2FE701E91F632F642F722FED
:100EC80069087F390319692F6A2F6D2FE701E70A2F
:100ED800722F561C702F712F722F6A2F67080319F3
:100EE800762F772FAB2F0130D6070030031801304B
:100EF800D707003003180130D80700300318013035
:100F0800D907591C882F892FAB2F5608DE005708A0
:100F1800DF005808E0005908E1000130E200610DE7
:100F2800E10CE00CDF0CDE0CE20B932F6108D9001A
:100F38006008D8005F08D7005E08D600680A031961
:100F4800A62FA72FAB2F0130DE005E08E807680A3E
:100F58000319AF2FB02FB52F6808031DB42FB52F75
:100F6800C32F0030D9000030D8000030D70000303F
:100F7800D6006808031DC12FC22FC32FE601681CC5
:100F8800C62FC72FC92FD817CD2F7F30DE005E0898
:100F9800D8056808DE0003105E0CDF005F08D90082
:100FA800E61FD72FD82FD92FD9170800F701F80136
:100FB800731CDF2FE02FE62F7508F7070318F80AD0
:100FC8007608F80701300310F50DF60DFF3E031DF6
:100FD800E72F01300310F40CF30CFF3E031DEE2F36
:100FE80073087404031DF92FFA2FDC2F7808F40016
:060FF8007708F300080079
:10100400031083120313570D580DD9005908DF003C
:101014005F08031D0E280F2818280030D800003060
:10102400D7000030D6000030D5007D285508D900FF
:101034005608DA005708DB005808DC001F3003109C
:10104400DC0CDB0CDA0CD90CFF3E031D21285908FB
:10105400DD005D08DE00D717FF30D505FF30D6056B
:10106400FF30D7050030D8059630DF02DF1F3B285C
:101074003C2856285F08803A973E031842284328A4
:1010840044280F2801300310D80CD70CD60CD50CEB
:10109400FF3E031D45280130D9005908DF07031D11
:1010A4005428552844286D2820305F02031C5B28EF
:1010B4005C2868280F280130D9000310D50DD60DFF
:1010C400D70DD80DD90B5F280130DF025F08031D4F
:1010D4006C286D285D285E080319712872287D2804
:1010E400D509D609D709D809D50A0319D60A031987
:1010F400D70A0319D80A08000310750D760D831258
:101104000313A0002008A6002608031D8A288B28A4
:1011140094280030F6000030F5000030F400003070
:10112400F3003B290310790D7A0DA0002008A500D7
:101134002508031D9E289F28A0288B28F517FF301B
:10114400F305FF30F405FF30F5050030F605F91717
:10115400FF30F705FF30F805FF30F9050030FA05D8
:101164000030A4000030A3000030A2000030A10031
:101174007F30A602A0302507A0002008A602203058
:10118400A0002008A5000130A0000310A10DA20DAD
:10119400A30DA40DA00BC7287A087602031DDC2832
:1011A40079087502031DDC2878087402031DDC2805
:1011B40077087302031CDF28E028EF287708F3027E
:1011C4007808031C780FF4027908031C790FF502E0
:1011D4007A08031C7A0FF60221140130A0000310D0
:1011E400F30DF40DF50DF60DA00BF1280130A50259
:1011F400031DFD28FE28C528A61F012902291C2934
:101204002608803A9F3E0318082909290A298B28B1
:1012140001300310A40CA30CA20CA10CFF3E031D6F
:101224000B290130A0002008A607031D1A291B2939
:101234000A29332920302602031C212922292E2998
:101244008B280130A0000310A10DA20DA30DA40D45
:10125400A00B25290130A6022608031D32293329B3
:1012640023292408F6002308F5002208F4002108A5
:10127400F3000800831203132B088039B0003008F0
:10128400B5002B08B0003007B1003108BB00AA1F1D
:101294004C294D294E293B143B0803195229532943
:1012A40062293B0A031D5729582960290030AB00E5
:1012B4000030AA000030A9000030A800AA176A294B
:1012C4000030AB000030AA000030A9000030A800B4
:1012D4002F088039B0003008B5062F08B000300759
:1012E400B1003108BA00AE1F782979297A293A1455
:1012F4003A0803197E297F298E293A0A031D832976
:1013040084298C290030AF000030AE000030AD00DD
:101314000030AC00AE1796290030AF000030AE00AC
:101324000030AD000030AC003A0803199A299B291B
:10133400A0293B08031D9F29A029A9290030AB003F
:101344000030AA000030A9000030A8009C2C280816
:10135400B0003008F3002E080A168A11AA200A12D7
:101364008A15740883120313C1007308C00040086F
:10137400B000B101B201B3013308B9003208B800BA
:101384003108B7003008B6004108B000B101B2011D
:10139400B3013308BF003208BE003108BD00300875
:1013A400BC002908B0003008F3002D080A168A1181
:1013B400AA200A128A15740883120313C100730841
:1013C400C0004008B000B101B201B3013008B60753
:1013D400310803110318013E0319F129B707320834
:1013E40003110318013E0319F829B8073308031140
:1013F4000318013E0319FF29B9074108B000B101E0
:10140400B201B3013008BC07310803110318013ECF
:1014140003190D2ABD07320803110318013E0319ED
:10142400142ABE07330803110318013E03191B2AAB
:10143400BF072A08B0003008F3002C080A168A11E6
:10144400AA200A128A15740883120313C1007308B0
:10145400C0004008B000B101B201B3013008B607C2
:10146400310803110318013E0319392AB70732085A
:1014740003110318013E0319402AB8073308031166
:101484000318013E0319472AB9074108B000B10106
:10149400B201B3013008BC07310803110318013E3F
:1014A4000319552ABD07320803110318013E031915
:1014B4005C2ABE07330803110318013E0319632A8B
:1014C400BF070830B0000310B60DB70DB80DB90D45
:1014D400B00B652A2908B0003008F3002C080A165E
:1014E4008A11AA200A128A15740883120313C100F0
:1014F4007308C0004008B0004108B100B201B30154
:101504003008B607310803110318013E03198B2A6A
:10151400B707320803110318013E0319922AB807CA
:10152400330803110318013E0319992AB90728083F
:10153400B0003008F3002D080A168A11AA200A12F6
:101544008A15740883120313C1007308C00040088D
:10155400B0004108B100B201B3013008B607310848
:1015640003110318013E0319B82AB70732080311FF
:101574000318013E0319BF2AB807330803110318DF
:10158400013E0319C62AB9070830B0000310B60D8E
:10159400B70DB80DB90DB00BC82A2808B000300833
:1015A400F3002C080A168A11AA200A128A15740854
:1015B40083120313C1007308C0004008B00041083F
:1015C400B100B201B3013008B607310803110318A2
:1015D400013E0319EE2AB707320803110318013E2E
:1015E4000319F52AB807330803110318013E031938
:1015F400FC2AB9072908B0003008F3002E080A169F
:101604008A11AA200A128A15740883120313C100CE
:101614007308C0004008B0004108B100B201B30132
:101624003008BC07310803110318013E03191B2BB2
:10163400BD07320803110318013E0319222BBE070C
:10164400330803110318013E0319292BBF072A0885
:10165400B0003008F3002D080A168A11AA200A12D5
:101664008A15740883120313C1007308C00040086C
:10167400B0004108B100B201B3013008BC07310821
:1016840003110318013E0319482BBD073208031147
:101694000318013E03194F2BBE0733080311031827
:1016A400013E0319562BBF072A08B0003008F30087
:1016B4002E080A168A11AA200A128A15740883129F
:1016C4000313C1007308C0004008B0004108B10012
:1016D400B201B30108300310B00DB10DB20DB30D5A
:1016E400FF3E031D6D2B3008BC073108031103189E
:1016F400013E03197E2BBD07320803110318013E76
:101704000319852BBE07330803110318013E03197F
:101714008C2BBF073608B0003708B1003808B20078
:101724003908B30018300310B30CB20CB10CB00C70
:10173400FF3E031D952B3008BC0731080311031825
:10174400013E0319A62BBD07320803110318013EFD
:101754000319AD2BBE07330803110318013E031907
:10176400B42BBF070830B0000310B60DB70DB80D89
:10177400B90DB00BB62B3B083A07B000B101B10D5F
:101784003008823EC00031080318013EFF3EC1000C
:10179400E82B0130B0000310BC0DBD0DBE0DBF0D14
:1017A400B00BCD2BB91FD72BD82BD92B3C14013020
:1017B400B0000310B60DB70DB80DB90DB00BDB2B8F
:1017C400FF30C0070318C10AFF30C107BE1FEB2B4F
:1017D400EC2BCB2BBA01B91FF02BF12B0D2CFF30C6
:1017E4003605B000FF303705B100FF303805B200D0
:1017F4007F303905B300330832043104300403194F
:10180400042C052C082CBA01BA0A0D2C3C1C0B2CF8
:101814000C2C0D2C052C3A080319112C122C432CDA
:101824000130BC07003003180130BD070030031835
:101834000130BE07003003180130BF073F1C232CC2
:10184400242C432C3C08B0003D08B1003E08B200F3
:101854003F08B3000130B400330DB30CB20CB10C2B
:10186400B00CB40B2E2C3308BF003208BE00310874
:10187400BD003008BC000130C0070318C10A0030A5
:10188400C1074108803AFF0080307F02031D4C2CC1
:10189400FF304002031C4F2C502C5B2C7F308312F2
:1018A4000313BF008030BE000030BD000030BC0018
:1018B400902C831203134108803AFF0080307F028A
:1018C400031D662C013040020318692C6A2C762C07
:1018D400003083120313BF000030BE000030BD008F
:1018E4000030BC00B501902C831203134008B000F3
:1018F4003008BB00FF30BC05FF30BD057F30BE059E
:101904000030BF053B1C872C882C892CBE173B0854
:10191400B0000310300CB1003108BF003508B0002E
:101924003008BF043F08AB003E08AA003D08A900E8
:101934003C08A800080083120313D400D41FA32C6E
:10194400A42C532ED409D40A5408803A123E031C02
:10195400AC2CAD2C972D0A30A0000030A100540807
:10196400F500F601F51BF6036430F3000030F400D3
:101974000A168A1571260A128A157408831203132B
:10198400A3007308A2000A168A1597270A128A155B
:10199400831203132008C60001300310C60DFF3E56
:1019A400031DCF2C0310460D593E84000A168A11DC
:1019B40000200A128A15C7000A168A1100200A128A
:1019C4008A15C8000A168A1100200A128A15C9004D
:1019D4000A168A1100200A128A15CA004A08AB00A6
:1019E4004908AA004808A9004708A8006430A000D4
:1019F4000030A1005408A200A301A21BA3030A16ED
:101A04008A1597270A128A15831203132008CB001C
:101A140001300310CB0DFF3E031D0B2D03104B0DA6
:101A24007D3E84000A168A1100200A128A15CC0011
:101A34000A168A1100200A128A15CD000A168A1184
:101A440000200A128A15CE000A168A1100200A12F2
:101A54008A15CF004F08AF004E08AE004D08AD0008
:101A64004C08AC000A128A153C210A128A1583120A
:101A740003132B08D3002A08D2002908D100280810
:101A8400D0000A30F3000030F4005408F500F601E9
:101A9400F51BF6030A168A1571260A128A157308AD
:101AA40083120313C60001300310C60DFF3E031D4D
:101AB400562D0310460D353E84000A168A11002067
:101AC4000A128A15C7000A168A1100200A128A15FA
:101AD400C8000A168A1100200A128A15C9000A16BB
:101AE4008A1100200A128A15CA004A08AB00490864
:101AF400AA004808A9004708A8005308AF005208E4
:101B0400AE005108AD005008AC000A128A153C2101
:101B14000A128A15831203132B08C5002A08C4006D
:101B24002908C3002808C200FF2F5408803A753ED4
:101B3400031C9D2D9E2D262E0A30F3000030F40048
:101B44005408F500F601F51BF6030A168A157126EA
:101B54000A128A15730883120313C6000130031096
:101B6400C60DFF3E031DB12D0310460D353E840006
:101B74000A168A1100200A128A15C7000A168A1149
:101B840000200A128A15C8000A168A1100200A12B7
:101B94008A15C9000A168A1100200A128A15CA0079
:101BA4004A08AB004908AA004808A9004708A80049
:101BB4000A30A0000030A1005408A200A301A21B17
:101BC400A3030A168A1597270A128A158312031388
:101BD4002008CB0001300310CB0DFF3E031DED2D7B
:101BE40003104B0D593E84000A168A1100200A1274
:101BF4008A15CC000A168A1100200A128A15CD0013
:101C04000A168A1100200A128A15CE000A168A11B1
:101C140000200A128A15CF004F08AF004E08AE000C
:101C24004D08AD004C08AC000A128A153C210A127A
:101C34008A15831203132B08C5002A08C400290837
:101C4400C3002808C200FF2F5408C6000130031047
:101C5400C60DFF3E031D292E0310460D353E84009C
:101C64000A168A1100200A128A15C7000A168A1158
:101C740000200A128A15C8000A168A1100200A12C6
:101C84008A15C9000A168A1100200A128A15CA0088
:101C94004A08C5004908C4004808C3004708C200F0
:101CA400FF2F5408803A123E031C592E5A2E442FFB
:101CB4000A30A0000030A1005408F500F601F51B1D
:101CC400F6036430F3000030F4000A168A15712616
:101CD4000A128A15740883120313A3007308A2005E
:101CE4000A168A1597270A128A15831203132008E5
:101CF400C60001300310C60DFF3E031D7C2E0310E9
:101D0400460D253E84000A168A1100200A128A15FF
:101D1400C7000A168A1100200A128A15C8000A167A
:101D24008A1100200A128A15C9000A168A11002095
:101D34000A128A15CA004A08AB004908AA004808D2
:101D4400A9004708A8006430A0000030A10054088E
:101D5400A200A301A21BA3030A168A1597270A123D
:101D64008A15831203132008CB0001300310CB0D16
:101D7400FF3E031DB82E03104B0D493E84000A1686
:101D84008A1100200A128A15CC000A168A11002032
:101D94000A128A15CD000A168A1100200A128A1521
:101DA400CE000A168A1100200A128A15CF004F08A5
:101DB400AF004E08AE004D08AD004C08AC000A124E
:101DC4008A153C210A128A15831203132B08D300A7
:101DD4002A08D2002908D1002808D0000A30F300CC
:101DE4000030F4005408F500F601F51BF6030A165A
:101DF4008A1571260A128A15730883120313C60002
:101E040001300310C60DFF3E031D032F0310460DC2
:101E1400013E84000A168A1100200A128A15C7009E
:101E24000A168A1100200A128A15C8000A168A1195
:101E340000200A128A15C9000A168A1100200A1203
:101E44008A15CA004A08AB004908AA004808A90034
:101E54004708A8005308AF005208AE005108AD006F
:101E64005008AC000A128A153C210A128A15831202
:101E740003132B08C5002A08C4002908C300280836
:101E8400C200FF2F5408803A753E031C4A2F4B2F83
:101E9400D32F0A30F3000030F4005408F500F601A3
:101EA400F51BF6030A168A1571260A128A15730899
:101EB40083120313C60001300310C60DFF3E031D39
:101EC4005E2F0310460D013E84000A168A1100207D
:101ED4000A128A15C7000A168A1100200A128A15E6
:101EE400C8000A168A1100200A128A15C9000A16A7
:101EF4008A1100200A128A15CA004A08AB00490850
:101F0400AA004808A9004708A8000A30A000003029
:101F1400A1005408A200A301A21BA3030A168A1558
:101F240097270A128A15831203132008CB00013065
:101F34000310CB0DFF3E031D9A2F03104B0D253EBE
:101F440084000A168A1100200A128A15CC000A1687
:101F54008A1100200A128A15CD000A168A1100205F
:101F64000A128A15CE000A168A1100200A128A154E
:101F7400CF004F08AF004E08AE004D08AD004C082E
:101F8400AC000A128A153C210A128A158312031323
:101F94002B08C5002A08C4002908C3002808C20069
:101FA400FF2F5408C60001300310C60DFF3E031D69
:101FB400D62F0310460D013E84000A168A11002014
:101FC4000A128A15C7000A168A1100200A128A15F5
:101FD400C8000A168A1100200A128A15C9000A16B6
:101FE4008A1100200A128A15CA004A08C500490845
:101FF400C4004808C3004708C200080010308A0023
:102004000408840A820700340034003480343F34E6
:10201400003400342034413400340034C8344234B1
:10202400003400347A344434003440341C344634AC
:1020340000345034C33447340034243474344934C1
:102044008034963418344B342034BC34BE344C348D
:1020540028346B346E344E34F9340234153450342D
:10206400EC347834AD346034CA34F23449347134E5
:102074000034003480343F34CD34CC34CC343D345B
:102084000A34D73423343C346F34123483343A342E
:102094001734B734D1343834AC34C53427343734F6
:1020A400BD343734863435349534BF34D634333480
:1020B4007734CC342B3432345F3470348934303454
:1020C400FF34E634DB342E340834E5343C341E3437
:1020D40060344234A2340D3401340034003400340A
:1020E4000A340034003400346434003400340034DE
:1020F400E83403340034003410342734003400341A
:10210400A034863401340034403442340F34003473
:1021140080349634983400340034E134F534053492
:102124000034CA349A343B34253430342E343034B9
:0421340066340034D9
:10213E0076087504740473040319A628A728A92821
:10214E008030F606080083120313A400A001A1013B
:10215E007308F500F6017508A2007608A300241C8A
:10216E00B928BA28C0282208A0070318A10A2308F4
:10217E00A10701300310A20DA30DFF3E031DC128C0
:10218E000310A40C2408031DCD28CE28B628210840
:10219E00F4002008F30008000030730583120313C7
:1021AE00A00000307405A10080307505A2007F30BC
:1021BE007605A3002308220421042004031DE82829
:1021CE00E928F1280030F6000030F5000030F40068
:1021DE000030F30000307705A00000307805A10034
:1021EE0080307905A2007F307A05A30023082204EF
:1021FE0021042004031D042905290D290030FA00AD
:10220E000030F9000030F8000030F700F61F1029FA
:10221E00112935290030A0000030A1000030A200A5
:10222E008030A3007308A0027408031C740F2029C9
:10223E002129A1027508031C750F26292729A20240
:10224E007608031C760F2C292D29A3022308F600ED
:10225E002208F5002108F4002008F300FA1F38299F
:10226E0039295D290030A0000030A1000030A20005
:10227E008030A3007708A0027808031C780F482945
:10228E004929A1027908031C790F4E294F29A20270
:10229E007A08031C7A0F54295529A3022308FA0041
:1022AE002208F9002108F8002008F7008030F60611
:1022BE008030FA067A087602031D6F2979087502B6
:1022CE00031D6F2978087402031D6F2977087302A6
:1022DE00031872297329752903107629031408002F
:1022EE0083120313A000200803197E297F29932946
:1022FE00F61F8229832993297309A2007409A3006A
:10230E007509A4007609A500A20A0319A30A0319E8
:10231E00A40A0319A50A9B297608A5007508A4002E
:10232E007408A3007308A20076087504740473047D
:10233E00031DA229A329AC290030F6000030F500B8
:10234E000030F4000030F300322A9630F7007708A0
:10235E00A100BE290130F7007708A1070130031054
:10236E00A50CA40CA30CA20CFF3E031DB629FE3037
:10237E002505031DC329C429B129E0290130F70021
:10238E007708A1070130A207003003180130A30718
:10239E00003003180130A407003003180130A507E0
:1023AE0001300310A50CA40CA30CA20CFF3E031DC0
:1023BE00D829FF302505031DE529E629C529F2296F
:1023CE000130A1020130F7000310A20DA30DA40DE0
:1023DE00A50DF70BEB29A41BF529F629FC290230D4
:1023EE0021020318FB29FC29E7292118FF29002ABD
:1023FE00082AFF30A205FF30A3057F30A405FF3069
:10240E00A5050310A10C2108F700F801F901FA0146
:10241E0018300310F70DF80DF90DFA0DFF3E031DE0
:10242E00102A7708A2047808A3047908A4047A086D
:10243E00A50420080319242A252A2A2AF61F282A49
:10244E00292A2A2AA5172508F6002408F5002308AC
:10245E00F4002208F3000800730883120313A0008F
:10246E007408A1007508A2000310210D220DA3000F
:10247E002308A9002908031D452A462A4F2A0030A1
:10248E00F6000030F5000030F4000030F300EF2AC3
:10249E007708A0007808A1007908A2000310210D8A
:1024AE00220DA3002308A8002808031D5F2A602A16
:1024BE00612A462AF417FF30F305FF30F405003089
:1024CE00F505F817FF30F705FF30F8050030F90570
:1024DE000030A7000030A6000030A5000030A40098
:1024EE007F30A90298302807A0002008A9021830D2
:1024FE00A0002008A8000130A0000310A40DA50D17
:10250E00A60DA70DA00B842A79087502031D952A26
:10251E0078087402031D952A77087302031C982A03
:10252E00992AA42A7708F3027808031C780FF4027C
:10253E007908031C790AF502241401300310F30DF7
:10254E00F40DF50DFF3E031DA52A0130A802031D53
:10255E00B12AB22A822AA91FB52AB62AD02A290858
:10256E00803A973E0318BC2ABD2ABE2A462A01305D
:10257E000310A70CA60CA50CA40CFF3E031DBF2A2E
:10258E000130A0002008A907031DCE2ACF2ABE2A9B
:10259E00E72A18302902031CD52AD62AE22A462A0F
:1025AE000130A0000310A40DA50DA60DA70DA00BC4
:1025BE00D92A0130A9022908031DE62AE72AD72ABB
:1025CE002708F6002608F5002508F4002408F30075
:1025DE00080083120313D5006E305502031CF82A2F
:1025EE00F92A082C3F30AB000030AA000030A900B9
:1025FE000030A8006430A0000030A1005508C600CD
:10260E00C7014608A2004708A3000A168A153525F9
:10261E000A168A11831203132008C8000130031012
:10262E00C80DFF3E031D162B0310480D7D3E840082
:10263E000A168A1100200A168A11C9000A168A1172
:10264E0000200A168A11CA000A168A1100200A16DC
:10265E008A11CB000A168A1100200A168A11CC00A4
:10266E004C08AF004B08AE004A08AD004908AC005C
:10267E000A128A153C210A168A11831203132B089B
:10268E00D4002A08D3002908D2002808D1000A3025
:10269E00A0000030A1005508C600C7014608F5008D
:1026AE004708F6006430F3000030F4000A168A156D
:1026BE00BF240A168A11740883120313A300730829
:1026CE00A2000A168A1535250A168A1183120313DB
:1026DE002008C80001300310C80DFF3E031D722BE9
:1026EE000310480D593E84000A168A1100200A165E
:1026FE008A11C9000A168A1100200A168A11CA0008
:10270E000A168A1100200A168A11CB000A168A119F
:10271E0000200A168A11CC004C08AB004B08AA0008
:10272E004A08A9004908A8005408AF005308AE0093
:10273E005208AD005108AC000A128A153C210A1647
:10274E008A11831203132B08D0002A08CF00290800
:10275E00CE002808CD000A30F3000030F4005508F2
:10276E00C600C7014608F5004708F6000A168A1586
:10277E00BF240A168A11730883120313C80001308E
:10278E000310C80DFF3E031DC72B0310480D353E29
:10279E0084000A168A1100200A168A11C9000A1628
:1027AE008A1100200A168A11CA000A168A11002000
:1027BE000A168A11CB000A168A1100200A168A11EF
:1027CE00CC004C08AB004B08AA004A08A9004908E7
:1027DE00A8005008AF004F08AE004E08AD004D08DF
:1027EE00AC000A128A153C210A168A1183120313B1
:1027FE002B08C5002A08C4002908C3002808C200F7
:10280E00FC2C0B305502031C0D2C0E2CB92C3F301A
:10281E00AB000030AA000030A9000030A8000A303A
:10282E00A0000030A1005508C600C7014608A2004E
:10283E004708A3000A168A1535250A168A1183122F
:10284E0003132008C80001300310C80DFF3E031DFE
:10285E002B2C0310480D593E84000A168A110020B5
:10286E000A168A11C9000A168A1100200A168A1140
:10287E00CA000A168A1100200A168A11CB000A16FF
:10288E008A1100200A168A11CC004C08AF004B08A2
:10289E00AE004A08AD004908AC000A128A153C2168
:1028AE000A168A11831203132B08D4002A08D300A8
:1028BE002908D2002808D1000A30F3000030F400B5
:1028CE005508C600C7014608F5004708F6000A1667
:1028DE008A15BF240A168A11730883120313C800BF
:1028EE0001300310C80DFF3E031D782C0310480D58
:1028FE00353E84000A168A1100200A168A11C90074
:10290E000A168A1100200A168A11CA000A168A119E
:10291E0000200A168A11CB000A168A1100200A1608
:10292E008A11CC004C08AB004B08AA004A08A9003B
:10293E004908A8005408AF005308AE005208AD0075
:10294E005108AC000A128A153C210A168A1183120C
:10295E0003132B08C5002A08C4002908C300280841
:10296E00C200FC2C3F30AB000030AA000030A900A2
:10297E000030A8005508C60001300310C60DFF3EFA
:10298E00031DC42C0310460D353E84000A168A1111
:10299E0000200A168A11C7000A168A1100200A168C
:1029AE008A11C8000A168A1100200A168A11C90057
:1029BE000A168A1100200A168A11CA004A08AF00A8
:1029CE004908AE004808AD004708AC000A128A1547
:1029DE003C210A168A11831203132B08C5002A08FC
:1029EE00C4002908C3002808C20008008316031378
:1029FE00C6006B30A8002808B1000A128A11352DC6
:102A0E002530470603190C2D0D2D192D4708A8004A
:102A1E00460884002808831380000130A800280887
:102A2E00C607042DBE01BF01BC01BD01252D3C15FD
:102A3E000130A800280883120313EA0783126A08DC
:102A4E0084000A168A1100200A168A1183160313AF
:102A5E00A800A9012908003A0319362D3B2D280894
:102A6E00303A03191E2D3B2D831203136A0884007E
:102A7E000A168A1100200A168A110A168A153F2490
:102A8E000A168A11031C4C2D4D2D932D83160313FC
:102A9E00BE01BF010A30F3000030F40083160313A9
:102AAE003F08F6003E08F5000A128A11DA270A16C8
:102ABE008A11740883160313BF007308BE008312B5
:102ACE0003136A0884000A168A1100200A168A1156
:102ADE00D03E83160313A800FF3003180030A90060
:102AEE002808BE070318BF0A2908BF070130A8002F
:102AFE00280883120313EA076A0884000A168A114B
:102B0E0000200A168A110A168A153F240A168A11FF
:102B1E000318922D932D512D831203136A088400EE
:102B2E000A168A1100200A168A112E3A031DA02DAC
:102B3E00A12DF32D831603133D170130A80028088D
:102B4E0083120313EA0783160313C401C501E12D93
:102B5E000A30F3000030F400831603134508F60024
:102B6E004408F5000A128A11DA270A168A11740827
:102B7E0083160313C5007308C400831203136A0877
:102B8E0084000A168A1100200A168A11D03E831676
:102B9E000313A800FF3003180030A9002808C4074B
:102BAE000318C50A2908C5070130A8002808831292
:102BBE000313EA0783126A0884000A168A1100209A
:102BCE000A168A110A168A153F240A168A11031844
:102BDE00F12DF22DAF2DFB2D83160313C401C5016C
:102BEE003D16FB2D3D15192E013083120313EA07F6
:102BFE00FF306A0784000A168A1100200A168A110D
:102C0E0083160313C700A800A9012908003A031967
:102C1E00112E042D2808003A0319FD2F663A0319C8
:102C2E00F92D042D00303C05A80007303D05A90004
:102C3E00280829040319242E272E0A128A11372C4C
:102C4E003D1E2A2E2B2E2F2E0630C4000030C5001E
:102C5E003108840083130008C000840A0008C100F4
:102C6E00840A0008C200840A0008C3000430A800C9
:102C7E002808B1074308F6004208F5004108F400A1
:102C8E004008F3000030FA000030F9000030F80080
:102C9E000030F7000A168A11D3200A168A1103187B
:102CAE00592E5A2E772E831603134308F600420828
:102CBE00F5004108F4004008F3000A168A119F201F
:102CCE000A168A11760883160313C3007508C2000C
:102CDE007408C1007308C0000330BC040030BD048A
:102CEE0083160313BA01BB014308F6004208F50030
:102CFE004108F4004008F3000030FA000030F900FB
:102D0E000030F8000030F7000A168A157B250A16E7
:102D1E008A110318932E942E942F031083160313E7
:102D2E00420D430D823EBA00FF3003180030BB0047
:102D3E00FF30BA070318BB0AFF30BB070330F3009E
:102D4E000030F4003B08F6003A08F5000A128A112A
:102D5E00DA270A168A11740883160313BB00730848
:102D6E00BA000A3083120313A0000030A1008316AC
:102D7E0003133B0883120313A300831603133A08AD
:102D8E0083120313A2000A168A1597270A168A11B0
:102D9E0083120313210883160313BB00831203133C
:102DAE00200883160313BA00BB1FDE2EDF2EE52E7E
:102DBE00FF30BA070318BB0AFF30BB073A03FF3ACE
:102DCE000A128A159D240A168A11831203134508C6
:102DDE0083160313B90083120313440883160313D7
:102DEE00B80083120313430883160313B70083122C
:102DFE000313420883160313B6004308831203130A
:102E0E00AB0083160313420883120313AA00831622
:102E1E000313410883120313A900831603134008FA
:102E2E0083120313A80083160313390883120313A6
:102E3E00AF0083160313380883120313AE008316F4
:102E4E000313370883120313AD00831603133608DA
:102E5E0083120313AC000A128A153C210A168A113A
:102E6E00831203132B0883160313B9008312031363
:102E7E002A0883160313B800831203132908831636
:102E8E000313B70083120313280883160313B60027
:102E9E003908F6003808F5003708F4003608F30054
:102EAE003F30FA008030F9000030F8000030F700B3
:102EBE000A168A11D3200A168A110318672F682F53
:102ECE00712FFF3083160313BA070318BB0AFF30A6
:102EDE00BB07942F831603133908F6003808F50044
:102EEE003708F4003608F3004130FA002030F900BC
:102EFE000030F8000030F7000A168A11D3200A16A7
:102F0E008A11031C8B2F8C2F942F013083160313E1
:102F1E00BA070318BB0A0030BB0783160313450814
:102F2E00803AFF0080307F02031D9F2F0D30440238
:102F3E000318A22FA32FEA2F8316031344080A1691
:102F4E008A11F0220A168A11831203134508D9003A
:102F5E004408D8004308D7004208D600831603134E
:102F6E00430883120313DD008316031342088312F2
:102F7E000313DC0083160313410883120313DB00D3
:102F8E0083160313400883120313DA000A128A1100
:102F9E0052250A168A118312031359088316031336
:102FAE00C30083120313580883160313C20083123F
:102FBE000313570883160313C10083120313560815
:102FCE0083160313C000831603133B08803AFF00D9
:102FDE0080307F02031DF52F0A303A020318FA2FB4
:102FEE000A128A1122280A128A1173280A128A11C9
:022FFE004D2D57
:10386A00F300831203130C1E3B2C3C2C362C7308DA
:10387A0099000800F400F3013A3074020318462C48
:10388A00472C4F2C30307402031C4C2C4D2C4F2CDF
:10389A00F301F30A730C0800F700F501F601662C30
:1038AA0075087707F4007408840000080A168A1558
:1038BA0035240A168A150130F5070318F60A00306E
:1038CA00F60775087707F400740884008313000864
:1038DA00031D702C712C552C08000B1C752C762C92
:1038EA00872C8312031306187B2C7C2C802C013026
:1038FA00F0007008EF078618832C842C862C013080
:10390A00EF020B10831203138C1E8C2C8D2C8F2C20
:10391A001A08880072088A00710E8300FE0E7E0E55
:10392A00090083120313B2003208AA00AB01AC01EA
:10393A00AD012D08F6002C08F5002B08F4002A0822
:10394A00F30001300A168A1177210A168A157608B9
:10395A0083120313B1007508B0007408AF0073082E
:10396A00AE003108A9003008A8002F08A7002E08C9
:10397A00A6000800730874040319C42CC52CF42C7F
:10398A00F801F80AD32C01300310F30DF40DFF3EB1
:10399A00031DC92C0130F7007708F807F41FD62C4D
:1039AA00D72CC82C74087602031DDD2C7308750207
:1039BA00031CE02CE12CE72C7308F5027408031CA5
:1039CA00F603F60201300310F40CF30CFF3E031D5C
:1039DA00E82C0130F802031DF32CF42CD72C7608BE
:1039EA00F4007508F300080083160317880189019B
:1039FA00831603138501033086008030870088010F
:103A0A0089018312031385018601870188018901CF
:103A1A00831603130F178F160F160F140B178C1616
:103A2A00831203138C128B150B108B178316031337
:103A3A008113151495141614961418121811831656
:103A4A000317871533308316031399009A018312DB
:103A5A0003139817181318168316031398160800D9
:103A6A0083120313A401A5012008210403193E2D82
:103A7A003F2D762DA601A60A4D2D01300310A00D6B
:103A8A00A10DFF3E031D432D0130F9007908A60759
:103A9A00A11F502D512D422D01300310A40DA50D4B
:103AAA00FF3E031D522D21082302031D5E2D20080F
:103ABA002202031C612D622D692D2008A202210811
:103ACA00031CA303A302241401300310A10CA00CAD
:103ADA00FF3E031D6A2D0130A602031D752D762DAA
:103AEA00512D2508A1002408A00008000030730504
:103AFA0083120313A00000307405A10080307505FD
:103B0A00A2007F307605A3002308220421042004A2
:103B1A00031D902D912D992D0030F6000030F500EF
:103B2A000030F4000030F30000307705A0000030C8
:103B3A007805A10080307905A2007F307A05A300BC
:103B4A002308220421042004031DAC2DAD2DB52D1C
:103B5A000030FA000030F9000030F8000030F700B9
:103B6A007A087606031DC32D79087506031DC32D31
:103B7A0078087406031DC32D770873060319C62D2A
:103B8A00C72DC92D0310CA2D0314080080308316CF
:103B9A000313A306270883120313D90083160313FA
:103BAA00260883120313D8008316031325088312E9
:103BBA000313D70083160313240883120313D600B2
:103BCA0083160313230883120313DD0083160313DA
:103BDA00220883120313DC008316031321088312BD
:103BEA000313DB0083160313200883120313DA007E
:103BFA000A128A1152250A168A15831203135908C2
:103C0A0083160313A300831203135808831603139E
:103C1A00A20083120313570883160313A100831209
:103C2A000313560883160313A000080076087504C8
:103C3A00740473040319222E232E682E831203138D
:103C4A00A101A10A352E0130A0000310F30DF40DD5
:103C5A00F50DF60DA00B2A2E0130A0002008A107B1
:103C6A00F61F382E392E282E76087A02031D472E83
:103C7A0075087902031D472E74087802031D472E22
:103C8A0073087702031C4A2E4B2E592E7308F7022B
:103C9A007408031C740FF8027508031C750FF902E7
:103CAA007608031C760FFA0201300310F60CF50CA5
:103CBA00F40CF30CFF3E031D5A2E0130A102031D22
:103CCA00672E682E392E7A08F6007908F5007808EA
:103CDA00F4007708F3000800F901F61F752E762E16
:103CEA007D2EF509F609F50A0319F60AF901F90A0A
:103CFA00F41F802E812E862EF309F409F30A031984
:103D0A00F40A7308740403198B2E8C2EBB2EF80147
:103D1A00F80A9A2E01300310F30DF40DFF3E031D2D
:103D2A00902E0130F7007708F807F41F9D2E9E2E7B
:103D3A008F2E74087602031DA42E73087502031CC5
:103D4A00A72EA82EAE2E7308F5027408031CF603DC
:103D5A00F60201300310F40CF30CFF3E031DAF2EE4
:103D6A000130F802031DBA2EBB2E9E2E79080319C4
:103D7A00BF2EC02EC52EF509F609F50A0319F60A53
:103D8A007608F4007508F30008000A168A15F92463
:103D9A000A168A15831203136F080A168A159624BF
:103DAA000A168A1583120313290883160313D800E7
:103DBA0083120313280883160313D70083120313ED
:103DCA00270883160313D6008312031326088316C3
:103DDA000313D5009130C800480883120313EA0080
:103DEA0083160313580883120313EE008316031372
:103DFA00570883120313ED00831603135608831220
:103E0A000313EC0083160313550883120313EB0004
:103E1A00CB300A168A11FD240A168A152C30831211
:103E2A0003139900CB300A168A1551240A168A15EB
:103E3A00333083160313CA00BB30C900DF30C80011
:103E4A00C80B252FC90B252FCA0B252FCF2E0A12D7
:103E5A008A110C28003083120313A4000030A30037
:103E6A000030A2000030A1007608750474047304BF
:103E7A000319402F412F8E2FA501A50A512F01307A
:103E8A00A0000310F30DF40DF50DF60DA00B462F4F
:103E9A000130A0002008A507F61F542F552F442FE4
:103EAA000130A0000310A10DA20DA30DA40DA00BBB
:103EBA00572F76087A02031D6C2F75087902031DA5
:103ECA006C2F74087802031D6C2F73087702031C89
:103EDA006F2F702F7F2F7308F7027408031C740F5B
:103EEA00F8027508031C750FF9027608031C760F91
:103EFA00FA02211401300310F60CF50CF40CF30C41
:103F0A00FF3E031D802F0130A502031D8D2F8E2F2A
:103F1A00552F2408F6002308F5002208F40021088A
:103F2A00F300080083120313A501A11F9D2F9E2FE2
:103F3A00A52FA009A109A00A0319A10AA501A50A8A
:103F4A00A31FA82FA92FB22FA209A309A20A0319F6
:103F5A00A30A0130FA007A08A506A601A7012008DB
:103F6A0021040319B92FBA2FF12FA401A40AC82FCB
:103F7A0001300310A00DA10DFF3E031DBE2F01301D
:103F8A00FA007A08A407A11FCB2FCC2FBD2F01302E
:103F9A000310A60DA70DFF3E031DCD2F21082302F6
:103FAA00031DD92F20082202031CDC2FDD2FE42F4A
:103FBA002008A2022108031CA303A302261401302D
:103FCA000310A10CA00CFF3E031DE52F0130A40233
:103FDA00031DF02FF12FCC2F25080319F52FF62FEB
:103FEA00FB2FA609A709A60A0319A70A2708A100F1
:063FFA002608A0000800EB
:04400E00D520FF3F7B
:00000001FF
