:020000040000FA
:060000000A128A110C280F
:10000800FE00030EF1000A08F2000A128A111628EF
:100018000A128A110F28F501F601F70183010A1265
:100028008A11B628831203138C1D1B281C286E28DE
:100038001412141B202821282528941F2428252839
:100048002C281308F0007008F600141394131416E3
:1000580083160313941A312832284A28141935288C
:1000680036284A28831203131308F0007008F60094
:100078008C11141683160313141C432844283E2895
:10008800A630F000F00B462800006B28941A4D2883
:100098004E286B28141D512852286B2883120313ED
:1000A8001308F0007008F60083160313141075087F
:1000B8008312031393001416A630F000F00B622885
:1000C80000008316031314186A286B286528831206
:1000D80003138C1172088A00710E8300FE0E7E0EC7
:1000E8000900831603178801890101308316031359
:1000F800850086018701880189018312031387011E
:100108008801890160300A128A11D3200A128A11E3
:10011800831603130F178F160F160F140B170C17D0
:10012800831203130C138B17831603130715FA3066
:1001380092003F308312031397051708F0390C38E3
:1001480097000F309500CF3097058C10033092043C
:1001580012158C1CB028B128AD288C1083160313F7
:10016800071108000A128A1175200A128A118312CF
:1001780003130518C028C128C828FA30F4007408E9
:10018800F700F501F50ACD288030F4007408F7006F
:10019800F50177089500BB280A128A110C28F3008C
:1001A80073088316031393003630831203139400E5
:1001B80080308316031394000130910087150716C9
:1001C8008B170B17831203138C11831603138C15CB
:0201D80008001D
:04400E00D520FF3F7B
:00000001FF
