:020000040000FA
:060000000A128A110C280F
:10000800FE00030EF2000A08F3000A128A11DD2826
:100018000A128A110F28F701F801F90183010A125F
:100028008A1116280A128A1183200A128A11831249
:1000380003139F182028212871289F141F0CA20041
:10004800220C0F39003A03192A282C2801302D28B0
:100058000030A300770803193228342801303528E6
:1000680000302305003803193A283B2848281E0881
:10007800A2002208F8001E088600F701F70A1F08E8
:10008800C33904389F006A281F0CA200220C0F39BC
:10009800013A031950285228013053280030A30090
:1000A8007703031958285A2801305B2800302305A4
:1000B80000380319602861286A281E08A20022084F
:1000C800F8001E088800F701C3309F05203083120E
:1000D8000313A200A20B6E2800000B308312031337
:1000E800A4002630A3005D30A200A20B7928A30B40
:1000F8007928A40B79281B280A128A110C280330A6
:1001080083160317880089010330831603138500BB
:100118008601880183120313860188018B170B1748
:100128008C11831603138C158516F401F501F6015D
:1001380024300A128A11BF200A128A11831203136B
:100148001F14831603139F13831203139F1483161C
:1001580003131F129F12C330831203139F051F0836
:100168003F3940389F00203083120313A100A10BB0
:10017800BB280000080083120313A0008316031392
:10018800871283120313201DCA28CB28D12876088A
:100198008316031394008715D728740876048316EA
:1001A8000313940087118312031320087504940025
:1001B8000800831203138C1DE228E328F4280A128E
:1001C8008A11FB200A128A11F1007108F7007808D9
:1001D8000A128A110B210A128A11831203138C1135
:1001E80073088A00720E8300FE0E7E0E09000A1242
:1001F8008A1104210A128A118312031313080800B2
:1002080083160313141C09290A2904290800F0007D
:0A021800700883120313930008001E
:04400E00D620FF3F7A
:00000001FF
