:020000040000FA
:060000000A128A110C280F
:10000800FE00030EF1000A08F2000A128A111428F1
:100018000A128A110F28F40183010A128A11A928E9
:10002800831203138C1D19281A286C281412141B08
:100038001E281F282328941F222823282A2813082B
:10004800F0007008F40014139413141683160313A5
:10005800941A2F2830284828141933283428482877
:10006800831203131308F0007008F4008C1114169F
:1000780083160313141C412842283C28A630F0009C
:10008800F00B442800006928941A4B284C2869284A
:10009800141D4F2850286928831203131308F000F1
:1000A8007008F4008316031314108312031308084E
:1000B80093001416A630F000F00B60280000831699
:1000C80003131418682869286328831203138C11F2
:1000D8000B1C6F2870287F28061873287428782826
:1000E8000130F0007008880786187B287C287E2855
:1000F800013088020B1072088A00710E8300FE0E10
:100108007E0E0900831603178801890183160313DD
:100118008501033086008801831203138601880154
:1001280060300A128A11C3200A128A118316031337
:100138000F178F160F160F148B150B108B178113B3
:10014800151495141614961408000A128A1186209C
:100158000A128A111030831203130806031DB528EA
:10016800B628B8288801AE28080A031DBC28BD286F
:10017800AE280F308800AE280A128A110C28F30026
:100188007308831603139300363083120313940005
:1001980080308316031394000130910087150716E9
:1001A8008B170B17831203138C11831603138C15EB
:0201B80008003D
:04400E00D520FF3F7B
:00000001FF
