:020000040000FA
:060000000A128A110C280F
:10000800FE00030EF1000A08F2000A168A150929F3
:100018000A128A110F2883120313EF018313CC30BD
:100028008400E5300A128A11F7270A128A11831709
:1000380090308400EA300A128A11F7270A128A11CE
:1000480083010A168A118428831603134508F600CB
:100058004408F5004308F4004208F3000030FA00B1
:100068000030F9000030F8000030F7000A168A1551
:100078005E230A128A11031842284328EB288316A4
:100088000313450883120313D80083160313440887
:1000980083120313D7008316031343088312031331
:1000A800D60083160313420883120313D5000A16D9
:1000B8008A1108200A128A11831203135808570458
:1000C80056045504031D69286A28EB288316031370
:1000D8004108803AFF0080307F02031D75280230F6
:1000E8004002031C78287928EB28831603133F085D
:1000F800F6003E08F5003D08F4003C08F3004030E7
:10010800FA008930F9007030F8005F30F7000A16FD
:100118008A1525250A128A110318932894289D28E0
:10012800F73083160313C0070318C10AFF30C1074D
:10013800A528F83083160313C0070318C10AFF3037
:10014800C10740080A128A159D240A128A118312CF
:100158000313450883160313BF00831203134408CF
:1001680083160313BE008312031343088316031375
:10017800BD0083120313420883160313BC0045080D
:10018800F6004408F5004308F4004208F3003F086D
:10019800FA003E08F9003D08F8003C08F7000A1686
:1001A8008A1542270A128A11760883160313B700A4
:1001B8007508B6007408B5007308B4000030C500AF
:1001C8000030C4000030C3000030C200512983163B
:1001D8000313450883120313D80083160313440836
:1001E80083120313D70083160313430883120313E0
:1001F800D60083160313420883120313D5000A1688
:100208008A1108200A128A118312031358088316C8
:100218000313B70083120313570883160313B6009A
:1002280083120313560883160313B50083120313AE
:10023800550883160313B4003708F6003608F5008E
:100248003508F4003408F30000300A168A15C92569
:100258000A128A11760883160313A3007508A200F0
:100268007408A1007308A0004508A7004408A60068
:100278004308A5004208A4000A168A15AE230A12EC
:100288008A11831603132308C5002208C400210815
:10029800C3002008C200C001C101C801C80A48083B
:1002A80083120313EA0001300310EA0DFF3E031D19
:1002B800582903106A0D693E84000A128A150A201B
:1002C8000A128A11EB000A128A150A200A128A11E8
:1002D800EC000A128A150A200A128A11ED000A1285
:1002E8008A150A200A128A11EE006E088316031373
:1002F8003702031D9529831203136D088316031310
:100308003602031D9529831203136C088316031301
:100318003502031D9529831203136B0883160313F3
:1003280034020318982999299A29A8290130831297
:100338000313EA006A0883160313C8070A3048063D
:10034800031DA729A8295329480846078312031320
:10035800EA008316031347080318470A8312031396
:10036800EB00831603134008831203136A07EC009B
:100378008316031341080318410A831203136B07FA
:10038800ED006C0883160313BA02831203136D0879
:1003980083160313031CBB03BB0246084704031957
:1003A800D629D729DD29FF30BA070318BB0AFF3041
:1003B800BB070330380583120313EA0000308316A5
:1003C8000313390583120313EB006A086B0403193E
:1003D800EE29EF29102AFF3083160313BA070318F2
:1003E800BB0AFF30BB07102A203083120313EA0030
:1003F80083160313280884008317291C8313831288
:1004080003136A088000013083160313A807031832
:10041800A90A0030A907EF29831603133B08803A7D
:10042800FF0080307F02031D1B2A01303A020318A7
:100438001E2A1F2AF829033083160313380583124E
:100448000313EA00003083160313390583120313DC
:10045800EB006A086B040319322A332AB82A2D30B4
:10046800EA0083160313280884008317291C8313C2
:10047800831203136A088000013083160313A80748
:100488000318A90A0030A907B82A480883120313D9
:10049800EA0001300310EA0DFF3E031D4E2A031047
:1004A8006A0D693E84000A128A150A200A128A1106
:1004B800F3000A128A150A200A128A11F4000A1295
:1004C8008A150A200A128A11F5000A128A150A20CA
:1004D8000A128A11F600831603133708FA00360841
:1004E800F9003508F8003408F7000A168A1554246C
:1004F8000A128A11760883160313BF007508BE0016
:100508007408BD007308BC000030F6000030F50028
:100518000030F4000A30F3003F08FA003E08F90002
:100528003D08F8003C08F7000A168A15FE230A124F
:100538008A11760883160313BF007508BE00740875
:10054800BD007308BC003C08303E83120313EA0068
:1005580083160313280884008317291C8313831226
:1005680003136A088000402A013083160313C80267
:10057800480A031DC02AC12A492ADF2A30308312BB
:100588000313EA0083160313280884008317291C21
:100598008313831203136A08800001308316031340
:1005A800A8070318A90A0030A907FF30C0070318D5
:1005B800C10AFF30C1074108803AFF0080307F023E
:1005C800031DE82A013040020318EB2AEC2AC22A4C
:1005D800831603134708803AFF0080307F02031D0B
:1005E800F72A09304602031CFA2AFB2A042B083092
:1005F80083120313EA006A0883160313C8000E2B3C
:1006080083160313460883120313EA006A08831645
:100618000313C800480883120313EA00EB016A08B1
:1006280083160313C602831203136B08831603137E
:10063800031CC703C70248080319232B242B3B2B91
:100648002E3083120313EA0083160313280884004C
:100658008317291C8313831203136A08800001304F
:1006680083160313A8070318A90A0030A907480826
:100678000A128A159D240A128A1183120313450847
:1006880083160313B200831203134408831603135B
:10069800B10083120313430883160313B0008312B7
:1006A8000313420883160313AF003208831203139F
:1006B800AF0083160313310883120313AE008316A9
:1006C8000313300883120313AD00831603132F0896
:1006D80083120313AC008316031345088312031314
:1006E800AB0083160313440883120313AA0083166E
:1006F8000313430883120313A90083160313420844
:1007080083120313A8000A128A153C210A128A11BF
:10071800831203132B08D8002A08D7002908D6000B
:100728002808D5000A168A1108200A128A1183128D
:100738000313580883160313B700831203135708CB
:1007480083160313B6008312031356088316031384
:10075800B50083120313550883160313B400692CDC
:10076800480883120313EA0001300310EA0DFF3E24
:10077800031DB92B03106A0D693E84000A128A15FD
:100788000A200A128A11F3000A128A150A200A128C
:100798008A11F4000A128A150A200A128A11F50031
:1007A8000A128A150A200A128A11F6008316031300
:1007B8003708FA003608F9003508F8003408F70059
:1007C8000A168A1554240A128A1176088316031306
:1007D800BF007508BE007408BD007308BC00003077
:1007E800F6000030F5000030F4000A30F3003F084E
:1007F800FA003E08F9003D08F8003C08F7000A1620
:100808008A15FE230A128A11760883160313BF007D
:100818007508BE007408BD007308BC003C08303E73
:1008280083120313EA00831603132808840083172E
:10083800291C8313831203136A088000013083166E
:100848000313A8070318A90A0030A9074808831248
:100858000313EA0001300310EA0DFF3E031D2F2C9D
:1008680003106A0D693E84000A128A150A200A12CA
:100878008A11F3000A128A150A200A128A11F40052
:100888000A128A150A200A128A11F5000A128A1514
:100898000A200A128A11F600831603133708FA0091
:1008A8003608F9003508F8003408F7000A168A15E2
:1008B800FE230A128A11760883160313B7007508F7
:1008C800B6007408B5007308B4000130C802480ABD
:1008D800031D6F2C702CB42B8E2C30308312031315
:1008E800EA0083160313280884008317291C83133E
:1008F800831203136A088000013083160313A807C4
:100908000318A90A0030A907FF30C6070318C70A49
:10091800FF30C70746084704031D932C942C712CFD
:100928009E2D8316031346084704031D9C2C9D2CFB
:10093800AB2C3708360435043404031DA42CA52C2D
:10094800AB2C0130C6070318C70A0030C707470891
:10095800803A803C031DB22C460848020318B52C87
:10096800B62CC12C83160313460883120313EA001E
:100978006A0883160313C800E52C83160313470877
:10098800803A83120313EA0080306A02031DD02CD8
:1009980083160313480846020318D32CD42CE52CDD
:1009A80083160313480883120313EA00EB016A084D
:1009B80083160313C600831203136B0883160313ED
:1009C800C700831603133A083B040319EC2CED2CDB
:1009D800072D0330380583120313EA00003083160D
:1009E8000313390583120313EB006A086B04031918
:1009F800FE2CFF2C072DFF3083160313BA070318AC
:100A0800BB0AFF30BB0783160313391F0C2D0D2DAE
:100A1800302D4708803A83120313EA008316031324
:100A28003B08803A831203136A02031D1F2D8316A5
:100A380003133A0846020318222D232D2C2D831662
:100A480003134608BA024708031CBB03BB02302D38
:100A580083160313BA01BB013B08803A803C031D8F
:100A6800372D3A08480203183A2D3B2D4F2D83168F
:100A78000313480883120313EA00EB016A0883167C
:100A88000313BA02831203136B0883160313031CA0
:100A9800BB03BB02532D83160313BA01BB013A08EB
:100AA8003B040319582D592D7C2D20308312031334
:100AB800EA0083160313280884008317291C83136C
:100AC800831203136A088000013083160313A807F2
:100AD8000318A90A0030A907FF30BA070318BB0A90
:100AE800FF30BB073A083B04031D7B2D7C2D592D95
:100AF8000330380583120313EA000030831603130A
:100B0800390583120313EB006A086B0403198D2D52
:100B18008E2D9E2D2D30EA0083160313280884009D
:100B28008317291C8313831203136A0880000A168B
:100B38008A111B2D013083160313AA07FF302A07D9
:100B480084000A128A150A200A128A1183120313D2
:100B5800EA006A0883160313C8004808031DB52D68
:100B6800B82D0A168A11062D831603132808840047
:100B78008317291C83138001080083120313D500EF
:100B88006E305502031CC92DCA2DD92E3F30AB003B
:100B98000030AA000030A9000030A8006430A0008E
:100BA8000030A1005508C600C7014608A200470842
:100BB800A3000A168A15CC220A128A11831203137B
:100BC8002008C80001300310C80DFF3E031DE72DA3
:100BD8000310480D7D3E84000A128A150A200A1265
:100BE8008A11C9000A128A150A200A128A11CA0033
:100BF8000A128A150A200A128A11CB000A128A15CB
:100C08000A200A128A11CC004C08AF004B08AE002B
:100C18004A08AD004908AC000A128A153C210A129C
:100C28008A11831203132B08D4002A08D300290839
:100C3800D2002808D1000A30A0000030A1005508D1
:100C4800C600C7014608F5004708F6006430F300FF
:100C58000030F4000A168A15CB210A128A1174088A
:100C680083120313A3007308A2000A168A15CC2264
:100C78000A128A11831203132008C80001300310D6
:100C8800C80DFF3E031D432E0310480D593E840036
:100C98000A128A150A200A128A11C9000A128A152C
:100CA8000A200A128A11CA000A128A150A200A1290
:100CB8008A11CB000A128A150A200A128A11CC005E
:100CC8004C08AB004B08AA004A08A9004908A8002C
:100CD8005408AF005308AE005208AD005108AC00EC
:100CE8000A128A153C210A128A11831203132B084F
:100CF800D0002A08CF002908CE002808CD000A30E5
:100D0800F3000030F4005508C600C7014608F50096
:100D18004708F6000A168A15CB210A128A117308A9
:100D280083120313C80001300310C80DFF3E031DD2
:100D3800982E0310480D353E84000A128A150A20A1
:100D48000A128A11C9000A128A150A200A128A117F
:100D5800CA000A128A150A200A128A11CB000A123E
:100D68008A150A200A128A11CC004C08AB004B08DD
:100D7800AA004A08A9004908A8005008AF004F086F
:100D8800AE004E08AD004D08AC000A128A153C2191
:100D98000A128A11831203132B08C5002A08C400FB
:100DA8002908C3002808C200CD2F0B305502031CA8
:100DB800DE2EDF2E8A2F3F30AB000030AA00003035
:100DC800A9000030A8000A30A0000030A100550892
:100DD800C600C7014608A2004708A3000A168A15DC
:100DE800CC220A128A11831203132008C80001308A
:100DF8000310C80DFF3E031DFC2E0310480D593E7D
:100E080084000A128A150A200A128A11C9000A12D5
:100E18008A150A200A128A11CA000A128A150A209B
:100E28000A128A11CB000A128A150A200A128A119C
:100E3800CC004C08AF004B08AE004A08AD0049088A
:100E4800AC000A128A153C210A128A118312031374
:100E58002B08D4002A08D3002908D2002808D1007A
:100E68000A30F3000030F4005508C600C7014608F0
:100E7800F5004708F6000A168A15CB210A128A11CE
:100E8800730883120313C80001300310C80DFF3E16
:100E9800031D492F0310480D353E84000A128A1598
:100EA8000A200A128A11C9000A128A150A200A128F
:100EB8008A11CA000A128A150A200A128A11CB005E
:100EC8000A128A150A200A128A11CC004C08AB00B3
:100ED8004B08AA004A08A9004908A8005408AF000E
:100EE8005308AE005208AD005108AC000A128A152A
:100EF8003C210A128A11831203132B08C5002A0801
:100F0800C4002908C3002808C200CD2F3F30AB0019
:100F18000030AA000030A9000030A8005508C6001B
:100F280001300310C60DFF3E031D952F0310460D1B
:100F3800353E84000A128A150A200A128A11C7004F
:100F48000A128A150A200A128A11C8000A128A157A
:100F58000A200A128A11C9000A128A150A200A12DE
:100F68008A11CA004A08AF004908AE004808AD0017
:100F78004708AC000A128A153C210A128A1183120A
:100F880003132B08C5002A08C4002908C300280831
:100F9800C200080083120313A400A001A101730872
:100FA800F500F6017508A2007608A300241CDD2FC1
:100FB800DE2FE42F2208A0070318A10A2308A1079F
:100FC80001300310A20DA30DFF3E031DE52F0310F2
:100FD800A40C2408031DF12FF22FDA2F2108F400A6
:100FE8002008F300080064008001840A040603193D
:060FF80000340406F82F8E
:10100000FF1B0A2883137F1883170008840A03191B
:10101000FF0A080008308A000408840A82070034A6
:101020000034003480343F34003400342034413400
:1010300000340034C8344234003400347A34443448
:10104000003440341C34463400345034C334473404
:1010500000342434743449348034963418344B3496
:101060002034BC34BE344C3428346B346E344E34AB
:10107000F934023415345034EC347834AD346034FF
:10108000CA34F234493471340034003480343F348B
:10109000CD34CC34CC343D340A34D73423343C34CE
:1010A0006F34123483343A341734B734D13438348B
:1010B000AC34C53427343734BD3437348634353412
:1010C0009534BF34D63433347734CC342B34323483
:1010D0005F34703489343034FF34E634DB342E34FA
:1010E0000834E5343C341E3460344234A2340D34C8
:1010F00001340034003400340A3400340034003445
:101100006434003400340034E834033400340034F0
:101110001034273400340034A034863401340034D1
:10112000403442340F3400348034963498340034E0
:101130000034E134F53405340034CA349A343B3495
:1011400056346F346C34743461346A34653420340A
:1011500031343A342034253433342E343234663446
:101160005634003456346F346C34743461346A3419
:101170006534203432343A342034253433342E3438
:101180003234663456340034533431343A342034F3
:1011900020342034533432343A3420342034203450
:1011A000533433343A340034253433342E34303429
:0411B000663400346D
:1011B600831203131E08F3007308F4007408080072
:1011C600F901F61FE728E828EF28F509F609F50AD8
:1011D6000319F60AF901F90AF41FF228F328F82888
:1011E600F309F409F30A0319F40A730874040319DA
:1011F600FD28FE282D29F801F80A0C2901300310D4
:10120600F30DF40DFF3E031D02290130F7007708A8
:10121600F807F41F0F291029012974087602031D07
:10122600162973087502031C19291A29202973081F
:10123600F5027408031CF603F60201300310F40CE1
:10124600F30CFF3E031D21290130F802031D2C2952
:101256002D29102979080319312932293729F50949
:10126600F609F50A0319F60A7608F4007508F3007C
:101276000800831203132B088039B0003008B5002C
:101286002B08B0003007B1003108BB00AA1F4C295B
:101296004D294E293B143B0803195229532962292B
:1012A6003B0A031D5729582960290030AB0000303E
:1012B600AA000030A9000030A800AA176A29003049
:1012C600AB000030AA000030A9000030A8002F08AB
:1012D6008039B0003008B5062F08B0003007B100DD
:1012E6003108BA00AE1F782979297A293A143A08C2
:1012F60003197E297F298E293A0A031D8329842909
:101306008C290030AF000030AE000030AD00003058
:10131600AC00AE1796290030AF000030AE000030AA
:10132600AD000030AC003A0803199A299B29A02980
:101336003B08031D9F29A029A9290030AB000030D6
:10134600AA000030A9000030A8009C2C2808B00094
:101356003008F3002E080A128A11CE270A128A15BF
:10136600740883120313C1007308C0004008B0005C
:10137600B101B201B3013308B9003208B80031082F
:10138600B7003008B6004108B000B101B201B301A0
:101396003308BF003208BE003108BD003008BC006B
:1013A6002908B0003008F3002D080A128A11CE274A
:1013B6000A128A15740883120313C1007308C00049
:1013C6004008B000B101B201B3013008B6073108D8
:1013D60003110318013E0319F129B7073208031157
:1013E6000318013E0319F829B80733080311031837
:1013F600013E0319FF29B9074108B000B101B20146
:10140600B3013008BC07310803110318013E031964
:101416000D2ABD07320803110318013E0319142AC9
:10142600BE07330803110318013E03191B2ABF0721
:101436002A08B0003008F3002C080A128A11CE27B9
:101446000A128A15740883120313C1007308C000B8
:101456004008B000B101B201B3013008B607310847
:1014660003110318013E0319392AB707320803117D
:101476000318013E0319402AB8073308031103185D
:10148600013E0319472AB9074108B000B101B2016C
:10149600B3013008BC07310803110318013E0319D4
:1014A600552ABD07320803110318013E03195C2AA9
:1014B600BE07330803110318013E0319632ABF0749
:1014C6000830B0000310B60DB70DB80DB90DB00B4E
:1014D600652A2908B0003008F3002C080A128A1180
:1014E600CE270A128A15740883120313C1007308E3
:1014F600C0004008B0004108B100B201B301300895
:10150600B607310803110318013E03198B2AB707E2
:10151600320803110318013E0319922AB80733084B
:1015260003110318013E0319992AB9072808B000C8
:101536003008F3002D080A128A11CE270A128A15DE
:10154600740883120313C1007308C0004008B0007A
:101556004108B100B201B3013008B60731080311E2
:101566000318013E0319B82AB707320803110318F6
:10157600013E0319BF2AB807330803110318013EB9
:101586000319C62AB9070830B0000310B60DB70D07
:10159600B80DB90DB00BC82A2808B0003008F30002
:1015A6002C080A128A11CE270A128A157408831289
:1015B6000313C1007308C0004008B0004108B10021
:1015C600B201B3013008B607310803110318013E12
:1015D6000319EE2AB707320803110318013E03194F
:1015E600F52AB807330803110318013E0319FC2A2C
:1015F600B9072908B0003008F3002E080A128A112C
:10160600CE270A128A15740883120313C1007308C1
:10161600C0004008B0004108B100B201B301300873
:10162600BC07310803110318013E03191B2BBD0724
:10163600320803110318013E0319222BBE07330893
:1016460003110318013E0319292BBF072A08B0000E
:101656003008F3002D080A128A11CE270A128A15BD
:10166600740883120313C1007308C0004008B00059
:101676004108B100B201B3013008BC0731080311BB
:101686000318013E0319482BBD073208031103183E
:10169600013E03194F2BBE07330803110318013E01
:1016A6000319562BBF072A08B0003008F3002E088E
:1016B6000A128A11CE270A128A1574088312031396
:1016C600C1007308C0004008B0004108B100B20173
:1016D600B30108300310B00DB10DB20DB30DFF3ECE
:1016E600031D6D2B3008BC07310803110318013E9A
:1016F60003197E2BBD07320803110318013E031997
:10170600852BBE07330803110318013E03198C2BE2
:10171600BF073608B0003708B1003808B2003908EC
:10172600B30018300310B30CB20CB10CB00CFF3E72
:10173600031D952B3008BC07310803110318013E21
:101746000319A62BBD07320803110318013E03191E
:10175600AD2BBE07330803110318013E0319B42B42
:10176600BF070830B0000310B60DB70DB80DB90DA0
:10177600B00BB62B3B083A07B000B101B10D3008EB
:10178600823EC00031080318013EFF3EC100E82B2F
:101796000130B0000310BC0DBD0DBE0DBF0DB00B6A
:1017A600CD2BB91FD72BD82BD92B3C140130B00029
:1017B6000310B60DB70DB80DB90DB00BDB2BFF300E
:1017C600C0070318C10AFF30C107BE1FEB2BEC2B65
:1017D600CB2BBA01B91FF02BF12B0D2CFF303605A0
:1017E600B000FF303705B100FF303805B2007F305A
:1017F6003905B30033083204310430040319042CCC
:10180600052C082CBA01BA0A0D2C3C1C0B2C0C2CEE
:101816000D2C052C3A080319112C122C432C0130DF
:10182600BC07003003180130BD0700300318013033
:10183600BE07003003180130BF073F1C232C242CA1
:10184600432C3C08B0003D08B1003E08B2003F08FA
:10185600B3000130B400330DB30CB20CB10CB00CB4
:10186600B40B2E2C3308BF003208BE003108BD0071
:101876003008BC000130C0070318C10A0030C10798
:101886004108803AFF0080307F02031D4C2CFF3058
:101896004002031C4F2C502C5B2C7F308312031309
:1018A600BF008030BE000030BD000030BC00902C70
:1018B600831203134108803AFF0080307F02031D24
:1018C600662C013040020318692C6A2C762C0030F5
:1018D60083120313BF000030BE000030BD0000308D
:1018E600BC00B501902C831203134008B0003008E9
:1018F600BB00FF30BC05FF30BD057F30BE050030A4
:10190600BF053B1C872C882C892CBE173B08B000D2
:101916000310300CB1003108BF003508B0003008A4
:10192600BF043F08AB003E08AA003D08A9003C08DA
:10193600A800080083120313D400D41FA32CA42CE0
:10194600532ED409D40A5408803A123E031CAC2CF8
:10195600AD2C972D0A30A0000030A1005408F500E8
:10196600F601F51BF6036430F3000030F4000A12AA
:101976008A15E3200A128A15740883120313A3003A
:101986007308A2000A168A15BC240A128A15831245
:1019960003132008C60001300310C60DFF3E031DC9
:1019A600CF2C0310460D593E84000A128A150A20D0
:1019B6000A128A15C7000A128A150A200A128A15FF
:1019C600C8000A128A150A200A128A15C9000A12C4
:1019D6008A150A200A128A15CA004A08AB00490865
:1019E600AA004808A9004708A8006430A0000030F3
:1019F600A1005408A200A301A21BA3030A168A157C
:101A0600BC240A128A15831203132008CB00013066
:101A16000310CB0DFF3E031D0B2D03104B0D7D3E1A
:101A260084000A128A150A200A128A15CC000A12A4
:101A36008A150A200A128A15CD000A128A150A206A
:101A46000A128A15CE000A128A150A200A128A1567
:101A5600CF004F08AF004E08AE004D08AD004C0851
:101A6600AC000A128A153C210A128A158312031346
:101A76002B08D3002A08D2002908D1002808D00054
:101A86000A30F3000030F4005408F500F601F51BA7
:101A9600F6030A128A15E3200A128A1573088312BE
:101AA6000313C60001300310C60DFF3E031D562D5D
:101AB6000310460D353E84000A128A150A200A12C2
:101AC6008A15C7000A128A150A200A128A15C80042
:101AD6000A128A150A200A128A15C9000A128A15DC
:101AE6000A200A128A15CA004A08AB004908AA0049
:101AF6004808A9004708A8005308AF005208AE00DE
:101B06005108AD005008AC000A128A153C210A1291
:101B16008A15831203132B08C5002A08C400290856
:101B2600C3002808C200FF2F5408803A753E031CE4
:101B36009D2D9E2D262E0A30F3000030F400540809
:101B4600F500F601F51BF6030A128A15E3200A12C0
:101B56008A15730883120313C60001300310C60DDD
:101B6600FF3E031DB12D0310460D353E84000A12BB
:101B76008A150A200A128A15C7000A128A150A202F
:101B86000A128A15C8000A128A150A200A128A152C
:101B9600C9000A128A150A200A128A15CA004A08BA
:101BA600AB004908AA004808A9004708A8000A305F
:101BB600A0000030A1005408A200A301A21BA303A9
:101BC6000A168A15BC240A128A15831203132008E2
:101BD600CB0001300310CB0DFF3E031DED2D03108E
:101BE6004B0D593E84000A128A150A200A128A15DC
:101BF600CC000A128A150A200A128A15CD000A128A
:101C06008A150A200A128A15CE000A128A150A2097
:101C16000A128A15CF004F08AF004E08AE004D08D5
:101C2600AD004C08AC000A128A153C210A128A152E
:101C3600831203132B08C5002A08C4002908C30011
:101C46002808C200FF2F5408C60001300310C60D35
:101C5600FF3E031D292E0310460D353E84000A1251
:101C66008A150A200A128A15C7000A128A150A203E
:101C76000A128A15C8000A128A150A200A128A153B
:101C8600C9000A128A150A200A128A15CA004A08C9
:101C9600C5004908C4004808C3004708C200FF2F12
:101CA6005408803A123E031C592E5A2E442F0A30ED
:101CB600A0000030A1005408F500F601F51BF6035C
:101CC6006430F3000030F4000A128A15E3200A1289
:101CD6008A15740883120313A3007308A2000A1658
:101CE6008A15BC240A128A15831203132008C6001B
:101CF60001300310C60DFF3E031D7C2E0310460D5A
:101D0600253E84000A128A150A200A128A15C7007F
:101D16000A128A150A200A128A15C8000A128A159A
:101D26000A200A128A15C9000A128A150A200A12FE
:101D36008A15CA004A08AB004908AA004808A90043
:101D46004708A8006430A0000030A1005408A20093
:101D5600A301A21BA3030A168A15BC240A128A151C
:101D6600831203132008CB0001300310CB0DFF3E76
:101D7600031DB82E03104B0D493E84000A128A1526
:101D86000A200A128A15CC000A128A150A200A129B
:101D96008A15CD000A128A150A200A128A15CE0063
:101DA6000A128A150A200A128A15CF004F08AF00B8
:101DB6004E08AE004D08AD004C08AC000A128A155C
:101DC6003C210A128A15831203132B08D3002A0812
:101DD600D2002908D1002808D0000A30F3000030CC
:101DE600F4005408F500F601F51BF6030A128A15ED
:101DF600E3200A128A15730883120313C600013002
:101E06000310C60DFF3E031D032F0310460D013EB2
:101E160084000A128A150A200A128A15C7000A12B5
:101E26008A150A200A128A15C8000A128A150A207B
:101E36000A128A15C9000A128A150A200A128A1578
:101E4600CA004A08AB004908AA004808A900470882
:101E5600A8005308AF005208AE005108AD00500864
:101E6600AC000A128A153C210A128A158312031342
:101E76002B08C5002A08C4002908C3002808C20088
:101E8600FF2F5408803A753E031C4A2F4B2FD32F41
:101E96000A30F3000030F4005408F500F601F51B93
:101EA600F6030A128A15E3200A128A1573088312AA
:101EB6000313C60001300310C60DFF3E031D5E2F3F
:101EC6000310460D013E84000A128A150A200A12E2
:101ED6008A15C7000A128A150A200A128A15C8002E
:101EE6000A128A150A200A128A15C9000A128A15C8
:101EF6000A200A128A15CA004A08AB004908AA0035
:101F06004808A9004708A8000A30A0000030A10030
:101F16005408A200A301A21BA3030A168A15BC2417
:101F26000A128A15831203132008CB00013003100E
:101F3600CB0DFF3E031D9A2F03104B0D253E84004B
:101F46000A128A150A200A128A15CC000A128A1564
:101F56000A200A128A15CD000A128A150A200A12C8
:101F66008A15CE000A128A150A200A128A15CF008F
:101F76004F08AF004E08AE004D08AD004C08AC004F
:101F86000A128A153C210A128A15831203132B089A
:101F9600C5002A08C4002908C3002808C200FF2F6C
:101FA6005408C60001300310C60DFF3E031DD62F90
:101FB6000310460D013E84000A128A150A200A12F1
:101FC6008A15C7000A128A150A200A128A15C8003D
:101FD6000A128A150A200A128A15C9000A128A15D7
:101FE6000A200A128A15CA004A08C5004908C40010
:0A1FF6004808C3004708C2000800B5
:10200400F30073088312031388000800031083127B
:102014000313570D580DD9005908DF005F08031D3D
:10202400142815281E280030D8000030D7000030AE
:10203400D6000030D50083285508D9005608DA00A8
:102044005708DB005808DC001F300310DC0CDB0CE5
:10205400DA0CD90CFF3E031D27285908DD005D0862
:10206400DE00D717FF30D505FF30D605FF30D70582
:102074000030D8059630DF02DF1F412842285C2853
:102084005F08803A973E0318482849284A281528AB
:1020940001300310D80CD70CD60CD50CFF3E031D11
:1020A4004B280130D9005908DF07031D5A285B2843
:1020B4004A28732820305F02031C612862286E2896
:1020C40015280130D9000310D50DD60DD70DD80D24
:1020D400D90B65280130DF025F08031D72287328BD
:1020E40063285E080319772878288328D509D60938
:1020F400D709D809D50A0319D60A0319D70A031927
:10210400D80A08000A168A1512230A168A110A1612
:102114008A1545220A168A110A168A15FC200A16FF
:102124008A11F701F70A01300A168A1582210A1664
:102134008A11B530F6008030F7000A168A15862217
:102144000A168A118316031359080A168A150522DA
:102154000A168A1183120313450883160313D30046
:1021640083120313440883160313D2008312031348
:10217400430883160313D100831203134208831602
:102184000313D00058080A168A1505220A168A1164
:1021940083120313450883160313CF00831203131A
:1021A400440883160313CE008312031343088316D3
:1021B4000313CD0083120313420883160313CC00C8
:1021C400F701F70A02300A168A1582210A168A11C3
:1021D400DB3083160313A8000030A9009C30C9002B
:1021E4004908AA005308AE005208AD005108AC00DB
:1021F4005008AB000A168A11FB240A168A11DB3038
:10220400F6000030F7000A168A1586220A168A118B
:10221400073083160313C9004908F70002300A1671
:102224008A1582210A168A11DB3083160313A8004B
:102234000030A9009C30C9004908AA004F08AE002C
:102244004E08AD004D08AC004C08AB000A168A11CC
:10225400FB240A168A11DB30F6000030F7000A1658
:102264008A1586220A168A110E3083160313C900B2
:102274004908F70002300A168A1582210A168A11C3
:10228400DB3083160313A8000030A900C530C90051
:102294004908AA005708AE005608AD005508AC001E
:1022A4005408AB000A168A11FB240A168A11DB3083
:1022B400F6000030F7000A168A1586220A168A11DB
:1022C400CC3083160313A8000130A9009130C90053
:1022D4004908AA005308AE005208AD005108AC00EA
:1022E4005008AB000A168A11FB240A168A11AE3074
:1022F40083160313A8000130A900A330C9004908BC
:10230400AA004F08AE004E08AD004D08AC004C08C2
:10231400AB000A168A11FB240A168A112B30831289
:1023240003136F06031D97299829D9293F30D90033
:102334008030D8000030D7000030D6008316031355
:10234400570883120313DD00831603135608831200
:102354000313DC0083160313550883120313DB00F5
:1023640083160313540883120313DA000A168A111E
:1023740073220A168A11831203135908831603134E
:10238400D70083120313580883160313D60083124D
:102394000313570883160313D50083120313560837
:1023A40083160313D40083120313EF01012A2D3083
:1023B4006F06031DDE29DF29012A3F30831603132C
:1023C400A3008030A2000030A1000030A000570814
:1023D400A7005608A6005508A5005408A4000A162C
:1023E4008A15AE230A168A11831603132308D7000D
:1023F4002208D6002108D5002008D400D5290C30A5
:102404009900CC300A168A1561210A168A110D30FA
:10241400831203139900AE300A168A1561210A1635
:102424008A110D30831203139900023083160313AB
:10243400CB000430CA00B930C900C90B1F2ACA0B2B
:102444001F2ACB0B1F2A262A831203139F182B2A19
:102454002C2A93281F0C83160313C900490C0F3927
:10246400003A031D362A372A492A00300A128A15EF
:10247400DB200A168A1183160313C9004908D90000
:10248400831203131F08C33904389F00652A83127B
:1024940003131F0C83160313C900490C0F39013AA7
:1024A400031D552A562A652A00300A128A15DB2094
:1024B4000A168A1183160313C9004908D800C330C9
:1024C400831203139F05203083160313C900C90B1D
:1024D400692A0000831203139F1493280A128A1195
:1024E4000C288312031359088039DE005E08E600C5
:1024F4005908DE005E07DF005F08E800D81F832A62
:10250400842A852A681468080319892A8A2A9A2A37
:10251400680A031D8E2A8F2A972A0030D9000030BA
:10252400D8000030D7000030D600D817D901A22A2D
:102534000030D9000030D8000030D7000030D60079
:102544005D088039DE005E08E70067086606031947
:10255400AC2AAD2AAE2A66175D08DE005E07DF00EE
:102564005F08E700DC1FB72AB82AB92A671467088E
:102574000319BD2ABE2ACE2A670A031DC22AC32A0A
:10258400CB2A0030DD000030DC000030DB000030FE
:10259400DA00DC17DD01D62A0030DD000030DC0073
:1025A4000030DB000030DA00680867020318DB2A19
:1025B400DC2A202B661FDF2AE02AE42A8030DE0092
:1025C4005E08E6066808DE005E08E9006708DE00CB
:1025D4005E08E8006908DE005E08E7005608DE00D1
:1025E4005E08E9005A08DE005E08D6006908DE00CD
:1025F4005E08DA005708DE005E08E9005B08DE00CA
:102604005E08D7006908DE005E08DB005808DE00BB
:102614005E08E9005C08DE005E08D8006908DE0098
:102624005E08DC005908DE005E08E9005D08DE0093
:102634005E08D9006908DE005E08DD00E90167086C
:10264400DE00DF015F08E10068085E02E000031CB1
:10265400E1036108803AFF0080307F02031D342BC0
:102664001A306002031C372B382B752B831203138B
:102674005908580457045604031D412B432B0130B9
:10268400442B0030DE005E08E9000030D900003041
:10269400D8000030D7000030D6006708DE005E089E
:1026A400E8007D2B691C572B582B612B6908DE0031
:1026B40003105E0C0138DF005F08E900632B031090
:1026C400E90C561C662B672B682BE9170130DE00DA
:1026D400590DD90CD80CD70CD60CDE0B6A2B013053
:1026E400DE005E08E8078312031367086802031C10
:1026F4007C2B7D2B542B661B802B812BCC2B6808C9
:10270400031D852B862B8F2B0030D9000030D80079
:102714000030D7000030D600FA2C5A08D6075B08E0
:1027240003110318013E0319982BD7075C08031102
:102734000318013E03199F2BD8075D0803110318E2
:10274400013E0319A62BD907591CA92BAA2B802CAF
:10275400691CAD2BAE2BB72B6908DE0003105E0C91
:102764000138DF005F08E900B92B0310E90C561C9F
:10277400BC2BBD2BBE2BE9170130DE00590DD90C43
:10278400D80CD70CD60CDE0BC02B0130DE005E0853
:10279400E807802C5908803AFF005D08803A7F02E0
:1027A400031DDE2B5C085802031DDE2B5B08570259
:1027B400031DDE2B5A0856020318E12BE22B3A2C98
:1027C400FF30DE00FF30DF00FF30E000FF30E100CB
:1027D4005A08E2005B08E3005C08E4005D08E500D9
:1027E4005608E2025708031C570FF92BFA2BE30291
:1027F4005808031C580FFF2B002CE4025908031C33
:10280400590F052C062CE5026208DE07630803183D
:10281400630F0D2C0E2CDF0764080318640F132CB0
:10282400142CE00765080318650AE1076108D9005C
:102834006008D8005F08D7005E08D6008030DE004C
:102844005E08E606E909E90A6908031D2A2C2B2C0F
:10285400482C0130D607003003180130D707003068
:1028640003180130D807003003180130D907482C69
:102874005A08D6025B08031C5B0FD7025C08031CD2
:102884005C0FD8025D08031C5D0FD9025908580477
:1028940057045604031D4F2C502C7C2C6908031D2F
:1028A400542C552C7C2C0030D9000030D80000303A
:1028B400D7000030D600FA2C0130DE000310D60D0C
:1028C400D70DD80DD90DDE0B602CE91F6A2C6B2CAB
:1028D4006C2C5614691C6F2C702C732C0314E90D8A
:1028E400752C0310E90D68080319792C7A2C7C2CBB
:1028F4000130E802D81F7F2C802C5E2CE701E91FF1
:10290400842C852C932C69087F3903198A2C8B2CF1
:102914008E2CE701E70A932C561C912C922C932CB5
:102924008B2C67080319972C982CCC2C0130D607D4
:10293400003003180130D707003003180130D807DE
:10294400003003180130D907591CA92CAA2CCC2C0F
:102954005608DE005708DF005808E0005908E10077
:102964000130E200610DE10CE00CDF0CDE0CE20B47
:10297400B42C6108D9006008D8005F08D7005E084D
:10298400D600680A0319C72CC82CCC2C0130DE00F1
:102994005E08E807680A0319D02CD12CD62C6808E5
:1029A400031DD52CD62CE42C0030D9000030D800DF
:1029B4000030D7000030D6006808031DE22CE32C59
:1029C400E42CE601681CE72CE82CEA2CD817EE2C42
:1029D4007F30DE005E08D8056808DE0003105E0C58
:1029E400DF005F08D900E61FF82CF92CFA2CD91760
:1029F4000800AB3083120313EA006A08831603133A
:102A0400B3000A128A119E2D2530480603190B2D96
:102A14000C2D242D480883120313EA008316031394
:102A2400280884008317291C8313831203136A085C
:102A34008000013083160313A8070318A90A003085
:102A4400A907032DBA01BB01B801B9012A08840002
:102A54000A128A150A200A168A110A168A151A21D8
:102A64000A168A11031C372D382D842D831603135F
:102A7400BA01BB010A30F3000030F40083160313DB
:102A84003B08F6003A08F5000A168A15A6210A162C
:102A94008A11740883160313BB007308BA002A084A
:102AA40084000A128A150A200A168A11D03E83125B
:102AB4000313EA00FF3003180030EB006A088316A2
:102AC4000313BA070318BB0A831203136B08831694
:102AD4000313BB07013083120313EA006A08831649
:102AE4000313AA072A0884000A128A150A200A1660
:102AF4008A110A168A151A210A168A110318832DB7
:102B0400842D3C2D831603132A0884000A128A1587
:102B14000A200A168A112E3A031D912D922DE72DB3
:102B24003917013083120313EA006A08831603136A
:102B3400AA07C601C701D62D0A30F3000030F400FD
:102B4400831603134708F6004608F5000A168A158B
:102B5400A6210A168A11740883160313C700730882
:102B6400C6002A0884000A128A150A200A168A1145
:102B7400D03E83120313EA00FF3003180030EB0049
:102B84006A0883160313C6070318C70A83120313BC
:102B94006B0883160313C707013083120313EA007B
:102BA4006A0883160313AA072A0884000A128A15DE
:102BB4000A200A168A110A168A151A210A168A1177
:102BC4000318E52DE62D9E2DEF2DC601C7013916FC
:102BD400EF2D8316031339150D2E013083160313BD
:102BE400AA07FF302A0784000A128A150A200A1647
:102BF4008A11C80083120313EA00EB016B08003A40
:102C04000319052E032D6A08003A0319FD2F663AAD
:102C14000319EB2D032D0030380583120313EA004A
:102C2400073083160313390583120313EB006A0874
:102C34006B0403191E2E212E0A128A11952C831659
:102C44000313391E262E272E2B2E0630C6000030E5
:102C5400C7003308840083130008C200840A0008F4
:102C6400C300840A0008C400840A0008C5000430B4
:102C740083120313EA006A0883160313B307450893
:102C8400F6004408F5004308F4004208F30000305D
:102C9400FA000030F9000030F8000030F7000A169E
:102CA4008A1525250A168A110318592E5A2E772EAD
:102CB400831603134508F6004408F5004308F4009E
:102CC4004208F3000A168A15F1200A168A117608BA
:102CD40083160313C5007508C4007408C300730881
:102CE400C2000330B8040030B90483160313C001D2
:102CF400C1014508F6004408F5004308F400420801
:102D0400F3000030FA000030F9000030F800003021
:102D1400F7000A168A155E230A168A110318932EE1
:102D2400942E942F031083160313440D450D823EF5
:102D3400C000FF3003180030C100FF30C007031883
:102D4400C10AFF30C1070330F3000030F40041082A
:102D5400F6004008F5000A168A15A6210A168A11FB
:102D6400740883160313C1007308C0000A30831269
:102D74000313A0000030A10083160313410883123B
:102D84000313A30083160313400883120313A20042
:102D94000A168A15BC240A168A1183120313210801
:102DA40083160313C100831203132008831603132D
:102DB400C000C11FDE2EDF2EE52EFF30C007031832
:102DC400C10AFF30C1074003FF3A0A128A159D2445
:102DD4000A168A1183120313450883160313BF00CE
:102DE40083120313440883160313BE0083120313D0
:102DF400430883160313BD0083120313420883168A
:102E04000313BC00450883120313AB00831603139A
:102E1400440883120313AA0083160313430883127E
:102E24000313A90083160313420883120313A80093
:102E3400831603133F0883120313AF00831603138F
:102E44003E0883120313AE00831603133D08831256
:102E54000313AD00831603133C0883120313AC0061
:102E64000A128A153C210A168A11831203132B08AD
:102E740083160313BF00831203132A088316031354
:102E8400BE0083120313290883160313BD008312A3
:102E94000313280883160313BC003F08F6003E08FA
:102EA400F5003D08F4003C08F3003F30FA008030A0
:102EB400F9000030F8000030F7000A168A152525BD
:102EC4000A168A110318672F682F712FFF30831693
:102ED4000313C0070318C10AFF30C107942F8316D8
:102EE40003133F08F6003E08F5003D08F4003C08D3
:102EF400F3004130FA002030F9000030F8000030CF
:102F0400F7000A168A1525250A168A11031C8B2F29
:102F14008C2F942F013083160313C0070318C10AA2
:102F24000030C107831603134708803AFF0080303E
:102F34007F02031D9F2F0D3046020318A22FA32FDB
:102F4400EA2F8316031346080A128A11C1250A16AA
:102F54008A11831203134508D9004408D800430892
:102F6400D7004208D60083160313450883120313BF
:102F7400DD0083160313440883120313DC00831655
:102F84000313430883120313DB008316031342085D
:102F940083120313DA000A168A1173220A168A119D
:102FA40083120313590883160313C50083120313F2
:102FB400580883160313C400831203135708831697
:102FC4000313C30083120313560883160313C200AA
:102FD400831603134108803AFF0080307F02031DEB
:102FE400F52F0A3040020318FA2F0A128A112828F2
:0C2FF4000A128A1179280A128A11B82DDD
:1031CE00F300831203130C1EED28EE28E828730873
:1031DE009900080076087504740473040319F8281E
:1031EE00F928FB288030F606080000300A168A15EA
:1031FE002C210A168A1501300A168A152C210A1658
:10320E008A150800831203138C1E0E290F29132909
:10321E001A08F0007008EF0072088A00710E830021
:10322E00FE0E7E0E0900F400F3013A30740203180C
:10323E00212922292A2930307402031C2729282902
:10324E002A29F301F30A730C0800F6008312031304
:10325E00071276080A168A1102200A168A15831298
:10326E00031387160B30F5006230F400F40B3D2982
:10327E00F50B3D2900008312031387120800F50099
:10328E0083120313071675080A168A1102200A16EE
:10329E008A158312031387161A30F400F40B55297E
:1032AE0000008312031387121A30F400F40B5D2909
:1032BE0000000800F700F501F6017629750877077A
:1032CE00F4007408840000080A168A15E7200A160E
:1032DE008A150130F5070318F60A0030F60775084F
:1032EE007707F4007408840083170008031D8029F3
:1032FE00812965290800F9007903031D872988298A
:10330E00942977087F3EF8007808FA007A080A16A2
:10331E008A152C210A168A15A52902307906031D55
:10332E0099299A29A5297708BF3EF8007808FA004E
:10333E007A080A168A152C210A168A150800F70132
:10334E00F801731CAB29AC29B2297508F7070318CD
:10335E00F80A7608F80701300310F50DF60DFF3E5A
:10336E00031DB32901300310F40CF30CFF3E031DB3
:10337E00BA2973087404031DC529C629A82978081B
:10338E00F4007708F3000800730874040319D029B9
:10339E00D129002AF801F80ADF2901300310F30DB4
:1033AE00F40DFF3E031DD5290130F7007708F8070D
:1033BE00F41FE229E329D42974087602031DE929B2
:1033CE0073087502031CEC29ED29F3297308F50225
:1033DE007408031CF603F60201300310F40CF30C10
:1033EE00FF3E031DF4290130F802031DFF29002AB8
:1033FE00E3297608F4007508F3000800831203131E
:10340E00CE003C30AB00A030AA009030A9002E3088
:10341E00A8004E08C600C701C801C9014908F60038
:10342E004808F5004708F4004608F30001300A1674
:10343E008A15C9250A168A15760883120313AF005A
:10344E007508AE007408AD007308AC000A128A1538
:10345E003C210A168A15831203132B08CD002A0865
:10346E00CC002908CB002808CA004D08C5004C081E
:10347E00C4004B08C3004A08C200080000300A16F8
:10348E008A1102200A168A153430F800F130F7003E
:10349E00F70B4F2AF80B4F2A542A3F300A168A157B
:1034AE002C210A168A151A30F800F830F700F70B9F
:1034BE005E2AF80B5E2A00003F300A168A152C2170
:1034CE000A168A158530F700F70B6B2A3F300A165D
:1034DE008A152C210A168A1538300A168A152C21BF
:1034EE000A168A150C300A168A152C210A168A1508
:1034FE0006300A168A152C210A168A150800831220
:10350E000313A001A101AF2A20087607F90077085E
:10351E00F8000318F80AA01F952AF8037808FA0095
:10352E007A0883120313FF00790884000A128A15A1
:10353E0000200A168A150A168A1546210A168A15B9
:10354E00013083120313A0070318A10A0030A1074C
:10355E0020087607F9007708F8000318F80AA01F6C
:10356E00B92AF8037808FA007A0883120313FF00C9
:10357E00790884000A128A1500200A168A15003A64
:10358E00031DCA2ACB2A8B2A080083120313A40117
:10359E00A501200821040319D52AD62A0D2BA60130
:1035AE00A60AE42A01300310A00DA10DFF3E031D53
:1035BE00DA2A0130F9007908A607A11FE72AE82ABE
:1035CE00D92A01300310A40DA50DFF3E031DE92AD3
:1035DE0021082302031DF52A20082202031CF82AC3
:1035EE00F92A002B2008A2022108031CA303A30220
:1035FE00241401300310A10CA00CFF3E031D012B5F
:10360E000130A602031D0C2B0D2BE82A2508A10064
:10361E002408A000080003308316031788008901D0
:10362E0003308316031385008601803087008801DE
:10363E00890183120313860187018801890183168C
:10364E0003130F178F160F160F140B178C168312EA
:10365E0003138C128B171F14831603139F138312DD
:10366E0003139F14831603131F129F12C33083126A
:10367E0003139F051F083F3940389F002130F30088
:10368E00F30B472B83160313181218118316031707
:10369E00871533308316031399009A01831203138F
:1036AE00981718131816831603139816080000306F
:1036BE00730583120313A00000307405A10080303F
:1036CE007505A2007F307605A3002308220421048D
:1036DE002004031D732B742B7C2B0030F60000305E
:1036EE00F5000030F4000030F30000307705A00044
:1036FE0000307805A10080307905A2007F307A0570
:10370E00A3002308220421042004031D8F2B902BD9
:10371E00982B0030FA000030F9000030F80000302D
:10372E00F7007A087606031DA62B79087506031D89
:10373E00A62B78087406031DA62B770873060319AB
:10374E00A92BAA2BAC2B0310AD2B03140800803031
:10375E0083160313A306270883120313D9008316B7
:10376E000313260883120313D800831603132508A8
:10377E0083120313D7008316031324088312031333
:10378E00D60083160313230883120313DD0083165A
:10379E000313220883120313DC008316031321087C
:1037AE0083120313DB008316031320088312031303
:1037BE00DA000A168A1173220A168A158312031367
:1037CE00590883160313A300831203135808831694
:1037DE000313A20083120313570883160313A100C9
:1037EE0083120313560883160313A00008007608ED
:1037FE007504740473040319052C062C4B2C8312C8
:10380E000313A101A10A182C0130A0000310F30D1F
:10381E00F40DF50DF60DA00B0D2C0130A0002008B7
:10382E00A107F61F1B2C1C2C0B2C76087A02031DED
:10383E002A2C75087902031D2A2C74087802031DA0
:10384E002A2C73087702031C2D2C2E2C3C2C73086B
:10385E00F7027408031C740FF8027508031C750F29
:10386E00F9027608031C760FFA0201300310F60CEB
:10387E00F50CF40CF30CFF3E031D3D2C0130A102A0
:10388E00031D4A2C4B2C1C2C7A08F6007908F500E7
:10389E007808F4007708F300080000308312031351
:1038AE00A4000030A3000030A2000030A100760872
:1038BE007504740473040319652C662CB32CA501CE
:1038CE00A50A762C0130A0000310F30DF40DF50DB2
:1038DE00F60DA00B6B2C0130A0002008A507F61FDB
:1038EE00792C7A2C692C0130A0000310A10DA20DA9
:1038FE00A30DA40DA00B7C2C76087A02031D912C2F
:10390E0075087902031D912C74087802031D912C01
:10391E0073087702031C942C952CA42C7308F702C1
:10392E007408031C740FF8027508031C750FF90256
:10393E007608031C760FFA02211401300310F60CE0
:10394E00F50CF40CF30CFF3E031DA52C0130A50263
:10395E00031DB22CB32C7A2C2408F6002308F50094
:10396E002208F4002108F300080083120313A501B6
:10397E00A11FC22CC32CCA2CA009A109A00A03198D
:10398E00A10AA501A50AA31FCD2CCE2CD72CA209C6
:10399E00A309A20A0319A30A0130FA007A08A506A0
:1039AE00A601A701200821040319DE2CDF2C162DF9
:1039BE00A401A40AED2C01300310A00DA10DFF3EB1
:1039CE00031DE32C0130FA007A08A407A11FF02C86
:1039DE00F12CE22C01300310A60DA70DFF3E031DA6
:1039EE00F22C21082302031DFE2C20082202031CA8
:1039FE00012D022D092D2008A2022108031CA3036C
:103A0E00A302261401300310A10CA00CFF3E031DCF
:103A1E000A2D0130A402031D152D162DF12C25089B
:103A2E0003191A2D1B2D202DA609A709A60A031965
:103A3E00A70A2708A1002608A00008000030730579
:103A4E0083120313A00000307405A10080307505A9
:103A5E00A2007F307605A30023082204210420044F
:103A6E00031D3A2D3B2D432D0030F6000030F5009E
:103A7E000030F4000030F30000307705A000003075
:103A8E007805A10080307905A2007F307A05A30069
:103A9E002308220421042004031D562D572D5F2DCB
:103AAE000030FA000030F9000030F8000030F70066
:103ABE00F61F622D632D872D0030A0000030A1006F
:103ACE000030A2008030A3007308A0027408031C0B
:103ADE00740F722D732DA1027508031C750F782DAE
:103AEE00792DA2027608031C760F7E2D7F2DA30260
:103AFE002308F6002208F5002108F4002008F30040
:103B0E00FA1F8A2D8B2DAF2D0030A0000030A100A2
:103B1E000030A2008030A3007708A0027808031CB2
:103B2E00780F9A2D9B2DA1027908031C790FA02DD9
:103B3E00A12DA2027A08031C7A0FA62DA72DA3028F
:103B4E002308FA002208F9002108F8002008F700DF
:103B5E008030F6068030FA067A087602031DC12DF3
:103B6E0079087502031DC12D78087402031DC12D3D
:103B7E00770873020318C42DC52DC72D0310C82D49
:103B8E000314080083120313A00020080319D02D7C
:103B9E00D12DE52DF61FD42DD52DE52D7309A200BF
:103BAE007409A3007509A4007609A500A20A0319D9
:103BBE00A30A0319A40A0319A50AED2D7608A50078
:103BCE007508A4007408A3007308A2007608750493
:103BDE0074047304031DF42DF52DFE2D0030F60034
:103BEE000030F5000030F4000030F300842E9630E3
:103BFE00F7007708A100102E0130F7007708A10713
:103C0E0001300310A50CA40CA30CA20CFF3E031D47
:103C1E00082EFE302505031D152E162E032E322ED0
:103C2E000130F7007708A1070130A2070030031812
:103C3E000130A307003003180130A4070030031829
:103C4E000130A50701300310A50CA40CA30CA20C87
:103C5E00FF3E031D2A2EFF302505031D372E382E5D
:103C6E00172E442E0130A1020130F7000310A20DD1
:103C7E00A30DA40DA50DF70B3D2EA41B472E482E0C
:103C8E004E2E0230210203184D2E4E2E392E2118A3
:103C9E00512E522E5A2EFF30A205FF30A3057F3033
:103CAE00A405FF30A5050310A10C2108F700F801AB
:103CBE00F901FA0118300310F70DF80DF90DFA0D90
:103CCE00FF3E031D622E7708A2047808A30479082C
:103CDE00A4047A08A50420080319762E772E7C2ECC
:103CEE00F61F7A2E7B2E7C2EA5172508F6002408AB
:103CFE00F5002308F4002208F3000800730883126D
:103D0E000313A0007408A1007508A2000310210D72
:103D1E00220DA3002308A9002908031D972E982E13
:103D2E00A12E0030F6000030F5000030F400003017
:103D3E00F300412F7708A0007808A1007908A200AF
:103D4E000310210D220DA3002308A8002808031D2F
:103D5E00B12EB22EB32E982EF417FF30F305FF308E
:103D6E00F4050030F505F817FF30F705FF30F805BC
:103D7E000030F9050030A7000030A6000030A50085
:103D8E000030A4007F30A90298302807A000200838
:103D9E00A9021830A0002008A8000130A0000310CE
:103DAE00A40DA50DA60DA70DA00BD62E7908750294
:103DBE00031DE72E78087402031DE72E77087302A1
:103DCE00031CEA2EEB2EF62E7708F3027808031C5E
:103DDE00780FF4027908031C790AF50224140130D5
:103DEE000310F30DF40DF50DFF3E031DF72E0130FC
:103DFE00A802031D032F042FD42EA91F072F082F4F
:103E0E00222F2908803A973E03180E2F0F2F102FBE
:103E1E00982E01300310A70CA60CA50CA40CFF3E87
:103E2E00031D112F0130A0002008A907031D202F0C
:103E3E00212F102F392F18302902031C272F282F3E
:103E4E00342F982E0130A0000310A40DA50DA60D41
:103E5E00A70DA00B2B2F0130A9022908031D382F07
:103E6E00392F292F2708F6002608F5002508F4001B
:103E7E002408F30008000310750D760D831203134A
:103E8E00A0002008A6002608031D4E2F4F2F582FE6
:103E9E000030F6000030F5000030F4000030F30082
:103EAE00FF2F0310790D7A0DA0002008A50025081C
:103EBE00031D622F632F642F4F2FF517FF30F3056D
:103ECE00FF30F405FF30F5050030F605F917FF3029
:103EDE00F705FF30F805FF30F9050030FA05003020
:103EEE00A4000030A3000030A2000030A1007F30FB
:103EFE00A602A0302507A0002008A6022030A000B0
:103F0E002008A5000130A0000310A10DA20DA30DE5
:103F1E00A40DA00B8B2F7A087602031DA02F790813
:103F2E007502031DA02F78087402031DA02F7708B9
:103F3E007302031CA32FA42FB32F7708F302780864
:103F4E00031C780FF4027908031C790FF5027A0826
:103F5E00031C7A0FF60221140130A0000310F30D9A
:103F6E00F40DF50DF60DA00BB52F0130A502031DB6
:103F7E00C12FC22F892FA61FC52FC62FE02F2608AF
:103F8E00803A9F3E0318CC2FCD2FCE2F4F2F0130CE
:103F9E000310A40CA30CA20CA10CFF3E031DCF2FEB
:103FAE000130A0002008A607031DDE2FDF2FCE2F25
:103FBE00F72F20302602031CE52FE62FF22F4F2F6E
:103FCE000130A0000310A10DA20DA30DA40DA00B96
:103FDE00E92F0130A6022608031DF62FF72FE72F33
:103FEE002408F6002308F5002208F4002108F30047
:023FFE000800B9
:04400E00D530FF3F6B
:00000001FF
