:020000040000FA
:060000000A128A110C280F
:10000800FE00030EF7000A08F8000A128A11B32846
:100018000A128A110F28F001F101F201F301F4012B
:10002800F50183120313AD01AE0183010A128A118F
:100038001D280A128A1191210A128A110A128A119C
:10004800B3210A128A110A128A1165210A128A1129
:10005800003A031930283128A22873300A128A116D
:1000680012210A128A11003A031D3B283C286828ED
:1000780072300A128A1112210A128A11003A031DDB
:1000880046284728682875300A128A1112210A1250
:100098008A11003A031D51285228682874300A1220
:1000A8008A1112210A128A11003A031D5C285D2860
:1000B800682871300A128A1112210A128A11003A2C
:1000C8000319672868286C28831203130614A528C7
:1000D8007308720783120313A300A401A40D750803
:1000E8002307A5000030031801302407A600740870
:1000F8002507A7000030031801302607A800FF30A5
:100108002705A90000302805AA007108AB00AC013A
:100118002A082C06031D922829082B06031D95285A
:100128009628A0280610861006117508A300230833
:10013800F00070088800A5288614A52883120313E8
:10014800061519307002031CAA28AB28AD2809141B
:10015800AE280910101022280A128A110C288312BE
:1001680003138C1DB828B9280B291412141BBD2899
:10017800BE28C228941FC128C228C9281308F6001F
:100188007608AD0014139413141683160313941AE7
:10019800CE28CF28E7281419D228D328E728831295
:1001A80003131308F6007608AD008C111416831695
:1001B8000313141CE028E128DB28A630F600F60B10
:1001C800E32800000829941AEA28EB280829141DB6
:1001D800EE28EF280829831203131308F60076087F
:1001E800AD008316031314107008831203139300D1
:1001F8001416A630F600F60BFF280000831603132A
:100208001418072908290229831203138C11780866
:100218008A00770E8300FE0E7E0E090083120313F8
:10022800A200220884008001A001A1018312031307
:100238008F018E01272965300E02031C24292529E8
:10024800272901306429051C2A292B291F298F01F8
:100258008E01352965300E02031C332934293529CE
:1002680025290518382939292E2933300E02031C6F
:100278003E293F2950290130F9002008073C013E5A
:1002880047290310F90DFF3E031D45297908FA0097
:10029800220884007A0880040130A0070318A10A04
:1002A8000030A1072108803AFF0080307F02031D3B
:1002B8005F2908302002031C622963291A290030AB
:1002C8000800831203138F018E01101405186D297D
:1002D8006E29742964300E02031C732974296A2953
:1002E80064300E02031C79297A297C290030902970
:1002F8008F018E01051C81298229882964300E020C
:10030800031C872988297E2964300E02031C8D2945
:100318008E298F297A29013008008316031788014E
:100328008901831603138601880189018312031347
:10033800850186018801890170300A128A11CE214F
:100348000A128A11831603130F178F160F160F142C
:1003580083120313101690128F018E010800831662
:10036800031305108312031305104130FA00EE3011
:10037800F900F90BBD29FA0BBD29000083120313FC
:1003880005141030F900F90BC72900008316031370
:1003980005140800F9007908831603139300363012
:1003A80083120313940080308316031394000130E2
:1003B8009100871507168B170B17831203138C11DF
:0803C800831603138C150800D5
:04400E00D520FF3F7B
:00000001FF
